{"ReliefToken.sol":{"ReliefToken":{"abi":[{"inputs":[{"internalType":"string","name":"name","type":"string"},{"internalType":"string","name":"symbol","type":"string"},{"internalType":"address","name":"initialOwner","type":"address"}],"stateMutability":"nonpayable","type":"constructor"},{"inputs":[],"name":"AccessControlBadConfirmation","type":"error"},{"inputs":[{"internalType":"address","name":"account","type":"address"},{"internalType":"bytes32","name":"neededRole","type":"bytes32"}],"name":"AccessControlUnauthorizedAccount","type":"error"},{"inputs":[{"internalType":"address","name":"spender","type":"address"},{"internalType":"uint256","name":"allowance","type":"uint256"},{"internalType":"uint256","name":"needed","type":"uint256"}],"name":"ERC20InsufficientAllowance","type":"error"},{"inputs":[{"internalType":"address","name":"sender","type":"address"},{"internalType":"uint256","name":"balance","type":"uint256"},{"internalType":"uint256","name":"needed","type":"uint256"}],"name":"ERC20InsufficientBalance","type":"error"},{"inputs":[{"internalType":"address","name":"approver","type":"address"}],"name":"ERC20InvalidApprover","type":"error"},{"inputs":[{"internalType":"address","name":"receiver","type":"address"}],"name":"ERC20InvalidReceiver","type":"error"},{"inputs":[{"internalType":"address","name":"sender","type":"address"}],"name":"ERC20InvalidSender","type":"error"},{"inputs":[{"internalType":"address","name":"spender","type":"address"}],"name":"ERC20InvalidSpender","type":"error"},{"inputs":[{"internalType":"address","name":"owner","type":"address"}],"name":"OwnableInvalidOwner","type":"error"},{"inputs":[{"internalType":"address","name":"account","type":"address"}],"name":"OwnableUnauthorizedAccount","type":"error"},{"anonymous":false,"inputs":[{"indexed":true,"internalType":"address","name":"owner","type":"address"},{"indexed":true,"internalType":"address","name":"spender","type":"address"},{"indexed":false,"internalType":"uint256","name":"value","type":"uint256"}],"name":"Approval","type":"event"},{"anonymous":false,"inputs":[{"indexed":true,"internalType":"address","name":"beneficiary","type":"address"}],"name":"BeneficiaryRemoved","type":"event"},{"anonymous":false,"inputs":[{"indexed":true,"internalType":"address","name":"beneficiary","type":"address"},{"indexed":false,"internalType":"string[]","name":"categories","type":"string[]"},{"indexed":false,"internalType":"uint256[]","name":"limits","type":"uint256[]"}],"name":"BeneficiaryWhitelisted","type":"event"},{"anonymous":false,"inputs":[{"indexed":true,"internalType":"address","name":"beneficiary","type":"address"},{"indexed":false,"internalType":"string","name":"category","type":"string"},{"indexed":false,"internalType":"uint256","name":"amount","type":"uint256"}],"name":"CategorySpent","type":"event"},{"anonymous":false,"inputs":[{"indexed":true,"internalType":"uint256","name":"donationId","type":"uint256"},{"indexed":true,"internalType":"address","name":"donor","type":"address"},{"indexed":false,"internalType":"uint256","name":"amount","type":"uint256"},{"indexed":false,"internalType":"string","name":"category","type":"string"}],"name":"DonationRecorded","type":"event"},{"anonymous":false,"inputs":[{"indexed":true,"internalType":"uint256","name":"donationId","type":"uint256"},{"indexed":true,"internalType":"address","name":"verifier","type":"address"}],"name":"DonationVerified","type":"event"},{"anonymous":false,"inputs":[{"indexed":true,"internalType":"address","name":"previousOwner","type":"address"},{"indexed":true,"internalType":"address","name":"newOwner","type":"address"}],"name":"OwnershipTransferred","type":"event"},{"anonymous":false,"inputs":[{"indexed":true,"internalType":"address","name":"to","type":"address"},{"indexed":false,"internalType":"uint256","name":"amount","type":"uint256"},{"indexed":false,"internalType":"string","name":"category","type":"string"}],"name":"ReliefDistributed","type":"event"},{"anonymous":false,"inputs":[{"indexed":true,"internalType":"address","name":"beneficiary","type":"address"},{"indexed":true,"internalType":"address","name":"reliefPartner","type":"address"}],"name":"ReliefPartnerAssigned","type":"event"},{"anonymous":false,"inputs":[{"indexed":true,"internalType":"bytes32","name":"role","type":"bytes32"},{"indexed":true,"internalType":"bytes32","name":"previousAdminRole","type":"bytes32"},{"indexed":true,"internalType":"bytes32","name":"newAdminRole","type":"bytes32"}],"name":"RoleAdminChanged","type":"event"},{"anonymous":false,"inputs":[{"indexed":true,"internalType":"bytes32","name":"role","type":"bytes32"},{"indexed":true,"internalType":"address","name":"account","type":"address"},{"indexed":true,"internalType":"address","name":"sender","type":"address"}],"name":"RoleGranted","type":"event"},{"anonymous":false,"inputs":[{"indexed":true,"internalType":"bytes32","name":"role","type":"bytes32"},{"indexed":true,"internalType":"address","name":"account","type":"address"},{"indexed":true,"internalType":"address","name":"sender","type":"address"}],"name":"RoleRevoked","type":"event"},{"anonymous":false,"inputs":[{"indexed":true,"internalType":"uint256","name":"txId","type":"uint256"},{"indexed":false,"internalType":"address","name":"from","type":"address"},{"indexed":false,"internalType":"address","name":"to","type":"address"},{"indexed":false,"internalType":"uint256","name":"amount","type":"uint256"},{"indexed":false,"internalType":"string","name":"category","type":"string"}],"name":"TransactionRecorded","type":"event"},{"anonymous":false,"inputs":[{"indexed":true,"internalType":"address","name":"from","type":"address"},{"indexed":true,"internalType":"address","name":"to","type":"address"},{"indexed":false,"internalType":"uint256","name":"value","type":"uint256"}],"name":"Transfer","type":"event"},{"inputs":[],"name":"ADMIN_ROLE","outputs":[{"internalType":"bytes32","name":"","type":"bytes32"}],"stateMutability":"view","type":"function"},{"inputs":[],"name":"BENEFICIARY_ROLE","outputs":[{"internalType":"bytes32","name":"","type":"bytes32"}],"stateMutability":"view","type":"function"},{"inputs":[],"name":"DEFAULT_ADMIN_ROLE","outputs":[{"internalType":"bytes32","name":"","type":"bytes32"}],"stateMutability":"view","type":"function"},{"inputs":[],"name":"DONOR_ROLE","outputs":[{"internalType":"bytes32","name":"","type":"bytes32"}],"stateMutability":"view","type":"function"},{"inputs":[],"name":"RELIEF_PARTNER_ROLE","outputs":[{"internalType":"bytes32","name":"","type":"bytes32"}],"stateMutability":"view","type":"function"},{"inputs":[{"internalType":"address","name":"owner","type":"address"},{"internalType":"address","name":"spender","type":"address"}],"name":"allowance","outputs":[{"internalType":"uint256","name":"","type":"uint256"}],"stateMutability":"view","type":"function"},{"inputs":[{"internalType":"uint256","name":"","type":"uint256"}],"name":"allowedCategories","outputs":[{"internalType":"string","name":"","type":"string"}],"stateMutability":"view","type":"function"},{"inputs":[{"internalType":"address","name":"spender","type":"address"},{"internalType":"uint256","name":"value","type":"uint256"}],"name":"approve","outputs":[{"internalType":"bool","name":"","type":"bool"}],"stateMutability":"nonpayable","type":"function"},{"inputs":[{"internalType":"address","name":"beneficiary","type":"address"},{"internalType":"address","name":"reliefPartner","type":"address"}],"name":"assignReliefPartner","outputs":[],"stateMutability":"nonpayable","type":"function"},{"inputs":[{"internalType":"address","name":"account","type":"address"}],"name":"balanceOf","outputs":[{"internalType":"uint256","name":"","type":"uint256"}],"stateMutability":"view","type":"function"},{"inputs":[{"internalType":"address","name":"","type":"address"}],"name":"beneficiaries","outputs":[{"internalType":"bool","name":"isWhitelisted","type":"bool"},{"internalType":"uint256","name":"totalReceived","type":"uint256"}],"stateMutability":"view","type":"function"},{"inputs":[{"internalType":"uint256","name":"","type":"uint256"}],"name":"beneficiaryList","outputs":[{"internalType":"address","name":"","type":"address"}],"stateMutability":"view","type":"function"},{"inputs":[],"name":"decimals","outputs":[{"internalType":"uint8","name":"","type":"uint8"}],"stateMutability":"view","type":"function"},{"inputs":[{"internalType":"address","name":"to","type":"address"},{"internalType":"uint256","name":"amount","type":"uint256"},{"internalType":"string","name":"category","type":"string"}],"name":"distributeRelief","outputs":[],"stateMutability":"nonpayable","type":"function"},{"inputs":[{"internalType":"uint256","name":"amount","type":"uint256"},{"internalType":"string","name":"category","type":"string"},{"internalType":"string","name":"description","type":"string"}],"name":"donate","outputs":[],"stateMutability":"nonpayable","type":"function"},{"inputs":[],"name":"donationCount","outputs":[{"internalType":"uint256","name":"","type":"uint256"}],"stateMutability":"view","type":"function"},{"inputs":[{"internalType":"uint256","name":"","type":"uint256"}],"name":"donations","outputs":[{"internalType":"address","name":"donor","type":"address"},{"internalType":"uint256","name":"amount","type":"uint256"},{"internalType":"string","name":"category","type":"string"},{"internalType":"uint256","name":"timestamp","type":"uint256"},{"internalType":"bool","name":"verified","type":"bool"},{"internalType":"string","name":"description","type":"string"}],"stateMutability":"view","type":"function"},{"inputs":[{"internalType":"uint256","name":"index","type":"uint256"}],"name":"getBeneficiaryAt","outputs":[{"internalType":"address","name":"","type":"address"}],"stateMutability":"view","type":"function"},{"inputs":[],"name":"getBeneficiaryCount","outputs":[{"internalType":"uint256","name":"","type":"uint256"}],"stateMutability":"view","type":"function"},{"inputs":[{"internalType":"address","name":"beneficiary","type":"address"},{"internalType":"string","name":"category","type":"string"}],"name":"getCategorySpending","outputs":[{"internalType":"uint256","name":"spent","type":"uint256"},{"internalType":"uint256","name":"limit","type":"uint256"}],"stateMutability":"view","type":"function"},{"inputs":[{"internalType":"address","name":"beneficiary","type":"address"}],"name":"getReliefPartners","outputs":[{"internalType":"address[]","name":"","type":"address[]"}],"stateMutability":"view","type":"function"},{"inputs":[{"internalType":"bytes32","name":"role","type":"bytes32"}],"name":"getRoleAdmin","outputs":[{"internalType":"bytes32","name":"","type":"bytes32"}],"stateMutability":"view","type":"function"},{"inputs":[{"internalType":"uint256","name":"txId","type":"uint256"}],"name":"getTransaction","outputs":[{"internalType":"address","name":"from","type":"address"},{"internalType":"address","name":"to","type":"address"},{"internalType":"uint256","name":"amount","type":"uint256"},{"internalType":"string","name":"category","type":"string"},{"internalType":"uint256","name":"timestamp","type":"uint256"},{"internalType":"string","name":"description","type":"string"}],"stateMutability":"view","type":"function"},{"inputs":[{"internalType":"bytes32","name":"role","type":"bytes32"},{"internalType":"address","name":"account","type":"address"}],"name":"grantRole","outputs":[],"stateMutability":"nonpayable","type":"function"},{"inputs":[{"internalType":"bytes32","name":"role","type":"bytes32"},{"internalType":"address","name":"account","type":"address"}],"name":"hasRole","outputs":[{"internalType":"bool","name":"","type":"bool"}],"stateMutability":"view","type":"function"},{"inputs":[],"name":"name","outputs":[{"internalType":"string","name":"","type":"string"}],"stateMutability":"view","type":"function"},{"inputs":[],"name":"owner","outputs":[{"internalType":"address","name":"","type":"address"}],"stateMutability":"view","type":"function"},{"inputs":[{"internalType":"address","name":"donor","type":"address"},{"internalType":"uint256","name":"amount","type":"uint256"},{"internalType":"string","name":"category","type":"string"},{"internalType":"string","name":"description","type":"string"}],"name":"recordDonation","outputs":[],"stateMutability":"nonpayable","type":"function"},{"inputs":[{"internalType":"address","name":"","type":"address"},{"internalType":"uint256","name":"","type":"uint256"}],"name":"reliefPartners","outputs":[{"internalType":"address","name":"","type":"address"}],"stateMutability":"view","type":"function"},{"inputs":[{"internalType":"address","name":"beneficiary","type":"address"}],"name":"removeBeneficiary","outputs":[],"stateMutability":"nonpayable","type":"function"},{"inputs":[],"name":"renounceOwnership","outputs":[],"stateMutability":"nonpayable","type":"function"},{"inputs":[{"internalType":"bytes32","name":"role","type":"bytes32"},{"internalType":"address","name":"callerConfirmation","type":"address"}],"name":"renounceRole","outputs":[],"stateMutability":"nonpayable","type":"function"},{"inputs":[{"internalType":"bytes32","name":"role","type":"bytes32"},{"internalType":"address","name":"account","type":"address"}],"name":"revokeRole","outputs":[],"stateMutability":"nonpayable","type":"function"},{"inputs":[{"internalType":"bytes4","name":"interfaceId","type":"bytes4"}],"name":"supportsInterface","outputs":[{"internalType":"bool","name":"","type":"bool"}],"stateMutability":"view","type":"function"},{"inputs":[],"name":"symbol","outputs":[{"internalType":"string","name":"","type":"string"}],"stateMutability":"view","type":"function"},{"inputs":[],"name":"totalSupply","outputs":[{"internalType":"uint256","name":"","type":"uint256"}],"stateMutability":"view","type":"function"},{"inputs":[],"name":"transactionCount","outputs":[{"internalType":"uint256","name":"","type":"uint256"}],"stateMutability":"view","type":"function"},{"inputs":[{"internalType":"uint256","name":"","type":"uint256"}],"name":"transactions","outputs":[{"internalType":"address","name":"from","type":"address"},{"internalType":"address","name":"to","type":"address"},{"internalType":"uint256","name":"amount","type":"uint256"},{"internalType":"string","name":"category","type":"string"},{"internalType":"uint256","name":"timestamp","type":"uint256"},{"internalType":"string","name":"description","type":"string"}],"stateMutability":"view","type":"function"},{"inputs":[{"internalType":"address","name":"to","type":"address"},{"internalType":"uint256","name":"value","type":"uint256"}],"name":"transfer","outputs":[{"internalType":"bool","name":"","type":"bool"}],"stateMutability":"nonpayable","type":"function"},{"inputs":[{"internalType":"address","name":"from","type":"address"},{"internalType":"address","name":"to","type":"address"},{"internalType":"uint256","name":"value","type":"uint256"}],"name":"transferFrom","outputs":[{"internalType":"bool","name":"","type":"bool"}],"stateMutability":"nonpayable","type":"function"},{"inputs":[{"internalType":"address","name":"newOwner","type":"address"}],"name":"transferOwnership","outputs":[],"stateMutability":"nonpayable","type":"function"},{"inputs":[{"internalType":"address","name":"to","type":"address"},{"internalType":"uint256","name":"amount","type":"uint256"},{"internalType":"string","name":"category","type":"string"}],"name":"transferWithCategory","outputs":[{"internalType":"bool","name":"","type":"bool"}],"stateMutability":"nonpayable","type":"function"},{"inputs":[{"internalType":"uint256","name":"donationId","type":"uint256"}],"name":"verifyDonation","outputs":[],"stateMutability":"nonpayable","type":"function"},{"inputs":[{"internalType":"address","name":"beneficiary","type":"address"},{"internalType":"string[]","name":"categories","type":"string[]"},{"internalType":"uint256[]","name":"limits","type":"uint256[]"}],"name":"whitelistBeneficiary","outputs":[],"stateMutability":"nonpayable","type":"function"}],"evm":{"bytecode":{"linkReferences":{},"object":"60806040523480156200001157600080fd5b5060405162002f8838038062002f8883398101604081905262000034916200042b565b808383600362000045838262000547565b50600462000054828262000547565b5050506001600160a01b0381166200008657604051631e4fbdf760e01b81526000600482015260240160405180910390fd5b620000918162000261565b50600e8054600181018255600091909152604080518082019091526004815263199bdbd960e21b602082015260008051602062002f6883398151915290910190620000dd908262000547565b50600e805460018101825560009190915260408051808201909152600781526639b432b63a32b960c91b602082015260008051602062002f68833981519152909101906200012c908262000547565b50600e80546001810182556000919091526040805180820190915260078152661b59591a58d85b60ca1b602082015260008051602062002f68833981519152909101906200017b908262000547565b50600e8054600181018255600091909152604080518082019091526008815267636c6f7468696e6760c01b602082015260008051602062002f6883398151915290910190620001cb908262000547565b50600e80546001810182556000919091526040805180820190915260098152687574696c697469657360b81b602082015260008051602062002f68833981519152909101906200021c908262000547565b506200022a600082620002b3565b50620002577fa49807205ce4d355092ef5a8a18f56e8913cf4a201fbe287825b095693c2177582620002b3565b5050505062000613565b600580546001600160a01b038381166001600160a01b0319831681179093556040519116919082907f8be0079c531659141344cd1fd0a4f28419497f9722a3daafe3b4186f6b6457e090600090a35050565b60008281526006602090815260408083206001600160a01b038516845290915281205460ff166200035c5760008381526006602090815260408083206001600160a01b03861684529091529020805460ff19166001179055620003133390565b6001600160a01b0316826001600160a01b0316847f2f8788117e7eff1d82e926ec794901d17c78024a50270940304540a733656f0d60405160405180910390a450600162000360565b5060005b92915050565b634e487b7160e01b600052604160045260246000fd5b600082601f8301126200038e57600080fd5b81516001600160401b0380821115620003ab57620003ab62000366565b604051601f8301601f19908116603f01168101908282118183101715620003d657620003d662000366565b81604052838152602092508683858801011115620003f357600080fd5b600091505b83821015620004175785820183015181830184015290820190620003f8565b600093810190920192909252949350505050565b6000806000606084860312156200044157600080fd5b83516001600160401b03808211156200045957600080fd5b62000467878388016200037c565b945060208601519150808211156200047e57600080fd5b506200048d868287016200037c565b604086015190935090506001600160a01b0381168114620004ad57600080fd5b809150509250925092565b600181811c90821680620004cd57607f821691505b602082108103620004ee57634e487b7160e01b600052602260045260246000fd5b50919050565b601f8211156200054257600081815260208120601f850160051c810160208610156200051d5750805b601f850160051c820191505b818110156200053e5782815560010162000529565b5050505b505050565b81516001600160401b0381111562000563576200056362000366565b6200057b81620005748454620004b8565b84620004f4565b602080601f831160018114620005b357600084156200059a5750858301515b600019600386901b1c1916600185901b1785556200053e565b600085815260208120601f198616915b82811015620005e457888601518255948401946001909101908401620005c3565b5085821015620006035787850151600019600388901b60f8161c191681555b5050505050600190811b01905550565b61294580620006236000396000f3fe608060405234801561001057600080fd5b50600436106102745760003560e01c80638bb6378611610151578063b77bf600116100c3578063dd62ed3e11610087578063dd62ed3e146105d5578063e9f6ab251461060e578063ef337b4c14610636578063f2ccf8391461065d578063f2fde38b14610670578063f8626af81461068357600080fd5b8063b77bf60014610558578063b881050114610561578063c864be8a14610574578063ced3a4031461059b578063d547741f146105c257600080fd5b80639ace38c2116101155780639ace38c2146104f15780639e761bbb14610504578063a217fddf14610517578063a9059cbb1461051f578063b681218214610532578063b6e8d2e21461054557600080fd5b80638bb637861461049d5780638da5cb5b146104bd57806391d14854146104ce57806395d89b41146104e15780639a6e7fd1146104e957600080fd5b80632abfab4d116101ea57806336568abe116101ae57806336568abe1461041e578063453570991461043157806359633a1c1461044457806370a0823114610457578063715018a61461048057806375b238fc1461048857600080fd5b80632abfab4d146103bb5780632f2ff15d146103c45780632fdec199146103d7578063313ce567146103ea57806333ea3dc8146103f957600080fd5b806311e03eaa1161023c57806311e03eaa14610322578063140d87131461033557806318160ddd1461034857806323b872dd1461035a578063248a9ca31461036d57806327be6f0e1461039057600080fd5b8063015677391461027957806301865c93146102c257806301ffc9a7146102d757806306fdde03146102fa578063095ea7b31461030f575b600080fd5b6102a6610287366004612008565b6007602052600090815260409020805460019091015460ff9091169082565b6040805192151583526020830191909152015b60405180910390f35b6102d56102d03660046120e1565b6106a8565b005b6102ea6102e5366004612138565b610829565b60405190151581526020016102b9565b610302610860565b6040516102b991906121b2565b6102ea61031d3660046121c5565b6108f2565b6102d56103303660046121ef565b61090a565b6103026103433660046121ef565b6109b3565b6002545b6040519081526020016102b9565b6102ea610368366004612208565b610a5f565b61034c61037b3660046121ef565b60009081526006602052604090206001015490565b6103a361039e3660046121c5565b610a83565b6040516001600160a01b0390911681526020016102b9565b61034c600b5481565b6102d56103d2366004612244565b610abb565b6102d56103e5366004612270565b610ae6565b604051601281526020016102b9565b61040c6104073660046121ef565b610ce5565b6040516102b99695949392919061229a565b6102d561042c366004612244565b610e5c565b6102d561043f3660046122f2565b610e94565b6102d5610452366004612008565b610fc2565b61034c610465366004612008565b6001600160a01b031660009081526020819052604090205490565b6102d561106f565b61034c6000805160206128f083398151915281565b6104b06104ab366004612008565b611083565b6040516102b99190612370565b6005546001600160a01b03166103a3565b6102ea6104dc366004612244565b6110f9565b610302611124565b600d5461034c565b61040c6104ff3660046121ef565b611133565b6103a36105123660046121ef565b611286565b61034c600081565b6102ea61052d3660046121c5565b6112b0565b6102d561054036600461244c565b6112be565b6103a36105533660046121ef565b61148c565b61034c60095481565b6102ea61056f3660046120e1565b611504565b61034c7f7590f0264744cd50915976d360e18170bc29db6f1a196d3b1061f7f19405217081565b61034c7fc8a41221bcd7fcf2c225f5a9265e1d4d39949d89197159d59e5f4b87b62c419e81565b6102d56105d0366004612244565b611707565b61034c6105e3366004612270565b6001600160a01b03918216600090815260016020908152604080832093909416825291909152205490565b61062161061c366004612528565b61172c565b604080519283526020830191909152016102b9565b61034c7f1a7ca3683258d2e65f045eaacdfad1b350babe3a067c36cac1f329ee9ac0138f81565b6102d561066b366004612576565b611796565b6102d561067e366004612008565b6118f3565b6106966106913660046121ef565b611931565b6040516102b9969594939291906125d9565b6106b0611a05565b6001600160a01b03831660009081526007602052604090205460ff1661071d5760405162461bcd60e51b815260206004820152601b60248201527f42656e6566696369617279206e6f742077686974656c6973746564000000000060448201526064015b60405180910390fd5b6000821161076d5760405162461bcd60e51b815260206004820152601d60248201527f416d6f756e74206d7573742062652067726561746572207468616e20300000006044820152606401610714565b6107778383611a32565b6001600160a01b038316600090815260076020526040812060010180548492906107a2908490612636565b925050819055506107e133848484604051806040016040528060138152602001722932b634b2b3103234b9ba3934b13aba34b7b760691b815250611a6c565b826001600160a01b03167f166dba3d0155c9d457d63e1e4753b4562af4286352d0a599aed506a87e0b28ea838360405161081c929190612649565b60405180910390a2505050565b60006001600160e01b03198216637965db0b60e01b148061085a57506301ffc9a760e01b6001600160e01b03198316145b92915050565b60606003805461086f90612662565b80601f016020809104026020016040519081016040528092919081815260200182805461089b90612662565b80156108e85780601f106108bd576101008083540402835291602001916108e8565b820191906000526020600020905b8154815290600101906020018083116108cb57829003601f168201915b5050505050905090565b600033610900818585611b72565b5060019392505050565b6000805160206128f083398151915261092281611b7f565b600b5482106109695760405162461bcd60e51b8152602060048201526013602482015272125b9d985b1a5908191bdb985d1a5bdb881a59606a1b6044820152606401610714565b6000828152600a6020526040808220600401805460ff1916600117905551339184917fd0ae5b857930aff0673411216c2a768bd07482bc9699547701fdac589e8fa4359190a35050565b600e81815481106109c357600080fd5b9060005260206000200160009150905080546109de90612662565b80601f0160208091040260200160405190810160405280929190818152602001828054610a0a90612662565b8015610a575780601f10610a2c57610100808354040283529160200191610a57565b820191906000526020600020905b815481529060010190602001808311610a3a57829003601f168201915b505050505081565b600033610a6d858285611b89565b610a78858585611c02565b506001949350505050565b600c6020528160005260406000208181548110610a9f57600080fd5b6000918252602090912001546001600160a01b03169150829050565b600082815260066020526040902060010154610ad681611b7f565b610ae08383611c61565b50505050565b610afe6000805160206128f0833981519152336110f9565b80610b2b5750336001600160a01b038316148015610b2b57503360009081526007602052604090205460ff165b610b685760405162461bcd60e51b815260206004820152600e60248201526d139bdd08185d5d1a1bdc9a5e995960921b6044820152606401610714565b6001600160a01b03821615801590610b8857506001600160a01b03811615155b610bc65760405162461bcd60e51b815260206004820152600f60248201526e496e76616c6964206164647265737360881b6044820152606401610714565b6001600160a01b0382166000908152600c60205260408120905b8154811015610c7957826001600160a01b0316828281548110610c0557610c0561269c565b6000918252602090912001546001600160a01b031603610c675760405162461bcd60e51b815260206004820152601f60248201527f52656c69656620706172746e657220616c72656164792061737369676e6564006044820152606401610714565b80610c71816126b2565b915050610be0565b506001600160a01b038381166000818152600c60209081526040808320805460018101825590845291832090910180546001600160a01b0319169487169485179055517f7ba3715b8126554030aeda94892a4aa884728dce4c8e88c0a9489fca76b30ca99190a3505050565b60008181526008602052604081208054600182015460028301546004840154600385018054879687966060968896889693956001600160a01b03938416959390921693909260058701908390610d3a90612662565b80601f0160208091040260200160405190810160405280929190818152602001828054610d6690612662565b8015610db35780601f10610d8857610100808354040283529160200191610db3565b820191906000526020600020905b815481529060010190602001808311610d9657829003601f168201915b50505050509250808054610dc690612662565b80601f0160208091040260200160405190810160405280929190818152602001828054610df290612662565b8015610e3f5780601f10610e1457610100808354040283529160200191610e3f565b820191906000526020600020905b815481529060010190602001808311610e2257829003601f168201915b505050505090509650965096509650965096505091939550919395565b6001600160a01b0381163314610e855760405163334bd91960e11b815260040160405180910390fd5b610e8f8282611cf5565b505050565b6000805160206128f0833981519152610eac81611b7f565b6040805160c0810182526001600160a01b038781168252602080830188815283850188815242606086015260006080860181905260a08601899052600b548152600a90935294909120835181546001600160a01b031916931692909217825551600182015591519091906002820190610f259082612719565b5060608201516003820155608082015160048201805460ff191691151591909117905560a08201516005820190610f5c9082612719565b50905050846001600160a01b0316600b547ffcb42ed01b9ba3f02d9ec63abc24225a939113506f163162fd75ea487bb28dc68686604051610f9e929190612649565b60405180910390a3600b8054906000610fb6836126b2565b91905055505050505050565b610fca611a05565b6001600160a01b03811660009081526007602052604090205460ff166110265760405162461bcd60e51b81526020600482015260116024820152704e6f7420612062656e656669636961727960781b6044820152606401610714565b6001600160a01b038116600081815260076020526040808220805460ff19169055517f72977dad29432f655f11c2f0e72ef5124bb9ade7a512fb7a43a9f504df2234289190a250565b611077611a05565b6110816000611d62565b565b6001600160a01b0381166000908152600c60209081526040918290208054835181840281018401909452808452606093928301828280156110ed57602002820191906000526020600020905b81546001600160a01b031681526001909101906020018083116110cf575b50505050509050919050565b60009182526006602090815260408084206001600160a01b0393909316845291905290205460ff1690565b60606004805461086f90612662565b60086020526000908152604090208054600182015460028301546003840180546001600160a01b03948516959490931693919261116f90612662565b80601f016020809104026020016040519081016040528092919081815260200182805461119b90612662565b80156111e85780601f106111bd576101008083540402835291602001916111e8565b820191906000526020600020905b8154815290600101906020018083116111cb57829003601f168201915b50505050509080600401549080600501805461120390612662565b80601f016020809104026020016040519081016040528092919081815260200182805461122f90612662565b801561127c5780601f106112515761010080835404028352916020019161127c565b820191906000526020600020905b81548152906001019060200180831161125f57829003601f168201915b5050505050905086565b600d818154811061129657600080fd5b6000918252602090912001546001600160a01b0316905081565b600033610900818585611c02565b6112c6611a05565b6001600160a01b03831661130e5760405162461bcd60e51b815260206004820152600f60248201526e496e76616c6964206164647265737360881b6044820152606401610714565b80518251146113585760405162461bcd60e51b8152602060048201526016602482015275082e4e4c2f2e640d8cadccee8d040dad2e6dac2e8c6d60531b6044820152606401610714565b6001600160a01b0383166000908152600760205260409020805460ff166113cf578054600160ff1990911681178255600d805491820181556000527fd7b6990105719101dabeb77144f2a3385c8033acd3af97e9423a695e81ad1eb50180546001600160a01b0319166001600160a01b0386161790555b60005b8351811015611442578281815181106113ed576113ed61269c565b60200260200101518260020185838151811061140b5761140b61269c565b602002602001015160405161142091906127d9565b908152604051908190036020019020558061143a816126b2565b9150506113d2565b50836001600160a01b03167f01f1d862a00ecaa68b11ac05239f5aa7b1528c2ee427aee14aca0083c6909d33848460405161147e9291906127f5565b60405180910390a250505050565b600d5460009082106114d65760405162461bcd60e51b8152602060048201526013602482015272496e646578206f7574206f6620626f756e647360681b6044820152606401610714565b600d82815481106114e9576114e961269c565b6000918252602090912001546001600160a01b031692915050565b3360009081526007602052604081205460ff166115575760405162461bcd60e51b81526020600482015260116024820152704e6f7420612062656e656669636961727960781b6044820152606401610714565b3360009081526007602052604090819020905160029091019061157b9084906127d9565b9081526020016040518091039020548360076000336001600160a01b03166001600160a01b03168152602001908152602001600020600301846040516115c191906127d9565b9081526020016040518091039020546115da9190612636565b11156116285760405162461bcd60e51b815260206004820152601760248201527f43617465676f7279206c696d69742065786365656465640000000000000000006044820152606401610714565b3360009081526007602052604090819020905184916003019061164c9085906127d9565b908152602001604051809103902060008282546116699190612636565b925050819055506116b2338585856040518060400160405280601781526020017f43617465676f72792d6261736564207472616e73666572000000000000000000815250611a6c565b336001600160a01b03167fcfbc2b064e4fe80c5e4495fcbea14e2354aa4da6c86f65666899fde522846feb83856040516116ed929190612890565b60405180910390a26116ff84846112b0565b949350505050565b60008281526006602052604090206001015461172281611b7f565b610ae08383611cf5565b6001600160a01b0382166000908152600760205260408082209051829190600382019061175a9086906127d9565b908152602001604051809103902054816002018560405161177b91906127d9565b90815260200160405180910390205492509250509250929050565b600083116117e65760405162461bcd60e51b815260206004820152601d60248201527f416d6f756e74206d7573742062652067726561746572207468616e20300000006044820152606401610714565b6040805160c081018252338152602080820186815282840186815242606085015260016080850181905260a08501879052600b546000908152600a90945294909220835181546001600160a01b0319166001600160a01b039091161781559051938101939093555190919060028201906118609082612719565b5060608201516003820155608082015160048201805460ff191691151591909117905560a082015160058201906118979082612719565b5050600b546040513392507ffcb42ed01b9ba3f02d9ec63abc24225a939113506f163162fd75ea487bb28dc6906118d19087908790612649565b60405180910390a3600b80549060006118e9836126b2565b9190505550505050565b6118fb611a05565b6001600160a01b03811661192557604051631e4fbdf760e01b815260006004820152602401610714565b61192e81611d62565b50565b600a602052600090815260409020805460018201546002830180546001600160a01b0390931693919261196390612662565b80601f016020809104026020016040519081016040528092919081815260200182805461198f90612662565b80156119dc5780601f106119b1576101008083540402835291602001916119dc565b820191906000526020600020905b8154815290600101906020018083116119bf57829003601f168201915b50505050600383015460048401546005850180549495929460ff90921693509061120390612662565b6005546001600160a01b031633146110815760405163118cdaa760e01b8152336004820152602401610714565b6001600160a01b038216611a5c5760405163ec442f0560e01b815260006004820152602401610714565b611a6860008383611db4565b5050565b6040805160c0810182526001600160a01b03808816825286811660208084019182528385018881526060850188815242608087015260a086018890526009546000908152600890935295909120845181549085166001600160a01b03199182161782559251600182018054919095169316929092179092559051600282015591519091906003820190611aff9082612719565b506080820151600482015560a08201516005820190611b1e9082612719565b509050506009547f95b08f0cc03d1a6dcfbc3b6a35813240cc3d47678b7bff83a4fd947258d7587786868686604051611b5a94939291906128b2565b60405180910390a260098054906000610fb6836126b2565b610e8f8383836001611ede565b61192e8133611fb3565b6001600160a01b03838116600090815260016020908152604080832093861683529290522054600019811015610ae05781811015611bf357604051637dc7a0d960e11b81526001600160a01b03841660048201526024810182905260448101839052606401610714565b610ae084848484036000611ede565b6001600160a01b038316611c2c57604051634b637e8f60e11b815260006004820152602401610714565b6001600160a01b038216611c565760405163ec442f0560e01b815260006004820152602401610714565b610e8f838383611db4565b6000611c6d83836110f9565b611ced5760008381526006602090815260408083206001600160a01b03861684529091529020805460ff19166001179055611ca53390565b6001600160a01b0316826001600160a01b0316847f2f8788117e7eff1d82e926ec794901d17c78024a50270940304540a733656f0d60405160405180910390a450600161085a565b50600061085a565b6000611d0183836110f9565b15611ced5760008381526006602090815260408083206001600160a01b0386168085529252808320805460ff1916905551339286917ff6391f5c32d9c69d2a47ea670b442974b53935d1edc7fd64eb21e047a839171b9190a450600161085a565b600580546001600160a01b038381166001600160a01b0319831681179093556040519116919082907f8be0079c531659141344cd1fd0a4f28419497f9722a3daafe3b4186f6b6457e090600090a35050565b6001600160a01b038316611ddf578060026000828254611dd49190612636565b90915550611e519050565b6001600160a01b03831660009081526020819052604090205481811015611e325760405163391434e360e21b81526001600160a01b03851660048201526024810182905260448101839052606401610714565b6001600160a01b03841660009081526020819052604090209082900390555b6001600160a01b038216611e6d57600280548290039055611e8c565b6001600160a01b03821660009081526020819052604090208054820190555b816001600160a01b0316836001600160a01b03167fddf252ad1be2c89b69c2b068fc378daa952ba7f163c4a11628f55a4df523b3ef83604051611ed191815260200190565b60405180910390a3505050565b6001600160a01b038416611f085760405163e602df0560e01b815260006004820152602401610714565b6001600160a01b038316611f3257604051634a1406b160e11b815260006004820152602401610714565b6001600160a01b0380851660009081526001602090815260408083209387168352929052208290558015610ae057826001600160a01b0316846001600160a01b03167f8c5be1e5ebec7d5bd14f71427d1e84f3dd0314c0f7b2291e5b200ac8c7c3b92584604051611fa591815260200190565b60405180910390a350505050565b611fbd82826110f9565b611a685760405163e2517d3f60e01b81526001600160a01b038216600482015260248101839052604401610714565b80356001600160a01b038116811461200357600080fd5b919050565b60006020828403121561201a57600080fd5b61202382611fec565b9392505050565b634e487b7160e01b600052604160045260246000fd5b604051601f8201601f1916810167ffffffffffffffff811182821017156120695761206961202a565b604052919050565b600082601f83011261208257600080fd5b813567ffffffffffffffff81111561209c5761209c61202a565b6120af601f8201601f1916602001612040565b8181528460208386010111156120c457600080fd5b816020850160208301376000918101602001919091529392505050565b6000806000606084860312156120f657600080fd5b6120ff84611fec565b925060208401359150604084013567ffffffffffffffff81111561212257600080fd5b61212e86828701612071565b9150509250925092565b60006020828403121561214a57600080fd5b81356001600160e01b03198116811461202357600080fd5b60005b8381101561217d578181015183820152602001612165565b50506000910152565b6000815180845261219e816020860160208601612162565b601f01601f19169290920160200192915050565b6020815260006120236020830184612186565b600080604083850312156121d857600080fd5b6121e183611fec565b946020939093013593505050565b60006020828403121561220157600080fd5b5035919050565b60008060006060848603121561221d57600080fd5b61222684611fec565b925061223460208501611fec565b9150604084013590509250925092565b6000806040838503121561225757600080fd5b8235915061226760208401611fec565b90509250929050565b6000806040838503121561228357600080fd5b61228c83611fec565b915061226760208401611fec565b6001600160a01b038781168252861660208201526040810185905260c0606082018190526000906122cd90830186612186565b84608084015282810360a08401526122e58185612186565b9998505050505050505050565b6000806000806080858703121561230857600080fd5b61231185611fec565b935060208501359250604085013567ffffffffffffffff8082111561233557600080fd5b61234188838901612071565b9350606087013591508082111561235757600080fd5b5061236487828801612071565b91505092959194509250565b6020808252825182820181905260009190848201906040850190845b818110156123b15783516001600160a01b03168352928401929184019160010161238c565b50909695505050505050565b600067ffffffffffffffff8211156123d7576123d761202a565b5060051b60200190565b600082601f8301126123f257600080fd5b81356020612407612402836123bd565b612040565b82815260059290921b8401810191818101908684111561242657600080fd5b8286015b84811015612441578035835291830191830161242a565b509695505050505050565b60008060006060848603121561246157600080fd5b61246a84611fec565b925060208085013567ffffffffffffffff8082111561248857600080fd5b818701915087601f83011261249c57600080fd5b81356124aa612402826123bd565b81815260059190911b8301840190848101908a8311156124c957600080fd5b8585015b83811015612501578035858111156124e55760008081fd5b6124f38d89838a0101612071565b8452509186019186016124cd565b5096505050604087013592508083111561251a57600080fd5b505061212e868287016123e1565b6000806040838503121561253b57600080fd5b61254483611fec565b9150602083013567ffffffffffffffff81111561256057600080fd5b61256c85828601612071565b9150509250929050565b60008060006060848603121561258b57600080fd5b83359250602084013567ffffffffffffffff808211156125aa57600080fd5b6125b687838801612071565b935060408601359150808211156125cc57600080fd5b5061212e86828701612071565b60018060a01b038716815285602082015260c06040820152600061260060c0830187612186565b856060840152841515608084015282810360a08401526122e58185612186565b634e487b7160e01b600052601160045260246000fd5b8082018082111561085a5761085a612620565b8281526040602082015260006116ff6040830184612186565b600181811c9082168061267657607f821691505b60208210810361269657634e487b7160e01b600052602260045260246000fd5b50919050565b634e487b7160e01b600052603260045260246000fd5b6000600182016126c4576126c4612620565b5060010190565b601f821115610e8f57600081815260208120601f850160051c810160208610156126f25750805b601f850160051c820191505b81811015612711578281556001016126fe565b505050505050565b815167ffffffffffffffff8111156127335761273361202a565b612747816127418454612662565b846126cb565b602080601f83116001811461277c57600084156127645750858301515b600019600386901b1c1916600185901b178555612711565b600085815260208120601f198616915b828110156127ab5788860151825594840194600190910190840161278c565b50858210156127c95787850151600019600388901b60f8161c191681555b5050505050600190811b01905550565b600082516127eb818460208701612162565b9190910192915050565b6000604082016040835280855180835260608501915060608160051b8601019250602080880160005b8381101561284c57605f1988870301855261283a868351612186565b9550938201939082019060010161281e565b50508584038187015286518085528782019482019350915060005b8281101561288357845184529381019392810192600101612867565b5091979650505050505050565b6040815260006128a36040830185612186565b90508260208301529392505050565b6001600160a01b03858116825284166020820152604081018390526080606082018190526000906128e590830184612186565b969550505050505056fea49807205ce4d355092ef5a8a18f56e8913cf4a201fbe287825b095693c21775a264697066735822122053d505ff00fe4b04d65af9d01e09ac51cf068a4c6130ca8098600f803713839264736f6c63430008140033bb7b4a454dc3493923482f07822329ed19e8244eff582cc204f8554c3620c3fd","opcodes":"PUSH1 0x80 PUSH1 0x40 MSTORE CALLVALUE DUP1 ISZERO PUSH3 0x11 JUMPI PUSH1 0x0 DUP1 REVERT JUMPDEST POP PUSH1 0x40 MLOAD PUSH3 0x2F88 CODESIZE SUB DUP1 PUSH3 0x2F88 DUP4 CODECOPY DUP2 ADD PUSH1 0x40 DUP2 SWAP1 MSTORE PUSH3 0x34 SWAP2 PUSH3 0x42B JUMP JUMPDEST DUP1 DUP4 DUP4 PUSH1 0x3 PUSH3 0x45 DUP4 DUP3 PUSH3 0x547 JUMP JUMPDEST POP PUSH1 0x4 PUSH3 0x54 DUP3 DUP3 PUSH3 0x547 JUMP JUMPDEST POP POP POP PUSH1 0x1 PUSH1 0x1 PUSH1 0xA0 SHL SUB DUP2 AND PUSH3 0x86 JUMPI PUSH1 0x40 MLOAD PUSH4 0x1E4FBDF7 PUSH1 0xE0 SHL DUP2 MSTORE PUSH1 0x0 PUSH1 0x4 DUP3 ADD MSTORE PUSH1 0x24 ADD PUSH1 0x40 MLOAD DUP1 SWAP2 SUB SWAP1 REVERT JUMPDEST PUSH3 0x91 DUP2 PUSH3 0x261 JUMP JUMPDEST POP PUSH1 0xE DUP1 SLOAD PUSH1 0x1 DUP2 ADD DUP3 SSTORE PUSH1 0x0 SWAP2 SWAP1 SWAP2 MSTORE PUSH1 0x40 DUP1 MLOAD DUP1 DUP3 ADD SWAP1 SWAP2 MSTORE PUSH1 0x4 DUP2 MSTORE PUSH4 0x199BDBD9 PUSH1 0xE2 SHL PUSH1 0x20 DUP3 ADD MSTORE PUSH1 0x0 DUP1 MLOAD PUSH1 0x20 PUSH3 0x2F68 DUP4 CODECOPY DUP2 MLOAD SWAP2 MSTORE SWAP1 SWAP2 ADD SWAP1 PUSH3 0xDD SWAP1 DUP3 PUSH3 0x547 JUMP JUMPDEST POP PUSH1 0xE DUP1 SLOAD PUSH1 0x1 DUP2 ADD DUP3 SSTORE PUSH1 0x0 SWAP2 SWAP1 SWAP2 MSTORE PUSH1 0x40 DUP1 MLOAD DUP1 DUP3 ADD SWAP1 SWAP2 MSTORE PUSH1 0x7 DUP2 MSTORE PUSH7 0x39B432B63A32B9 PUSH1 0xC9 SHL PUSH1 0x20 DUP3 ADD MSTORE PUSH1 0x0 DUP1 MLOAD PUSH1 0x20 PUSH3 0x2F68 DUP4 CODECOPY DUP2 MLOAD SWAP2 MSTORE SWAP1 SWAP2 ADD SWAP1 PUSH3 0x12C SWAP1 DUP3 PUSH3 0x547 JUMP JUMPDEST POP PUSH1 0xE DUP1 SLOAD PUSH1 0x1 DUP2 ADD DUP3 SSTORE PUSH1 0x0 SWAP2 SWAP1 SWAP2 MSTORE PUSH1 0x40 DUP1 MLOAD DUP1 DUP3 ADD SWAP1 SWAP2 MSTORE PUSH1 0x7 DUP2 MSTORE PUSH7 0x1B59591A58D85B PUSH1 0xCA SHL PUSH1 0x20 DUP3 ADD MSTORE PUSH1 0x0 DUP1 MLOAD PUSH1 0x20 PUSH3 0x2F68 DUP4 CODECOPY DUP2 MLOAD SWAP2 MSTORE SWAP1 SWAP2 ADD SWAP1 PUSH3 0x17B SWAP1 DUP3 PUSH3 0x547 JUMP JUMPDEST POP PUSH1 0xE DUP1 SLOAD PUSH1 0x1 DUP2 ADD DUP3 SSTORE PUSH1 0x0 SWAP2 SWAP1 SWAP2 MSTORE PUSH1 0x40 DUP1 MLOAD DUP1 DUP3 ADD SWAP1 SWAP2 MSTORE PUSH1 0x8 DUP2 MSTORE PUSH8 0x636C6F7468696E67 PUSH1 0xC0 SHL PUSH1 0x20 DUP3 ADD MSTORE PUSH1 0x0 DUP1 MLOAD PUSH1 0x20 PUSH3 0x2F68 DUP4 CODECOPY DUP2 MLOAD SWAP2 MSTORE SWAP1 SWAP2 ADD SWAP1 PUSH3 0x1CB SWAP1 DUP3 PUSH3 0x547 JUMP JUMPDEST POP PUSH1 0xE DUP1 SLOAD PUSH1 0x1 DUP2 ADD DUP3 SSTORE PUSH1 0x0 SWAP2 SWAP1 SWAP2 MSTORE PUSH1 0x40 DUP1 MLOAD DUP1 DUP3 ADD SWAP1 SWAP2 MSTORE PUSH1 0x9 DUP2 MSTORE PUSH9 0x7574696C6974696573 PUSH1 0xB8 SHL PUSH1 0x20 DUP3 ADD MSTORE PUSH1 0x0 DUP1 MLOAD PUSH1 0x20 PUSH3 0x2F68 DUP4 CODECOPY DUP2 MLOAD SWAP2 MSTORE SWAP1 SWAP2 ADD SWAP1 PUSH3 0x21C SWAP1 DUP3 PUSH3 0x547 JUMP JUMPDEST POP PUSH3 0x22A PUSH1 0x0 DUP3 PUSH3 0x2B3 JUMP JUMPDEST POP PUSH3 0x257 PUSH32 0xA49807205CE4D355092EF5A8A18F56E8913CF4A201FBE287825B095693C21775 DUP3 PUSH3 0x2B3 JUMP JUMPDEST POP POP POP POP PUSH3 0x613 JUMP JUMPDEST PUSH1 0x5 DUP1 SLOAD PUSH1 0x1 PUSH1 0x1 PUSH1 0xA0 SHL SUB DUP4 DUP2 AND PUSH1 0x1 PUSH1 0x1 PUSH1 0xA0 SHL SUB NOT DUP4 AND DUP2 OR SWAP1 SWAP4 SSTORE PUSH1 0x40 MLOAD SWAP2 AND SWAP2 SWAP1 DUP3 SWAP1 PUSH32 0x8BE0079C531659141344CD1FD0A4F28419497F9722A3DAAFE3B4186F6B6457E0 SWAP1 PUSH1 0x0 SWAP1 LOG3 POP POP JUMP JUMPDEST PUSH1 0x0 DUP3 DUP2 MSTORE PUSH1 0x6 PUSH1 0x20 SWAP1 DUP2 MSTORE PUSH1 0x40 DUP1 DUP4 KECCAK256 PUSH1 0x1 PUSH1 0x1 PUSH1 0xA0 SHL SUB DUP6 AND DUP5 MSTORE SWAP1 SWAP2 MSTORE DUP2 KECCAK256 SLOAD PUSH1 0xFF AND PUSH3 0x35C JUMPI PUSH1 0x0 DUP4 DUP2 MSTORE PUSH1 0x6 PUSH1 0x20 SWAP1 DUP2 MSTORE PUSH1 0x40 DUP1 DUP4 KECCAK256 PUSH1 0x1 PUSH1 0x1 PUSH1 0xA0 SHL SUB DUP7 AND DUP5 MSTORE SWAP1 SWAP2 MSTORE SWAP1 KECCAK256 DUP1 SLOAD PUSH1 0xFF NOT AND PUSH1 0x1 OR SWAP1 SSTORE PUSH3 0x313 CALLER SWAP1 JUMP JUMPDEST PUSH1 0x1 PUSH1 0x1 PUSH1 0xA0 SHL SUB AND DUP3 PUSH1 0x1 PUSH1 0x1 PUSH1 0xA0 SHL SUB AND DUP5 PUSH32 0x2F8788117E7EFF1D82E926EC794901D17C78024A50270940304540A733656F0D PUSH1 0x40 MLOAD PUSH1 0x40 MLOAD DUP1 SWAP2 SUB SWAP1 LOG4 POP PUSH1 0x1 PUSH3 0x360 JUMP JUMPDEST POP PUSH1 0x0 JUMPDEST SWAP3 SWAP2 POP POP JUMP JUMPDEST PUSH4 0x4E487B71 PUSH1 0xE0 SHL PUSH1 0x0 MSTORE PUSH1 0x41 PUSH1 0x4 MSTORE PUSH1 0x24 PUSH1 0x0 REVERT JUMPDEST PUSH1 0x0 DUP3 PUSH1 0x1F DUP4 ADD SLT PUSH3 0x38E JUMPI PUSH1 0x0 DUP1 REVERT JUMPDEST DUP2 MLOAD PUSH1 0x1 PUSH1 0x1 PUSH1 0x40 SHL SUB DUP1 DUP3 GT ISZERO PUSH3 0x3AB JUMPI PUSH3 0x3AB PUSH3 0x366 JUMP JUMPDEST PUSH1 0x40 MLOAD PUSH1 0x1F DUP4 ADD PUSH1 0x1F NOT SWAP1 DUP2 AND PUSH1 0x3F ADD AND DUP2 ADD SWAP1 DUP3 DUP3 GT DUP2 DUP4 LT OR ISZERO PUSH3 0x3D6 JUMPI PUSH3 0x3D6 PUSH3 0x366 JUMP JUMPDEST DUP2 PUSH1 0x40 MSTORE DUP4 DUP2 MSTORE PUSH1 0x20 SWAP3 POP DUP7 DUP4 DUP6 DUP9 ADD ADD GT ISZERO PUSH3 0x3F3 JUMPI PUSH1 0x0 DUP1 REVERT JUMPDEST PUSH1 0x0 SWAP2 POP JUMPDEST DUP4 DUP3 LT ISZERO PUSH3 0x417 JUMPI DUP6 DUP3 ADD DUP4 ADD MLOAD DUP2 DUP4 ADD DUP5 ADD MSTORE SWAP1 DUP3 ADD SWAP1 PUSH3 0x3F8 JUMP JUMPDEST PUSH1 0x0 SWAP4 DUP2 ADD SWAP1 SWAP3 ADD SWAP3 SWAP1 SWAP3 MSTORE SWAP5 SWAP4 POP POP POP POP JUMP JUMPDEST PUSH1 0x0 DUP1 PUSH1 0x0 PUSH1 0x60 DUP5 DUP7 SUB SLT ISZERO PUSH3 0x441 JUMPI PUSH1 0x0 DUP1 REVERT JUMPDEST DUP4 MLOAD PUSH1 0x1 PUSH1 0x1 PUSH1 0x40 SHL SUB DUP1 DUP3 GT ISZERO PUSH3 0x459 JUMPI PUSH1 0x0 DUP1 REVERT JUMPDEST PUSH3 0x467 DUP8 DUP4 DUP9 ADD PUSH3 0x37C JUMP JUMPDEST SWAP5 POP PUSH1 0x20 DUP7 ADD MLOAD SWAP2 POP DUP1 DUP3 GT ISZERO PUSH3 0x47E JUMPI PUSH1 0x0 DUP1 REVERT JUMPDEST POP PUSH3 0x48D DUP7 DUP3 DUP8 ADD PUSH3 0x37C JUMP JUMPDEST PUSH1 0x40 DUP7 ADD MLOAD SWAP1 SWAP4 POP SWAP1 POP PUSH1 0x1 PUSH1 0x1 PUSH1 0xA0 SHL SUB DUP2 AND DUP2 EQ PUSH3 0x4AD JUMPI PUSH1 0x0 DUP1 REVERT JUMPDEST DUP1 SWAP2 POP POP SWAP3 POP SWAP3 POP SWAP3 JUMP JUMPDEST PUSH1 0x1 DUP2 DUP2 SHR SWAP1 DUP3 AND DUP1 PUSH3 0x4CD JUMPI PUSH1 0x7F DUP3 AND SWAP2 POP JUMPDEST PUSH1 0x20 DUP3 LT DUP2 SUB PUSH3 0x4EE JUMPI PUSH4 0x4E487B71 PUSH1 0xE0 SHL PUSH1 0x0 MSTORE PUSH1 0x22 PUSH1 0x4 MSTORE PUSH1 0x24 PUSH1 0x0 REVERT JUMPDEST POP SWAP2 SWAP1 POP JUMP JUMPDEST PUSH1 0x1F DUP3 GT ISZERO PUSH3 0x542 JUMPI PUSH1 0x0 DUP2 DUP2 MSTORE PUSH1 0x20 DUP2 KECCAK256 PUSH1 0x1F DUP6 ADD PUSH1 0x5 SHR DUP2 ADD PUSH1 0x20 DUP7 LT ISZERO PUSH3 0x51D JUMPI POP DUP1 JUMPDEST PUSH1 0x1F DUP6 ADD PUSH1 0x5 SHR DUP3 ADD SWAP2 POP JUMPDEST DUP2 DUP2 LT ISZERO PUSH3 0x53E JUMPI DUP3 DUP2 SSTORE PUSH1 0x1 ADD PUSH3 0x529 JUMP JUMPDEST POP POP POP JUMPDEST POP POP POP JUMP JUMPDEST DUP2 MLOAD PUSH1 0x1 PUSH1 0x1 PUSH1 0x40 SHL SUB DUP2 GT ISZERO PUSH3 0x563 JUMPI PUSH3 0x563 PUSH3 0x366 JUMP JUMPDEST PUSH3 0x57B DUP2 PUSH3 0x574 DUP5 SLOAD PUSH3 0x4B8 JUMP JUMPDEST DUP5 PUSH3 0x4F4 JUMP JUMPDEST PUSH1 0x20 DUP1 PUSH1 0x1F DUP4 GT PUSH1 0x1 DUP2 EQ PUSH3 0x5B3 JUMPI PUSH1 0x0 DUP5 ISZERO PUSH3 0x59A JUMPI POP DUP6 DUP4 ADD MLOAD JUMPDEST PUSH1 0x0 NOT PUSH1 0x3 DUP7 SWAP1 SHL SHR NOT AND PUSH1 0x1 DUP6 SWAP1 SHL OR DUP6 SSTORE PUSH3 0x53E JUMP JUMPDEST PUSH1 0x0 DUP6 DUP2 MSTORE PUSH1 0x20 DUP2 KECCAK256 PUSH1 0x1F NOT DUP7 AND SWAP2 JUMPDEST DUP3 DUP2 LT ISZERO PUSH3 0x5E4 JUMPI DUP9 DUP7 ADD MLOAD DUP3 SSTORE SWAP5 DUP5 ADD SWAP5 PUSH1 0x1 SWAP1 SWAP2 ADD SWAP1 DUP5 ADD PUSH3 0x5C3 JUMP JUMPDEST POP DUP6 DUP3 LT ISZERO PUSH3 0x603 JUMPI DUP8 DUP6 ADD MLOAD PUSH1 0x0 NOT PUSH1 0x3 DUP9 SWAP1 SHL PUSH1 0xF8 AND SHR NOT AND DUP2 SSTORE JUMPDEST POP POP POP POP POP PUSH1 0x1 SWAP1 DUP2 SHL ADD SWAP1 SSTORE POP JUMP JUMPDEST PUSH2 0x2945 DUP1 PUSH3 0x623 PUSH1 0x0 CODECOPY PUSH1 0x0 RETURN INVALID PUSH1 0x80 PUSH1 0x40 MSTORE CALLVALUE DUP1 ISZERO PUSH2 0x10 JUMPI PUSH1 0x0 DUP1 REVERT JUMPDEST POP PUSH1 0x4 CALLDATASIZE LT PUSH2 0x274 JUMPI PUSH1 0x0 CALLDATALOAD PUSH1 0xE0 SHR DUP1 PUSH4 0x8BB63786 GT PUSH2 0x151 JUMPI DUP1 PUSH4 0xB77BF600 GT PUSH2 0xC3 JUMPI DUP1 PUSH4 0xDD62ED3E GT PUSH2 0x87 JUMPI DUP1 PUSH4 0xDD62ED3E EQ PUSH2 0x5D5 JUMPI DUP1 PUSH4 0xE9F6AB25 EQ PUSH2 0x60E JUMPI DUP1 PUSH4 0xEF337B4C EQ PUSH2 0x636 JUMPI DUP1 PUSH4 0xF2CCF839 EQ PUSH2 0x65D JUMPI DUP1 PUSH4 0xF2FDE38B EQ PUSH2 0x670 JUMPI DUP1 PUSH4 0xF8626AF8 EQ PUSH2 0x683 JUMPI PUSH1 0x0 DUP1 REVERT JUMPDEST DUP1 PUSH4 0xB77BF600 EQ PUSH2 0x558 JUMPI DUP1 PUSH4 0xB8810501 EQ PUSH2 0x561 JUMPI DUP1 PUSH4 0xC864BE8A EQ PUSH2 0x574 JUMPI DUP1 PUSH4 0xCED3A403 EQ PUSH2 0x59B JUMPI DUP1 PUSH4 0xD547741F EQ PUSH2 0x5C2 JUMPI PUSH1 0x0 DUP1 REVERT JUMPDEST DUP1 PUSH4 0x9ACE38C2 GT PUSH2 0x115 JUMPI DUP1 PUSH4 0x9ACE38C2 EQ PUSH2 0x4F1 JUMPI DUP1 PUSH4 0x9E761BBB EQ PUSH2 0x504 JUMPI DUP1 PUSH4 0xA217FDDF EQ PUSH2 0x517 JUMPI DUP1 PUSH4 0xA9059CBB EQ PUSH2 0x51F JUMPI DUP1 PUSH4 0xB6812182 EQ PUSH2 0x532 JUMPI DUP1 PUSH4 0xB6E8D2E2 EQ PUSH2 0x545 JUMPI PUSH1 0x0 DUP1 REVERT JUMPDEST DUP1 PUSH4 0x8BB63786 EQ PUSH2 0x49D JUMPI DUP1 PUSH4 0x8DA5CB5B EQ PUSH2 0x4BD JUMPI DUP1 PUSH4 0x91D14854 EQ PUSH2 0x4CE JUMPI DUP1 PUSH4 0x95D89B41 EQ PUSH2 0x4E1 JUMPI DUP1 PUSH4 0x9A6E7FD1 EQ PUSH2 0x4E9 JUMPI PUSH1 0x0 DUP1 REVERT JUMPDEST DUP1 PUSH4 0x2ABFAB4D GT PUSH2 0x1EA JUMPI DUP1 PUSH4 0x36568ABE GT PUSH2 0x1AE JUMPI DUP1 PUSH4 0x36568ABE EQ PUSH2 0x41E JUMPI DUP1 PUSH4 0x45357099 EQ PUSH2 0x431 JUMPI DUP1 PUSH4 0x59633A1C EQ PUSH2 0x444 JUMPI DUP1 PUSH4 0x70A08231 EQ PUSH2 0x457 JUMPI DUP1 PUSH4 0x715018A6 EQ PUSH2 0x480 JUMPI DUP1 PUSH4 0x75B238FC EQ PUSH2 0x488 JUMPI PUSH1 0x0 DUP1 REVERT JUMPDEST DUP1 PUSH4 0x2ABFAB4D EQ PUSH2 0x3BB JUMPI DUP1 PUSH4 0x2F2FF15D EQ PUSH2 0x3C4 JUMPI DUP1 PUSH4 0x2FDEC199 EQ PUSH2 0x3D7 JUMPI DUP1 PUSH4 0x313CE567 EQ PUSH2 0x3EA JUMPI DUP1 PUSH4 0x33EA3DC8 EQ PUSH2 0x3F9 JUMPI PUSH1 0x0 DUP1 REVERT JUMPDEST DUP1 PUSH4 0x11E03EAA GT PUSH2 0x23C JUMPI DUP1 PUSH4 0x11E03EAA EQ PUSH2 0x322 JUMPI DUP1 PUSH4 0x140D8713 EQ PUSH2 0x335 JUMPI DUP1 PUSH4 0x18160DDD EQ PUSH2 0x348 JUMPI DUP1 PUSH4 0x23B872DD EQ PUSH2 0x35A JUMPI DUP1 PUSH4 0x248A9CA3 EQ PUSH2 0x36D JUMPI DUP1 PUSH4 0x27BE6F0E EQ PUSH2 0x390 JUMPI PUSH1 0x0 DUP1 REVERT JUMPDEST DUP1 PUSH4 0x1567739 EQ PUSH2 0x279 JUMPI DUP1 PUSH4 0x1865C93 EQ PUSH2 0x2C2 JUMPI DUP1 PUSH4 0x1FFC9A7 EQ PUSH2 0x2D7 JUMPI DUP1 PUSH4 0x6FDDE03 EQ PUSH2 0x2FA JUMPI DUP1 PUSH4 0x95EA7B3 EQ PUSH2 0x30F JUMPI JUMPDEST PUSH1 0x0 DUP1 REVERT JUMPDEST PUSH2 0x2A6 PUSH2 0x287 CALLDATASIZE PUSH1 0x4 PUSH2 0x2008 JUMP JUMPDEST PUSH1 0x7 PUSH1 0x20 MSTORE PUSH1 0x0 SWAP1 DUP2 MSTORE PUSH1 0x40 SWAP1 KECCAK256 DUP1 SLOAD PUSH1 0x1 SWAP1 SWAP2 ADD SLOAD PUSH1 0xFF SWAP1 SWAP2 AND SWAP1 DUP3 JUMP JUMPDEST PUSH1 0x40 DUP1 MLOAD SWAP3 ISZERO ISZERO DUP4 MSTORE PUSH1 0x20 DUP4 ADD SWAP2 SWAP1 SWAP2 MSTORE ADD JUMPDEST PUSH1 0x40 MLOAD DUP1 SWAP2 SUB SWAP1 RETURN JUMPDEST PUSH2 0x2D5 PUSH2 0x2D0 CALLDATASIZE PUSH1 0x4 PUSH2 0x20E1 JUMP JUMPDEST PUSH2 0x6A8 JUMP JUMPDEST STOP JUMPDEST PUSH2 0x2EA PUSH2 0x2E5 CALLDATASIZE PUSH1 0x4 PUSH2 0x2138 JUMP JUMPDEST PUSH2 0x829 JUMP JUMPDEST PUSH1 0x40 MLOAD SWAP1 ISZERO ISZERO DUP2 MSTORE PUSH1 0x20 ADD PUSH2 0x2B9 JUMP JUMPDEST PUSH2 0x302 PUSH2 0x860 JUMP JUMPDEST PUSH1 0x40 MLOAD PUSH2 0x2B9 SWAP2 SWAP1 PUSH2 0x21B2 JUMP JUMPDEST PUSH2 0x2EA PUSH2 0x31D CALLDATASIZE PUSH1 0x4 PUSH2 0x21C5 JUMP JUMPDEST PUSH2 0x8F2 JUMP JUMPDEST PUSH2 0x2D5 PUSH2 0x330 CALLDATASIZE PUSH1 0x4 PUSH2 0x21EF JUMP JUMPDEST PUSH2 0x90A JUMP JUMPDEST PUSH2 0x302 PUSH2 0x343 CALLDATASIZE PUSH1 0x4 PUSH2 0x21EF JUMP JUMPDEST PUSH2 0x9B3 JUMP JUMPDEST PUSH1 0x2 SLOAD JUMPDEST PUSH1 0x40 MLOAD SWAP1 DUP2 MSTORE PUSH1 0x20 ADD PUSH2 0x2B9 JUMP JUMPDEST PUSH2 0x2EA PUSH2 0x368 CALLDATASIZE PUSH1 0x4 PUSH2 0x2208 JUMP JUMPDEST PUSH2 0xA5F JUMP JUMPDEST PUSH2 0x34C PUSH2 0x37B CALLDATASIZE PUSH1 0x4 PUSH2 0x21EF JUMP JUMPDEST PUSH1 0x0 SWAP1 DUP2 MSTORE PUSH1 0x6 PUSH1 0x20 MSTORE PUSH1 0x40 SWAP1 KECCAK256 PUSH1 0x1 ADD SLOAD SWAP1 JUMP JUMPDEST PUSH2 0x3A3 PUSH2 0x39E CALLDATASIZE PUSH1 0x4 PUSH2 0x21C5 JUMP JUMPDEST PUSH2 0xA83 JUMP JUMPDEST PUSH1 0x40 MLOAD PUSH1 0x1 PUSH1 0x1 PUSH1 0xA0 SHL SUB SWAP1 SWAP2 AND DUP2 MSTORE PUSH1 0x20 ADD PUSH2 0x2B9 JUMP JUMPDEST PUSH2 0x34C PUSH1 0xB SLOAD DUP2 JUMP JUMPDEST PUSH2 0x2D5 PUSH2 0x3D2 CALLDATASIZE PUSH1 0x4 PUSH2 0x2244 JUMP JUMPDEST PUSH2 0xABB JUMP JUMPDEST PUSH2 0x2D5 PUSH2 0x3E5 CALLDATASIZE PUSH1 0x4 PUSH2 0x2270 JUMP JUMPDEST PUSH2 0xAE6 JUMP JUMPDEST PUSH1 0x40 MLOAD PUSH1 0x12 DUP2 MSTORE PUSH1 0x20 ADD PUSH2 0x2B9 JUMP JUMPDEST PUSH2 0x40C PUSH2 0x407 CALLDATASIZE PUSH1 0x4 PUSH2 0x21EF JUMP JUMPDEST PUSH2 0xCE5 JUMP JUMPDEST PUSH1 0x40 MLOAD PUSH2 0x2B9 SWAP7 SWAP6 SWAP5 SWAP4 SWAP3 SWAP2 SWAP1 PUSH2 0x229A JUMP JUMPDEST PUSH2 0x2D5 PUSH2 0x42C CALLDATASIZE PUSH1 0x4 PUSH2 0x2244 JUMP JUMPDEST PUSH2 0xE5C JUMP JUMPDEST PUSH2 0x2D5 PUSH2 0x43F CALLDATASIZE PUSH1 0x4 PUSH2 0x22F2 JUMP JUMPDEST PUSH2 0xE94 JUMP JUMPDEST PUSH2 0x2D5 PUSH2 0x452 CALLDATASIZE PUSH1 0x4 PUSH2 0x2008 JUMP JUMPDEST PUSH2 0xFC2 JUMP JUMPDEST PUSH2 0x34C PUSH2 0x465 CALLDATASIZE PUSH1 0x4 PUSH2 0x2008 JUMP JUMPDEST PUSH1 0x1 PUSH1 0x1 PUSH1 0xA0 SHL SUB AND PUSH1 0x0 SWAP1 DUP2 MSTORE PUSH1 0x20 DUP2 SWAP1 MSTORE PUSH1 0x40 SWAP1 KECCAK256 SLOAD SWAP1 JUMP JUMPDEST PUSH2 0x2D5 PUSH2 0x106F JUMP JUMPDEST PUSH2 0x34C PUSH1 0x0 DUP1 MLOAD PUSH1 0x20 PUSH2 0x28F0 DUP4 CODECOPY DUP2 MLOAD SWAP2 MSTORE DUP2 JUMP JUMPDEST PUSH2 0x4B0 PUSH2 0x4AB CALLDATASIZE PUSH1 0x4 PUSH2 0x2008 JUMP JUMPDEST PUSH2 0x1083 JUMP JUMPDEST PUSH1 0x40 MLOAD PUSH2 0x2B9 SWAP2 SWAP1 PUSH2 0x2370 JUMP JUMPDEST PUSH1 0x5 SLOAD PUSH1 0x1 PUSH1 0x1 PUSH1 0xA0 SHL SUB AND PUSH2 0x3A3 JUMP JUMPDEST PUSH2 0x2EA PUSH2 0x4DC CALLDATASIZE PUSH1 0x4 PUSH2 0x2244 JUMP JUMPDEST PUSH2 0x10F9 JUMP JUMPDEST PUSH2 0x302 PUSH2 0x1124 JUMP JUMPDEST PUSH1 0xD SLOAD PUSH2 0x34C JUMP JUMPDEST PUSH2 0x40C PUSH2 0x4FF CALLDATASIZE PUSH1 0x4 PUSH2 0x21EF JUMP JUMPDEST PUSH2 0x1133 JUMP JUMPDEST PUSH2 0x3A3 PUSH2 0x512 CALLDATASIZE PUSH1 0x4 PUSH2 0x21EF JUMP JUMPDEST PUSH2 0x1286 JUMP JUMPDEST PUSH2 0x34C PUSH1 0x0 DUP2 JUMP JUMPDEST PUSH2 0x2EA PUSH2 0x52D CALLDATASIZE PUSH1 0x4 PUSH2 0x21C5 JUMP JUMPDEST PUSH2 0x12B0 JUMP JUMPDEST PUSH2 0x2D5 PUSH2 0x540 CALLDATASIZE PUSH1 0x4 PUSH2 0x244C JUMP JUMPDEST PUSH2 0x12BE JUMP JUMPDEST PUSH2 0x3A3 PUSH2 0x553 CALLDATASIZE PUSH1 0x4 PUSH2 0x21EF JUMP JUMPDEST PUSH2 0x148C JUMP JUMPDEST PUSH2 0x34C PUSH1 0x9 SLOAD DUP2 JUMP JUMPDEST PUSH2 0x2EA PUSH2 0x56F CALLDATASIZE PUSH1 0x4 PUSH2 0x20E1 JUMP JUMPDEST PUSH2 0x1504 JUMP JUMPDEST PUSH2 0x34C PUSH32 0x7590F0264744CD50915976D360E18170BC29DB6F1A196D3B1061F7F194052170 DUP2 JUMP JUMPDEST PUSH2 0x34C PUSH32 0xC8A41221BCD7FCF2C225F5A9265E1D4D39949D89197159D59E5F4B87B62C419E DUP2 JUMP JUMPDEST PUSH2 0x2D5 PUSH2 0x5D0 CALLDATASIZE PUSH1 0x4 PUSH2 0x2244 JUMP JUMPDEST PUSH2 0x1707 JUMP JUMPDEST PUSH2 0x34C PUSH2 0x5E3 CALLDATASIZE PUSH1 0x4 PUSH2 0x2270 JUMP JUMPDEST PUSH1 0x1 PUSH1 0x1 PUSH1 0xA0 SHL SUB SWAP2 DUP3 AND PUSH1 0x0 SWAP1 DUP2 MSTORE PUSH1 0x1 PUSH1 0x20 SWAP1 DUP2 MSTORE PUSH1 0x40 DUP1 DUP4 KECCAK256 SWAP4 SWAP1 SWAP5 AND DUP3 MSTORE SWAP2 SWAP1 SWAP2 MSTORE KECCAK256 SLOAD SWAP1 JUMP JUMPDEST PUSH2 0x621 PUSH2 0x61C CALLDATASIZE PUSH1 0x4 PUSH2 0x2528 JUMP JUMPDEST PUSH2 0x172C JUMP JUMPDEST PUSH1 0x40 DUP1 MLOAD SWAP3 DUP4 MSTORE PUSH1 0x20 DUP4 ADD SWAP2 SWAP1 SWAP2 MSTORE ADD PUSH2 0x2B9 JUMP JUMPDEST PUSH2 0x34C PUSH32 0x1A7CA3683258D2E65F045EAACDFAD1B350BABE3A067C36CAC1F329EE9AC0138F DUP2 JUMP JUMPDEST PUSH2 0x2D5 PUSH2 0x66B CALLDATASIZE PUSH1 0x4 PUSH2 0x2576 JUMP JUMPDEST PUSH2 0x1796 JUMP JUMPDEST PUSH2 0x2D5 PUSH2 0x67E CALLDATASIZE PUSH1 0x4 PUSH2 0x2008 JUMP JUMPDEST PUSH2 0x18F3 JUMP JUMPDEST PUSH2 0x696 PUSH2 0x691 CALLDATASIZE PUSH1 0x4 PUSH2 0x21EF JUMP JUMPDEST PUSH2 0x1931 JUMP JUMPDEST PUSH1 0x40 MLOAD PUSH2 0x2B9 SWAP7 SWAP6 SWAP5 SWAP4 SWAP3 SWAP2 SWAP1 PUSH2 0x25D9 JUMP JUMPDEST PUSH2 0x6B0 PUSH2 0x1A05 JUMP JUMPDEST PUSH1 0x1 PUSH1 0x1 PUSH1 0xA0 SHL SUB DUP4 AND PUSH1 0x0 SWAP1 DUP2 MSTORE PUSH1 0x7 PUSH1 0x20 MSTORE PUSH1 0x40 SWAP1 KECCAK256 SLOAD PUSH1 0xFF AND PUSH2 0x71D JUMPI PUSH1 0x40 MLOAD PUSH3 0x461BCD PUSH1 0xE5 SHL DUP2 MSTORE PUSH1 0x20 PUSH1 0x4 DUP3 ADD MSTORE PUSH1 0x1B PUSH1 0x24 DUP3 ADD MSTORE PUSH32 0x42656E6566696369617279206E6F742077686974656C69737465640000000000 PUSH1 0x44 DUP3 ADD MSTORE PUSH1 0x64 ADD JUMPDEST PUSH1 0x40 MLOAD DUP1 SWAP2 SUB SWAP1 REVERT JUMPDEST PUSH1 0x0 DUP3 GT PUSH2 0x76D JUMPI PUSH1 0x40 MLOAD PUSH3 0x461BCD PUSH1 0xE5 SHL DUP2 MSTORE PUSH1 0x20 PUSH1 0x4 DUP3 ADD MSTORE PUSH1 0x1D PUSH1 0x24 DUP3 ADD MSTORE PUSH32 0x416D6F756E74206D7573742062652067726561746572207468616E2030000000 PUSH1 0x44 DUP3 ADD MSTORE PUSH1 0x64 ADD PUSH2 0x714 JUMP JUMPDEST PUSH2 0x777 DUP4 DUP4 PUSH2 0x1A32 JUMP JUMPDEST PUSH1 0x1 PUSH1 0x1 PUSH1 0xA0 SHL SUB DUP4 AND PUSH1 0x0 SWAP1 DUP2 MSTORE PUSH1 0x7 PUSH1 0x20 MSTORE PUSH1 0x40 DUP2 KECCAK256 PUSH1 0x1 ADD DUP1 SLOAD DUP5 SWAP3 SWAP1 PUSH2 0x7A2 SWAP1 DUP5 SWAP1 PUSH2 0x2636 JUMP JUMPDEST SWAP3 POP POP DUP2 SWAP1 SSTORE POP PUSH2 0x7E1 CALLER DUP5 DUP5 DUP5 PUSH1 0x40 MLOAD DUP1 PUSH1 0x40 ADD PUSH1 0x40 MSTORE DUP1 PUSH1 0x13 DUP2 MSTORE PUSH1 0x20 ADD PUSH19 0x2932B634B2B3103234B9BA3934B13ABA34B7B7 PUSH1 0x69 SHL DUP2 MSTORE POP PUSH2 0x1A6C JUMP JUMPDEST DUP3 PUSH1 0x1 PUSH1 0x1 PUSH1 0xA0 SHL SUB AND PUSH32 0x166DBA3D0155C9D457D63E1E4753B4562AF4286352D0A599AED506A87E0B28EA DUP4 DUP4 PUSH1 0x40 MLOAD PUSH2 0x81C SWAP3 SWAP2 SWAP1 PUSH2 0x2649 JUMP JUMPDEST PUSH1 0x40 MLOAD DUP1 SWAP2 SUB SWAP1 LOG2 POP POP POP JUMP JUMPDEST PUSH1 0x0 PUSH1 0x1 PUSH1 0x1 PUSH1 0xE0 SHL SUB NOT DUP3 AND PUSH4 0x7965DB0B PUSH1 0xE0 SHL EQ DUP1 PUSH2 0x85A JUMPI POP PUSH4 0x1FFC9A7 PUSH1 0xE0 SHL PUSH1 0x1 PUSH1 0x1 PUSH1 0xE0 SHL SUB NOT DUP4 AND EQ JUMPDEST SWAP3 SWAP2 POP POP JUMP JUMPDEST PUSH1 0x60 PUSH1 0x3 DUP1 SLOAD PUSH2 0x86F SWAP1 PUSH2 0x2662 JUMP JUMPDEST DUP1 PUSH1 0x1F ADD PUSH1 0x20 DUP1 SWAP2 DIV MUL PUSH1 0x20 ADD PUSH1 0x40 MLOAD SWAP1 DUP2 ADD PUSH1 0x40 MSTORE DUP1 SWAP3 SWAP2 SWAP1 DUP2 DUP2 MSTORE PUSH1 0x20 ADD DUP3 DUP1 SLOAD PUSH2 0x89B SWAP1 PUSH2 0x2662 JUMP JUMPDEST DUP1 ISZERO PUSH2 0x8E8 JUMPI DUP1 PUSH1 0x1F LT PUSH2 0x8BD JUMPI PUSH2 0x100 DUP1 DUP4 SLOAD DIV MUL DUP4 MSTORE SWAP2 PUSH1 0x20 ADD SWAP2 PUSH2 0x8E8 JUMP JUMPDEST DUP3 ADD SWAP2 SWAP1 PUSH1 0x0 MSTORE PUSH1 0x20 PUSH1 0x0 KECCAK256 SWAP1 JUMPDEST DUP2 SLOAD DUP2 MSTORE SWAP1 PUSH1 0x1 ADD SWAP1 PUSH1 0x20 ADD DUP1 DUP4 GT PUSH2 0x8CB JUMPI DUP3 SWAP1 SUB PUSH1 0x1F AND DUP3 ADD SWAP2 JUMPDEST POP POP POP POP POP SWAP1 POP SWAP1 JUMP JUMPDEST PUSH1 0x0 CALLER PUSH2 0x900 DUP2 DUP6 DUP6 PUSH2 0x1B72 JUMP JUMPDEST POP PUSH1 0x1 SWAP4 SWAP3 POP POP POP JUMP JUMPDEST PUSH1 0x0 DUP1 MLOAD PUSH1 0x20 PUSH2 0x28F0 DUP4 CODECOPY DUP2 MLOAD SWAP2 MSTORE PUSH2 0x922 DUP2 PUSH2 0x1B7F JUMP JUMPDEST PUSH1 0xB SLOAD DUP3 LT PUSH2 0x969 JUMPI PUSH1 0x40 MLOAD PUSH3 0x461BCD PUSH1 0xE5 SHL DUP2 MSTORE PUSH1 0x20 PUSH1 0x4 DUP3 ADD MSTORE PUSH1 0x13 PUSH1 0x24 DUP3 ADD MSTORE PUSH19 0x125B9D985B1A5908191BDB985D1A5BDB881A59 PUSH1 0x6A SHL PUSH1 0x44 DUP3 ADD MSTORE PUSH1 0x64 ADD PUSH2 0x714 JUMP JUMPDEST PUSH1 0x0 DUP3 DUP2 MSTORE PUSH1 0xA PUSH1 0x20 MSTORE PUSH1 0x40 DUP1 DUP3 KECCAK256 PUSH1 0x4 ADD DUP1 SLOAD PUSH1 0xFF NOT AND PUSH1 0x1 OR SWAP1 SSTORE MLOAD CALLER SWAP2 DUP5 SWAP2 PUSH32 0xD0AE5B857930AFF0673411216C2A768BD07482BC9699547701FDAC589E8FA435 SWAP2 SWAP1 LOG3 POP POP JUMP JUMPDEST PUSH1 0xE DUP2 DUP2 SLOAD DUP2 LT PUSH2 0x9C3 JUMPI PUSH1 0x0 DUP1 REVERT JUMPDEST SWAP1 PUSH1 0x0 MSTORE PUSH1 0x20 PUSH1 0x0 KECCAK256 ADD PUSH1 0x0 SWAP2 POP SWAP1 POP DUP1 SLOAD PUSH2 0x9DE SWAP1 PUSH2 0x2662 JUMP JUMPDEST DUP1 PUSH1 0x1F ADD PUSH1 0x20 DUP1 SWAP2 DIV MUL PUSH1 0x20 ADD PUSH1 0x40 MLOAD SWAP1 DUP2 ADD PUSH1 0x40 MSTORE DUP1 SWAP3 SWAP2 SWAP1 DUP2 DUP2 MSTORE PUSH1 0x20 ADD DUP3 DUP1 SLOAD PUSH2 0xA0A SWAP1 PUSH2 0x2662 JUMP JUMPDEST DUP1 ISZERO PUSH2 0xA57 JUMPI DUP1 PUSH1 0x1F LT PUSH2 0xA2C JUMPI PUSH2 0x100 DUP1 DUP4 SLOAD DIV MUL DUP4 MSTORE SWAP2 PUSH1 0x20 ADD SWAP2 PUSH2 0xA57 JUMP JUMPDEST DUP3 ADD SWAP2 SWAP1 PUSH1 0x0 MSTORE PUSH1 0x20 PUSH1 0x0 KECCAK256 SWAP1 JUMPDEST DUP2 SLOAD DUP2 MSTORE SWAP1 PUSH1 0x1 ADD SWAP1 PUSH1 0x20 ADD DUP1 DUP4 GT PUSH2 0xA3A JUMPI DUP3 SWAP1 SUB PUSH1 0x1F AND DUP3 ADD SWAP2 JUMPDEST POP POP POP POP POP DUP2 JUMP JUMPDEST PUSH1 0x0 CALLER PUSH2 0xA6D DUP6 DUP3 DUP6 PUSH2 0x1B89 JUMP JUMPDEST PUSH2 0xA78 DUP6 DUP6 DUP6 PUSH2 0x1C02 JUMP JUMPDEST POP PUSH1 0x1 SWAP5 SWAP4 POP POP POP POP JUMP JUMPDEST PUSH1 0xC PUSH1 0x20 MSTORE DUP2 PUSH1 0x0 MSTORE PUSH1 0x40 PUSH1 0x0 KECCAK256 DUP2 DUP2 SLOAD DUP2 LT PUSH2 0xA9F JUMPI PUSH1 0x0 DUP1 REVERT JUMPDEST PUSH1 0x0 SWAP2 DUP3 MSTORE PUSH1 0x20 SWAP1 SWAP2 KECCAK256 ADD SLOAD PUSH1 0x1 PUSH1 0x1 PUSH1 0xA0 SHL SUB AND SWAP2 POP DUP3 SWAP1 POP JUMP JUMPDEST PUSH1 0x0 DUP3 DUP2 MSTORE PUSH1 0x6 PUSH1 0x20 MSTORE PUSH1 0x40 SWAP1 KECCAK256 PUSH1 0x1 ADD SLOAD PUSH2 0xAD6 DUP2 PUSH2 0x1B7F JUMP JUMPDEST PUSH2 0xAE0 DUP4 DUP4 PUSH2 0x1C61 JUMP JUMPDEST POP POP POP POP JUMP JUMPDEST PUSH2 0xAFE PUSH1 0x0 DUP1 MLOAD PUSH1 0x20 PUSH2 0x28F0 DUP4 CODECOPY DUP2 MLOAD SWAP2 MSTORE CALLER PUSH2 0x10F9 JUMP JUMPDEST DUP1 PUSH2 0xB2B JUMPI POP CALLER PUSH1 0x1 PUSH1 0x1 PUSH1 0xA0 SHL SUB DUP4 AND EQ DUP1 ISZERO PUSH2 0xB2B JUMPI POP CALLER PUSH1 0x0 SWAP1 DUP2 MSTORE PUSH1 0x7 PUSH1 0x20 MSTORE PUSH1 0x40 SWAP1 KECCAK256 SLOAD PUSH1 0xFF AND JUMPDEST PUSH2 0xB68 JUMPI PUSH1 0x40 MLOAD PUSH3 0x461BCD PUSH1 0xE5 SHL DUP2 MSTORE PUSH1 0x20 PUSH1 0x4 DUP3 ADD MSTORE PUSH1 0xE PUSH1 0x24 DUP3 ADD MSTORE PUSH14 0x139BDD08185D5D1A1BDC9A5E9959 PUSH1 0x92 SHL PUSH1 0x44 DUP3 ADD MSTORE PUSH1 0x64 ADD PUSH2 0x714 JUMP JUMPDEST PUSH1 0x1 PUSH1 0x1 PUSH1 0xA0 SHL SUB DUP3 AND ISZERO DUP1 ISZERO SWAP1 PUSH2 0xB88 JUMPI POP PUSH1 0x1 PUSH1 0x1 PUSH1 0xA0 SHL SUB DUP2 AND ISZERO ISZERO JUMPDEST PUSH2 0xBC6 JUMPI PUSH1 0x40 MLOAD PUSH3 0x461BCD PUSH1 0xE5 SHL DUP2 MSTORE PUSH1 0x20 PUSH1 0x4 DUP3 ADD MSTORE PUSH1 0xF PUSH1 0x24 DUP3 ADD MSTORE PUSH15 0x496E76616C69642061646472657373 PUSH1 0x88 SHL PUSH1 0x44 DUP3 ADD MSTORE PUSH1 0x64 ADD PUSH2 0x714 JUMP JUMPDEST PUSH1 0x1 PUSH1 0x1 PUSH1 0xA0 SHL SUB DUP3 AND PUSH1 0x0 SWAP1 DUP2 MSTORE PUSH1 0xC PUSH1 0x20 MSTORE PUSH1 0x40 DUP2 KECCAK256 SWAP1 JUMPDEST DUP2 SLOAD DUP2 LT ISZERO PUSH2 0xC79 JUMPI DUP3 PUSH1 0x1 PUSH1 0x1 PUSH1 0xA0 SHL SUB AND DUP3 DUP3 DUP2 SLOAD DUP2 LT PUSH2 0xC05 JUMPI PUSH2 0xC05 PUSH2 0x269C JUMP JUMPDEST PUSH1 0x0 SWAP2 DUP3 MSTORE PUSH1 0x20 SWAP1 SWAP2 KECCAK256 ADD SLOAD PUSH1 0x1 PUSH1 0x1 PUSH1 0xA0 SHL SUB AND SUB PUSH2 0xC67 JUMPI PUSH1 0x40 MLOAD PUSH3 0x461BCD PUSH1 0xE5 SHL DUP2 MSTORE PUSH1 0x20 PUSH1 0x4 DUP3 ADD MSTORE PUSH1 0x1F PUSH1 0x24 DUP3 ADD MSTORE PUSH32 0x52656C69656620706172746E657220616C72656164792061737369676E656400 PUSH1 0x44 DUP3 ADD MSTORE PUSH1 0x64 ADD PUSH2 0x714 JUMP JUMPDEST DUP1 PUSH2 0xC71 DUP2 PUSH2 0x26B2 JUMP JUMPDEST SWAP2 POP POP PUSH2 0xBE0 JUMP JUMPDEST POP PUSH1 0x1 PUSH1 0x1 PUSH1 0xA0 SHL SUB DUP4 DUP2 AND PUSH1 0x0 DUP2 DUP2 MSTORE PUSH1 0xC PUSH1 0x20 SWAP1 DUP2 MSTORE PUSH1 0x40 DUP1 DUP4 KECCAK256 DUP1 SLOAD PUSH1 0x1 DUP2 ADD DUP3 SSTORE SWAP1 DUP5 MSTORE SWAP2 DUP4 KECCAK256 SWAP1 SWAP2 ADD DUP1 SLOAD PUSH1 0x1 PUSH1 0x1 PUSH1 0xA0 SHL SUB NOT AND SWAP5 DUP8 AND SWAP5 DUP6 OR SWAP1 SSTORE MLOAD PUSH32 0x7BA3715B8126554030AEDA94892A4AA884728DCE4C8E88C0A9489FCA76B30CA9 SWAP2 SWAP1 LOG3 POP POP POP JUMP JUMPDEST PUSH1 0x0 DUP2 DUP2 MSTORE PUSH1 0x8 PUSH1 0x20 MSTORE PUSH1 0x40 DUP2 KECCAK256 DUP1 SLOAD PUSH1 0x1 DUP3 ADD SLOAD PUSH1 0x2 DUP4 ADD SLOAD PUSH1 0x4 DUP5 ADD SLOAD PUSH1 0x3 DUP6 ADD DUP1 SLOAD DUP8 SWAP7 DUP8 SWAP7 PUSH1 0x60 SWAP7 DUP9 SWAP7 DUP9 SWAP7 SWAP4 SWAP6 PUSH1 0x1 PUSH1 0x1 PUSH1 0xA0 SHL SUB SWAP4 DUP5 AND SWAP6 SWAP4 SWAP1 SWAP3 AND SWAP4 SWAP1 SWAP3 PUSH1 0x5 DUP8 ADD SWAP1 DUP4 SWAP1 PUSH2 0xD3A SWAP1 PUSH2 0x2662 JUMP JUMPDEST DUP1 PUSH1 0x1F ADD PUSH1 0x20 DUP1 SWAP2 DIV MUL PUSH1 0x20 ADD PUSH1 0x40 MLOAD SWAP1 DUP2 ADD PUSH1 0x40 MSTORE DUP1 SWAP3 SWAP2 SWAP1 DUP2 DUP2 MSTORE PUSH1 0x20 ADD DUP3 DUP1 SLOAD PUSH2 0xD66 SWAP1 PUSH2 0x2662 JUMP JUMPDEST DUP1 ISZERO PUSH2 0xDB3 JUMPI DUP1 PUSH1 0x1F LT PUSH2 0xD88 JUMPI PUSH2 0x100 DUP1 DUP4 SLOAD DIV MUL DUP4 MSTORE SWAP2 PUSH1 0x20 ADD SWAP2 PUSH2 0xDB3 JUMP JUMPDEST DUP3 ADD SWAP2 SWAP1 PUSH1 0x0 MSTORE PUSH1 0x20 PUSH1 0x0 KECCAK256 SWAP1 JUMPDEST DUP2 SLOAD DUP2 MSTORE SWAP1 PUSH1 0x1 ADD SWAP1 PUSH1 0x20 ADD DUP1 DUP4 GT PUSH2 0xD96 JUMPI DUP3 SWAP1 SUB PUSH1 0x1F AND DUP3 ADD SWAP2 JUMPDEST POP POP POP POP POP SWAP3 POP DUP1 DUP1 SLOAD PUSH2 0xDC6 SWAP1 PUSH2 0x2662 JUMP JUMPDEST DUP1 PUSH1 0x1F ADD PUSH1 0x20 DUP1 SWAP2 DIV MUL PUSH1 0x20 ADD PUSH1 0x40 MLOAD SWAP1 DUP2 ADD PUSH1 0x40 MSTORE DUP1 SWAP3 SWAP2 SWAP1 DUP2 DUP2 MSTORE PUSH1 0x20 ADD DUP3 DUP1 SLOAD PUSH2 0xDF2 SWAP1 PUSH2 0x2662 JUMP JUMPDEST DUP1 ISZERO PUSH2 0xE3F JUMPI DUP1 PUSH1 0x1F LT PUSH2 0xE14 JUMPI PUSH2 0x100 DUP1 DUP4 SLOAD DIV MUL DUP4 MSTORE SWAP2 PUSH1 0x20 ADD SWAP2 PUSH2 0xE3F JUMP JUMPDEST DUP3 ADD SWAP2 SWAP1 PUSH1 0x0 MSTORE PUSH1 0x20 PUSH1 0x0 KECCAK256 SWAP1 JUMPDEST DUP2 SLOAD DUP2 MSTORE SWAP1 PUSH1 0x1 ADD SWAP1 PUSH1 0x20 ADD DUP1 DUP4 GT PUSH2 0xE22 JUMPI DUP3 SWAP1 SUB PUSH1 0x1F AND DUP3 ADD SWAP2 JUMPDEST POP POP POP POP POP SWAP1 POP SWAP7 POP SWAP7 POP SWAP7 POP SWAP7 POP SWAP7 POP SWAP7 POP POP SWAP2 SWAP4 SWAP6 POP SWAP2 SWAP4 SWAP6 JUMP JUMPDEST PUSH1 0x1 PUSH1 0x1 PUSH1 0xA0 SHL SUB DUP2 AND CALLER EQ PUSH2 0xE85 JUMPI PUSH1 0x40 MLOAD PUSH4 0x334BD919 PUSH1 0xE1 SHL DUP2 MSTORE PUSH1 0x4 ADD PUSH1 0x40 MLOAD DUP1 SWAP2 SUB SWAP1 REVERT JUMPDEST PUSH2 0xE8F DUP3 DUP3 PUSH2 0x1CF5 JUMP JUMPDEST POP POP POP JUMP JUMPDEST PUSH1 0x0 DUP1 MLOAD PUSH1 0x20 PUSH2 0x28F0 DUP4 CODECOPY DUP2 MLOAD SWAP2 MSTORE PUSH2 0xEAC DUP2 PUSH2 0x1B7F JUMP JUMPDEST PUSH1 0x40 DUP1 MLOAD PUSH1 0xC0 DUP2 ADD DUP3 MSTORE PUSH1 0x1 PUSH1 0x1 PUSH1 0xA0 SHL SUB DUP8 DUP2 AND DUP3 MSTORE PUSH1 0x20 DUP1 DUP4 ADD DUP9 DUP2 MSTORE DUP4 DUP6 ADD DUP9 DUP2 MSTORE TIMESTAMP PUSH1 0x60 DUP7 ADD MSTORE PUSH1 0x0 PUSH1 0x80 DUP7 ADD DUP2 SWAP1 MSTORE PUSH1 0xA0 DUP7 ADD DUP10 SWAP1 MSTORE PUSH1 0xB SLOAD DUP2 MSTORE PUSH1 0xA SWAP1 SWAP4 MSTORE SWAP5 SWAP1 SWAP2 KECCAK256 DUP4 MLOAD DUP2 SLOAD PUSH1 0x1 PUSH1 0x1 PUSH1 0xA0 SHL SUB NOT AND SWAP4 AND SWAP3 SWAP1 SWAP3 OR DUP3 SSTORE MLOAD PUSH1 0x1 DUP3 ADD SSTORE SWAP2 MLOAD SWAP1 SWAP2 SWAP1 PUSH1 0x2 DUP3 ADD SWAP1 PUSH2 0xF25 SWAP1 DUP3 PUSH2 0x2719 JUMP JUMPDEST POP PUSH1 0x60 DUP3 ADD MLOAD PUSH1 0x3 DUP3 ADD SSTORE PUSH1 0x80 DUP3 ADD MLOAD PUSH1 0x4 DUP3 ADD DUP1 SLOAD PUSH1 0xFF NOT AND SWAP2 ISZERO ISZERO SWAP2 SWAP1 SWAP2 OR SWAP1 SSTORE PUSH1 0xA0 DUP3 ADD MLOAD PUSH1 0x5 DUP3 ADD SWAP1 PUSH2 0xF5C SWAP1 DUP3 PUSH2 0x2719 JUMP JUMPDEST POP SWAP1 POP POP DUP5 PUSH1 0x1 PUSH1 0x1 PUSH1 0xA0 SHL SUB AND PUSH1 0xB SLOAD PUSH32 0xFCB42ED01B9BA3F02D9EC63ABC24225A939113506F163162FD75EA487BB28DC6 DUP7 DUP7 PUSH1 0x40 MLOAD PUSH2 0xF9E SWAP3 SWAP2 SWAP1 PUSH2 0x2649 JUMP JUMPDEST PUSH1 0x40 MLOAD DUP1 SWAP2 SUB SWAP1 LOG3 PUSH1 0xB DUP1 SLOAD SWAP1 PUSH1 0x0 PUSH2 0xFB6 DUP4 PUSH2 0x26B2 JUMP JUMPDEST SWAP2 SWAP1 POP SSTORE POP POP POP POP POP POP JUMP JUMPDEST PUSH2 0xFCA PUSH2 0x1A05 JUMP JUMPDEST PUSH1 0x1 PUSH1 0x1 PUSH1 0xA0 SHL SUB DUP2 AND PUSH1 0x0 SWAP1 DUP2 MSTORE PUSH1 0x7 PUSH1 0x20 MSTORE PUSH1 0x40 SWAP1 KECCAK256 SLOAD PUSH1 0xFF AND PUSH2 0x1026 JUMPI PUSH1 0x40 MLOAD PUSH3 0x461BCD PUSH1 0xE5 SHL DUP2 MSTORE PUSH1 0x20 PUSH1 0x4 DUP3 ADD MSTORE PUSH1 0x11 PUSH1 0x24 DUP3 ADD MSTORE PUSH17 0x4E6F7420612062656E6566696369617279 PUSH1 0x78 SHL PUSH1 0x44 DUP3 ADD MSTORE PUSH1 0x64 ADD PUSH2 0x714 JUMP JUMPDEST PUSH1 0x1 PUSH1 0x1 PUSH1 0xA0 SHL SUB DUP2 AND PUSH1 0x0 DUP2 DUP2 MSTORE PUSH1 0x7 PUSH1 0x20 MSTORE PUSH1 0x40 DUP1 DUP3 KECCAK256 DUP1 SLOAD PUSH1 0xFF NOT AND SWAP1 SSTORE MLOAD PUSH32 0x72977DAD29432F655F11C2F0E72EF5124BB9ADE7A512FB7A43A9F504DF223428 SWAP2 SWAP1 LOG2 POP JUMP JUMPDEST PUSH2 0x1077 PUSH2 0x1A05 JUMP JUMPDEST PUSH2 0x1081 PUSH1 0x0 PUSH2 0x1D62 JUMP JUMPDEST JUMP JUMPDEST PUSH1 0x1 PUSH1 0x1 PUSH1 0xA0 SHL SUB DUP2 AND PUSH1 0x0 SWAP1 DUP2 MSTORE PUSH1 0xC PUSH1 0x20 SWAP1 DUP2 MSTORE PUSH1 0x40 SWAP2 DUP3 SWAP1 KECCAK256 DUP1 SLOAD DUP4 MLOAD DUP2 DUP5 MUL DUP2 ADD DUP5 ADD SWAP1 SWAP5 MSTORE DUP1 DUP5 MSTORE PUSH1 0x60 SWAP4 SWAP3 DUP4 ADD DUP3 DUP3 DUP1 ISZERO PUSH2 0x10ED JUMPI PUSH1 0x20 MUL DUP3 ADD SWAP2 SWAP1 PUSH1 0x0 MSTORE PUSH1 0x20 PUSH1 0x0 KECCAK256 SWAP1 JUMPDEST DUP2 SLOAD PUSH1 0x1 PUSH1 0x1 PUSH1 0xA0 SHL SUB AND DUP2 MSTORE PUSH1 0x1 SWAP1 SWAP2 ADD SWAP1 PUSH1 0x20 ADD DUP1 DUP4 GT PUSH2 0x10CF JUMPI JUMPDEST POP POP POP POP POP SWAP1 POP SWAP2 SWAP1 POP JUMP JUMPDEST PUSH1 0x0 SWAP2 DUP3 MSTORE PUSH1 0x6 PUSH1 0x20 SWAP1 DUP2 MSTORE PUSH1 0x40 DUP1 DUP5 KECCAK256 PUSH1 0x1 PUSH1 0x1 PUSH1 0xA0 SHL SUB SWAP4 SWAP1 SWAP4 AND DUP5 MSTORE SWAP2 SWAP1 MSTORE SWAP1 KECCAK256 SLOAD PUSH1 0xFF AND SWAP1 JUMP JUMPDEST PUSH1 0x60 PUSH1 0x4 DUP1 SLOAD PUSH2 0x86F SWAP1 PUSH2 0x2662 JUMP JUMPDEST PUSH1 0x8 PUSH1 0x20 MSTORE PUSH1 0x0 SWAP1 DUP2 MSTORE PUSH1 0x40 SWAP1 KECCAK256 DUP1 SLOAD PUSH1 0x1 DUP3 ADD SLOAD PUSH1 0x2 DUP4 ADD SLOAD PUSH1 0x3 DUP5 ADD DUP1 SLOAD PUSH1 0x1 PUSH1 0x1 PUSH1 0xA0 SHL SUB SWAP5 DUP6 AND SWAP6 SWAP5 SWAP1 SWAP4 AND SWAP4 SWAP2 SWAP3 PUSH2 0x116F SWAP1 PUSH2 0x2662 JUMP JUMPDEST DUP1 PUSH1 0x1F ADD PUSH1 0x20 DUP1 SWAP2 DIV MUL PUSH1 0x20 ADD PUSH1 0x40 MLOAD SWAP1 DUP2 ADD PUSH1 0x40 MSTORE DUP1 SWAP3 SWAP2 SWAP1 DUP2 DUP2 MSTORE PUSH1 0x20 ADD DUP3 DUP1 SLOAD PUSH2 0x119B SWAP1 PUSH2 0x2662 JUMP JUMPDEST DUP1 ISZERO PUSH2 0x11E8 JUMPI DUP1 PUSH1 0x1F LT PUSH2 0x11BD JUMPI PUSH2 0x100 DUP1 DUP4 SLOAD DIV MUL DUP4 MSTORE SWAP2 PUSH1 0x20 ADD SWAP2 PUSH2 0x11E8 JUMP JUMPDEST DUP3 ADD SWAP2 SWAP1 PUSH1 0x0 MSTORE PUSH1 0x20 PUSH1 0x0 KECCAK256 SWAP1 JUMPDEST DUP2 SLOAD DUP2 MSTORE SWAP1 PUSH1 0x1 ADD SWAP1 PUSH1 0x20 ADD DUP1 DUP4 GT PUSH2 0x11CB JUMPI DUP3 SWAP1 SUB PUSH1 0x1F AND DUP3 ADD SWAP2 JUMPDEST POP POP POP POP POP SWAP1 DUP1 PUSH1 0x4 ADD SLOAD SWAP1 DUP1 PUSH1 0x5 ADD DUP1 SLOAD PUSH2 0x1203 SWAP1 PUSH2 0x2662 JUMP JUMPDEST DUP1 PUSH1 0x1F ADD PUSH1 0x20 DUP1 SWAP2 DIV MUL PUSH1 0x20 ADD PUSH1 0x40 MLOAD SWAP1 DUP2 ADD PUSH1 0x40 MSTORE DUP1 SWAP3 SWAP2 SWAP1 DUP2 DUP2 MSTORE PUSH1 0x20 ADD DUP3 DUP1 SLOAD PUSH2 0x122F SWAP1 PUSH2 0x2662 JUMP JUMPDEST DUP1 ISZERO PUSH2 0x127C JUMPI DUP1 PUSH1 0x1F LT PUSH2 0x1251 JUMPI PUSH2 0x100 DUP1 DUP4 SLOAD DIV MUL DUP4 MSTORE SWAP2 PUSH1 0x20 ADD SWAP2 PUSH2 0x127C JUMP JUMPDEST DUP3 ADD SWAP2 SWAP1 PUSH1 0x0 MSTORE PUSH1 0x20 PUSH1 0x0 KECCAK256 SWAP1 JUMPDEST DUP2 SLOAD DUP2 MSTORE SWAP1 PUSH1 0x1 ADD SWAP1 PUSH1 0x20 ADD DUP1 DUP4 GT PUSH2 0x125F JUMPI DUP3 SWAP1 SUB PUSH1 0x1F AND DUP3 ADD SWAP2 JUMPDEST POP POP POP POP POP SWAP1 POP DUP7 JUMP JUMPDEST PUSH1 0xD DUP2 DUP2 SLOAD DUP2 LT PUSH2 0x1296 JUMPI PUSH1 0x0 DUP1 REVERT JUMPDEST PUSH1 0x0 SWAP2 DUP3 MSTORE PUSH1 0x20 SWAP1 SWAP2 KECCAK256 ADD SLOAD PUSH1 0x1 PUSH1 0x1 PUSH1 0xA0 SHL SUB AND SWAP1 POP DUP2 JUMP JUMPDEST PUSH1 0x0 CALLER PUSH2 0x900 DUP2 DUP6 DUP6 PUSH2 0x1C02 JUMP JUMPDEST PUSH2 0x12C6 PUSH2 0x1A05 JUMP JUMPDEST PUSH1 0x1 PUSH1 0x1 PUSH1 0xA0 SHL SUB DUP4 AND PUSH2 0x130E JUMPI PUSH1 0x40 MLOAD PUSH3 0x461BCD PUSH1 0xE5 SHL DUP2 MSTORE PUSH1 0x20 PUSH1 0x4 DUP3 ADD MSTORE PUSH1 0xF PUSH1 0x24 DUP3 ADD MSTORE PUSH15 0x496E76616C69642061646472657373 PUSH1 0x88 SHL PUSH1 0x44 DUP3 ADD MSTORE PUSH1 0x64 ADD PUSH2 0x714 JUMP JUMPDEST DUP1 MLOAD DUP3 MLOAD EQ PUSH2 0x1358 JUMPI PUSH1 0x40 MLOAD PUSH3 0x461BCD PUSH1 0xE5 SHL DUP2 MSTORE PUSH1 0x20 PUSH1 0x4 DUP3 ADD MSTORE PUSH1 0x16 PUSH1 0x24 DUP3 ADD MSTORE PUSH22 0x82E4E4C2F2E640D8CADCCEE8D040DAD2E6DAC2E8C6D PUSH1 0x53 SHL PUSH1 0x44 DUP3 ADD MSTORE PUSH1 0x64 ADD PUSH2 0x714 JUMP JUMPDEST PUSH1 0x1 PUSH1 0x1 PUSH1 0xA0 SHL SUB DUP4 AND PUSH1 0x0 SWAP1 DUP2 MSTORE PUSH1 0x7 PUSH1 0x20 MSTORE PUSH1 0x40 SWAP1 KECCAK256 DUP1 SLOAD PUSH1 0xFF AND PUSH2 0x13CF JUMPI DUP1 SLOAD PUSH1 0x1 PUSH1 0xFF NOT SWAP1 SWAP2 AND DUP2 OR DUP3 SSTORE PUSH1 0xD DUP1 SLOAD SWAP2 DUP3 ADD DUP2 SSTORE PUSH1 0x0 MSTORE PUSH32 0xD7B6990105719101DABEB77144F2A3385C8033ACD3AF97E9423A695E81AD1EB5 ADD DUP1 SLOAD PUSH1 0x1 PUSH1 0x1 PUSH1 0xA0 SHL SUB NOT AND PUSH1 0x1 PUSH1 0x1 PUSH1 0xA0 SHL SUB DUP7 AND OR SWAP1 SSTORE JUMPDEST PUSH1 0x0 JUMPDEST DUP4 MLOAD DUP2 LT ISZERO PUSH2 0x1442 JUMPI DUP3 DUP2 DUP2 MLOAD DUP2 LT PUSH2 0x13ED JUMPI PUSH2 0x13ED PUSH2 0x269C JUMP JUMPDEST PUSH1 0x20 MUL PUSH1 0x20 ADD ADD MLOAD DUP3 PUSH1 0x2 ADD DUP6 DUP4 DUP2 MLOAD DUP2 LT PUSH2 0x140B JUMPI PUSH2 0x140B PUSH2 0x269C JUMP JUMPDEST PUSH1 0x20 MUL PUSH1 0x20 ADD ADD MLOAD PUSH1 0x40 MLOAD PUSH2 0x1420 SWAP2 SWAP1 PUSH2 0x27D9 JUMP JUMPDEST SWAP1 DUP2 MSTORE PUSH1 0x40 MLOAD SWAP1 DUP2 SWAP1 SUB PUSH1 0x20 ADD SWAP1 KECCAK256 SSTORE DUP1 PUSH2 0x143A DUP2 PUSH2 0x26B2 JUMP JUMPDEST SWAP2 POP POP PUSH2 0x13D2 JUMP JUMPDEST POP DUP4 PUSH1 0x1 PUSH1 0x1 PUSH1 0xA0 SHL SUB AND PUSH32 0x1F1D862A00ECAA68B11AC05239F5AA7B1528C2EE427AEE14ACA0083C6909D33 DUP5 DUP5 PUSH1 0x40 MLOAD PUSH2 0x147E SWAP3 SWAP2 SWAP1 PUSH2 0x27F5 JUMP JUMPDEST PUSH1 0x40 MLOAD DUP1 SWAP2 SUB SWAP1 LOG2 POP POP POP POP JUMP JUMPDEST PUSH1 0xD SLOAD PUSH1 0x0 SWAP1 DUP3 LT PUSH2 0x14D6 JUMPI PUSH1 0x40 MLOAD PUSH3 0x461BCD PUSH1 0xE5 SHL DUP2 MSTORE PUSH1 0x20 PUSH1 0x4 DUP3 ADD MSTORE PUSH1 0x13 PUSH1 0x24 DUP3 ADD MSTORE PUSH19 0x496E646578206F7574206F6620626F756E6473 PUSH1 0x68 SHL PUSH1 0x44 DUP3 ADD MSTORE PUSH1 0x64 ADD PUSH2 0x714 JUMP JUMPDEST PUSH1 0xD DUP3 DUP2 SLOAD DUP2 LT PUSH2 0x14E9 JUMPI PUSH2 0x14E9 PUSH2 0x269C JUMP JUMPDEST PUSH1 0x0 SWAP2 DUP3 MSTORE PUSH1 0x20 SWAP1 SWAP2 KECCAK256 ADD SLOAD PUSH1 0x1 PUSH1 0x1 PUSH1 0xA0 SHL SUB AND SWAP3 SWAP2 POP POP JUMP JUMPDEST CALLER PUSH1 0x0 SWAP1 DUP2 MSTORE PUSH1 0x7 PUSH1 0x20 MSTORE PUSH1 0x40 DUP2 KECCAK256 SLOAD PUSH1 0xFF AND PUSH2 0x1557 JUMPI PUSH1 0x40 MLOAD PUSH3 0x461BCD PUSH1 0xE5 SHL DUP2 MSTORE PUSH1 0x20 PUSH1 0x4 DUP3 ADD MSTORE PUSH1 0x11 PUSH1 0x24 DUP3 ADD MSTORE PUSH17 0x4E6F7420612062656E6566696369617279 PUSH1 0x78 SHL PUSH1 0x44 DUP3 ADD MSTORE PUSH1 0x64 ADD PUSH2 0x714 JUMP JUMPDEST CALLER PUSH1 0x0 SWAP1 DUP2 MSTORE PUSH1 0x7 PUSH1 0x20 MSTORE PUSH1 0x40 SWAP1 DUP2 SWAP1 KECCAK256 SWAP1 MLOAD PUSH1 0x2 SWAP1 SWAP2 ADD SWAP1 PUSH2 0x157B SWAP1 DUP5 SWAP1 PUSH2 0x27D9 JUMP JUMPDEST SWAP1 DUP2 MSTORE PUSH1 0x20 ADD PUSH1 0x40 MLOAD DUP1 SWAP2 SUB SWAP1 KECCAK256 SLOAD DUP4 PUSH1 0x7 PUSH1 0x0 CALLER PUSH1 0x1 PUSH1 0x1 PUSH1 0xA0 SHL SUB AND PUSH1 0x1 PUSH1 0x1 PUSH1 0xA0 SHL SUB AND DUP2 MSTORE PUSH1 0x20 ADD SWAP1 DUP2 MSTORE PUSH1 0x20 ADD PUSH1 0x0 KECCAK256 PUSH1 0x3 ADD DUP5 PUSH1 0x40 MLOAD PUSH2 0x15C1 SWAP2 SWAP1 PUSH2 0x27D9 JUMP JUMPDEST SWAP1 DUP2 MSTORE PUSH1 0x20 ADD PUSH1 0x40 MLOAD DUP1 SWAP2 SUB SWAP1 KECCAK256 SLOAD PUSH2 0x15DA SWAP2 SWAP1 PUSH2 0x2636 JUMP JUMPDEST GT ISZERO PUSH2 0x1628 JUMPI PUSH1 0x40 MLOAD PUSH3 0x461BCD PUSH1 0xE5 SHL DUP2 MSTORE PUSH1 0x20 PUSH1 0x4 DUP3 ADD MSTORE PUSH1 0x17 PUSH1 0x24 DUP3 ADD MSTORE PUSH32 0x43617465676F7279206C696D6974206578636565646564000000000000000000 PUSH1 0x44 DUP3 ADD MSTORE PUSH1 0x64 ADD PUSH2 0x714 JUMP JUMPDEST CALLER PUSH1 0x0 SWAP1 DUP2 MSTORE PUSH1 0x7 PUSH1 0x20 MSTORE PUSH1 0x40 SWAP1 DUP2 SWAP1 KECCAK256 SWAP1 MLOAD DUP5 SWAP2 PUSH1 0x3 ADD SWAP1 PUSH2 0x164C SWAP1 DUP6 SWAP1 PUSH2 0x27D9 JUMP JUMPDEST SWAP1 DUP2 MSTORE PUSH1 0x20 ADD PUSH1 0x40 MLOAD DUP1 SWAP2 SUB SWAP1 KECCAK256 PUSH1 0x0 DUP3 DUP3 SLOAD PUSH2 0x1669 SWAP2 SWAP1 PUSH2 0x2636 JUMP JUMPDEST SWAP3 POP POP DUP2 SWAP1 SSTORE POP PUSH2 0x16B2 CALLER DUP6 DUP6 DUP6 PUSH1 0x40 MLOAD DUP1 PUSH1 0x40 ADD PUSH1 0x40 MSTORE DUP1 PUSH1 0x17 DUP2 MSTORE PUSH1 0x20 ADD PUSH32 0x43617465676F72792D6261736564207472616E73666572000000000000000000 DUP2 MSTORE POP PUSH2 0x1A6C JUMP JUMPDEST CALLER PUSH1 0x1 PUSH1 0x1 PUSH1 0xA0 SHL SUB AND PUSH32 0xCFBC2B064E4FE80C5E4495FCBEA14E2354AA4DA6C86F65666899FDE522846FEB DUP4 DUP6 PUSH1 0x40 MLOAD PUSH2 0x16ED SWAP3 SWAP2 SWAP1 PUSH2 0x2890 JUMP JUMPDEST PUSH1 0x40 MLOAD DUP1 SWAP2 SUB SWAP1 LOG2 PUSH2 0x16FF DUP5 DUP5 PUSH2 0x12B0 JUMP JUMPDEST SWAP5 SWAP4 POP POP POP POP JUMP JUMPDEST PUSH1 0x0 DUP3 DUP2 MSTORE PUSH1 0x6 PUSH1 0x20 MSTORE PUSH1 0x40 SWAP1 KECCAK256 PUSH1 0x1 ADD SLOAD PUSH2 0x1722 DUP2 PUSH2 0x1B7F JUMP JUMPDEST PUSH2 0xAE0 DUP4 DUP4 PUSH2 0x1CF5 JUMP JUMPDEST PUSH1 0x1 PUSH1 0x1 PUSH1 0xA0 SHL SUB DUP3 AND PUSH1 0x0 SWAP1 DUP2 MSTORE PUSH1 0x7 PUSH1 0x20 MSTORE PUSH1 0x40 DUP1 DUP3 KECCAK256 SWAP1 MLOAD DUP3 SWAP2 SWAP1 PUSH1 0x3 DUP3 ADD SWAP1 PUSH2 0x175A SWAP1 DUP7 SWAP1 PUSH2 0x27D9 JUMP JUMPDEST SWAP1 DUP2 MSTORE PUSH1 0x20 ADD PUSH1 0x40 MLOAD DUP1 SWAP2 SUB SWAP1 KECCAK256 SLOAD DUP2 PUSH1 0x2 ADD DUP6 PUSH1 0x40 MLOAD PUSH2 0x177B SWAP2 SWAP1 PUSH2 0x27D9 JUMP JUMPDEST SWAP1 DUP2 MSTORE PUSH1 0x20 ADD PUSH1 0x40 MLOAD DUP1 SWAP2 SUB SWAP1 KECCAK256 SLOAD SWAP3 POP SWAP3 POP POP SWAP3 POP SWAP3 SWAP1 POP JUMP JUMPDEST PUSH1 0x0 DUP4 GT PUSH2 0x17E6 JUMPI PUSH1 0x40 MLOAD PUSH3 0x461BCD PUSH1 0xE5 SHL DUP2 MSTORE PUSH1 0x20 PUSH1 0x4 DUP3 ADD MSTORE PUSH1 0x1D PUSH1 0x24 DUP3 ADD MSTORE PUSH32 0x416D6F756E74206D7573742062652067726561746572207468616E2030000000 PUSH1 0x44 DUP3 ADD MSTORE PUSH1 0x64 ADD PUSH2 0x714 JUMP JUMPDEST PUSH1 0x40 DUP1 MLOAD PUSH1 0xC0 DUP2 ADD DUP3 MSTORE CALLER DUP2 MSTORE PUSH1 0x20 DUP1 DUP3 ADD DUP7 DUP2 MSTORE DUP3 DUP5 ADD DUP7 DUP2 MSTORE TIMESTAMP PUSH1 0x60 DUP6 ADD MSTORE PUSH1 0x1 PUSH1 0x80 DUP6 ADD DUP2 SWAP1 MSTORE PUSH1 0xA0 DUP6 ADD DUP8 SWAP1 MSTORE PUSH1 0xB SLOAD PUSH1 0x0 SWAP1 DUP2 MSTORE PUSH1 0xA SWAP1 SWAP5 MSTORE SWAP5 SWAP1 SWAP3 KECCAK256 DUP4 MLOAD DUP2 SLOAD PUSH1 0x1 PUSH1 0x1 PUSH1 0xA0 SHL SUB NOT AND PUSH1 0x1 PUSH1 0x1 PUSH1 0xA0 SHL SUB SWAP1 SWAP2 AND OR DUP2 SSTORE SWAP1 MLOAD SWAP4 DUP2 ADD SWAP4 SWAP1 SWAP4 SSTORE MLOAD SWAP1 SWAP2 SWAP1 PUSH1 0x2 DUP3 ADD SWAP1 PUSH2 0x1860 SWAP1 DUP3 PUSH2 0x2719 JUMP JUMPDEST POP PUSH1 0x60 DUP3 ADD MLOAD PUSH1 0x3 DUP3 ADD SSTORE PUSH1 0x80 DUP3 ADD MLOAD PUSH1 0x4 DUP3 ADD DUP1 SLOAD PUSH1 0xFF NOT AND SWAP2 ISZERO ISZERO SWAP2 SWAP1 SWAP2 OR SWAP1 SSTORE PUSH1 0xA0 DUP3 ADD MLOAD PUSH1 0x5 DUP3 ADD SWAP1 PUSH2 0x1897 SWAP1 DUP3 PUSH2 0x2719 JUMP JUMPDEST POP POP PUSH1 0xB SLOAD PUSH1 0x40 MLOAD CALLER SWAP3 POP PUSH32 0xFCB42ED01B9BA3F02D9EC63ABC24225A939113506F163162FD75EA487BB28DC6 SWAP1 PUSH2 0x18D1 SWAP1 DUP8 SWAP1 DUP8 SWAP1 PUSH2 0x2649 JUMP JUMPDEST PUSH1 0x40 MLOAD DUP1 SWAP2 SUB SWAP1 LOG3 PUSH1 0xB DUP1 SLOAD SWAP1 PUSH1 0x0 PUSH2 0x18E9 DUP4 PUSH2 0x26B2 JUMP JUMPDEST SWAP2 SWAP1 POP SSTORE POP POP POP POP JUMP JUMPDEST PUSH2 0x18FB PUSH2 0x1A05 JUMP JUMPDEST PUSH1 0x1 PUSH1 0x1 PUSH1 0xA0 SHL SUB DUP2 AND PUSH2 0x1925 JUMPI PUSH1 0x40 MLOAD PUSH4 0x1E4FBDF7 PUSH1 0xE0 SHL DUP2 MSTORE PUSH1 0x0 PUSH1 0x4 DUP3 ADD MSTORE PUSH1 0x24 ADD PUSH2 0x714 JUMP JUMPDEST PUSH2 0x192E DUP2 PUSH2 0x1D62 JUMP JUMPDEST POP JUMP JUMPDEST PUSH1 0xA PUSH1 0x20 MSTORE PUSH1 0x0 SWAP1 DUP2 MSTORE PUSH1 0x40 SWAP1 KECCAK256 DUP1 SLOAD PUSH1 0x1 DUP3 ADD SLOAD PUSH1 0x2 DUP4 ADD DUP1 SLOAD PUSH1 0x1 PUSH1 0x1 PUSH1 0xA0 SHL SUB SWAP1 SWAP4 AND SWAP4 SWAP2 SWAP3 PUSH2 0x1963 SWAP1 PUSH2 0x2662 JUMP JUMPDEST DUP1 PUSH1 0x1F ADD PUSH1 0x20 DUP1 SWAP2 DIV MUL PUSH1 0x20 ADD PUSH1 0x40 MLOAD SWAP1 DUP2 ADD PUSH1 0x40 MSTORE DUP1 SWAP3 SWAP2 SWAP1 DUP2 DUP2 MSTORE PUSH1 0x20 ADD DUP3 DUP1 SLOAD PUSH2 0x198F SWAP1 PUSH2 0x2662 JUMP JUMPDEST DUP1 ISZERO PUSH2 0x19DC JUMPI DUP1 PUSH1 0x1F LT PUSH2 0x19B1 JUMPI PUSH2 0x100 DUP1 DUP4 SLOAD DIV MUL DUP4 MSTORE SWAP2 PUSH1 0x20 ADD SWAP2 PUSH2 0x19DC JUMP JUMPDEST DUP3 ADD SWAP2 SWAP1 PUSH1 0x0 MSTORE PUSH1 0x20 PUSH1 0x0 KECCAK256 SWAP1 JUMPDEST DUP2 SLOAD DUP2 MSTORE SWAP1 PUSH1 0x1 ADD SWAP1 PUSH1 0x20 ADD DUP1 DUP4 GT PUSH2 0x19BF JUMPI DUP3 SWAP1 SUB PUSH1 0x1F AND DUP3 ADD SWAP2 JUMPDEST POP POP POP POP PUSH1 0x3 DUP4 ADD SLOAD PUSH1 0x4 DUP5 ADD SLOAD PUSH1 0x5 DUP6 ADD DUP1 SLOAD SWAP5 SWAP6 SWAP3 SWAP5 PUSH1 0xFF SWAP1 SWAP3 AND SWAP4 POP SWAP1 PUSH2 0x1203 SWAP1 PUSH2 0x2662 JUMP JUMPDEST PUSH1 0x5 SLOAD PUSH1 0x1 PUSH1 0x1 PUSH1 0xA0 SHL SUB AND CALLER EQ PUSH2 0x1081 JUMPI PUSH1 0x40 MLOAD PUSH4 0x118CDAA7 PUSH1 0xE0 SHL DUP2 MSTORE CALLER PUSH1 0x4 DUP3 ADD MSTORE PUSH1 0x24 ADD PUSH2 0x714 JUMP JUMPDEST PUSH1 0x1 PUSH1 0x1 PUSH1 0xA0 SHL SUB DUP3 AND PUSH2 0x1A5C JUMPI PUSH1 0x40 MLOAD PUSH4 0xEC442F05 PUSH1 0xE0 SHL DUP2 MSTORE PUSH1 0x0 PUSH1 0x4 DUP3 ADD MSTORE PUSH1 0x24 ADD PUSH2 0x714 JUMP JUMPDEST PUSH2 0x1A68 PUSH1 0x0 DUP4 DUP4 PUSH2 0x1DB4 JUMP JUMPDEST POP POP JUMP JUMPDEST PUSH1 0x40 DUP1 MLOAD PUSH1 0xC0 DUP2 ADD DUP3 MSTORE PUSH1 0x1 PUSH1 0x1 PUSH1 0xA0 SHL SUB DUP1 DUP9 AND DUP3 MSTORE DUP7 DUP2 AND PUSH1 0x20 DUP1 DUP5 ADD SWAP2 DUP3 MSTORE DUP4 DUP6 ADD DUP9 DUP2 MSTORE PUSH1 0x60 DUP6 ADD DUP9 DUP2 MSTORE TIMESTAMP PUSH1 0x80 DUP8 ADD MSTORE PUSH1 0xA0 DUP7 ADD DUP9 SWAP1 MSTORE PUSH1 0x9 SLOAD PUSH1 0x0 SWAP1 DUP2 MSTORE PUSH1 0x8 SWAP1 SWAP4 MSTORE SWAP6 SWAP1 SWAP2 KECCAK256 DUP5 MLOAD DUP2 SLOAD SWAP1 DUP6 AND PUSH1 0x1 PUSH1 0x1 PUSH1 0xA0 SHL SUB NOT SWAP2 DUP3 AND OR DUP3 SSTORE SWAP3 MLOAD PUSH1 0x1 DUP3 ADD DUP1 SLOAD SWAP2 SWAP1 SWAP6 AND SWAP4 AND SWAP3 SWAP1 SWAP3 OR SWAP1 SWAP3 SSTORE SWAP1 MLOAD PUSH1 0x2 DUP3 ADD SSTORE SWAP2 MLOAD SWAP1 SWAP2 SWAP1 PUSH1 0x3 DUP3 ADD SWAP1 PUSH2 0x1AFF SWAP1 DUP3 PUSH2 0x2719 JUMP JUMPDEST POP PUSH1 0x80 DUP3 ADD MLOAD PUSH1 0x4 DUP3 ADD SSTORE PUSH1 0xA0 DUP3 ADD MLOAD PUSH1 0x5 DUP3 ADD SWAP1 PUSH2 0x1B1E SWAP1 DUP3 PUSH2 0x2719 JUMP JUMPDEST POP SWAP1 POP POP PUSH1 0x9 SLOAD PUSH32 0x95B08F0CC03D1A6DCFBC3B6A35813240CC3D47678B7BFF83A4FD947258D75877 DUP7 DUP7 DUP7 DUP7 PUSH1 0x40 MLOAD PUSH2 0x1B5A SWAP5 SWAP4 SWAP3 SWAP2 SWAP1 PUSH2 0x28B2 JUMP JUMPDEST PUSH1 0x40 MLOAD DUP1 SWAP2 SUB SWAP1 LOG2 PUSH1 0x9 DUP1 SLOAD SWAP1 PUSH1 0x0 PUSH2 0xFB6 DUP4 PUSH2 0x26B2 JUMP JUMPDEST PUSH2 0xE8F DUP4 DUP4 DUP4 PUSH1 0x1 PUSH2 0x1EDE JUMP JUMPDEST PUSH2 0x192E DUP2 CALLER PUSH2 0x1FB3 JUMP JUMPDEST PUSH1 0x1 PUSH1 0x1 PUSH1 0xA0 SHL SUB DUP4 DUP2 AND PUSH1 0x0 SWAP1 DUP2 MSTORE PUSH1 0x1 PUSH1 0x20 SWAP1 DUP2 MSTORE PUSH1 0x40 DUP1 DUP4 KECCAK256 SWAP4 DUP7 AND DUP4 MSTORE SWAP3 SWAP1 MSTORE KECCAK256 SLOAD PUSH1 0x0 NOT DUP2 LT ISZERO PUSH2 0xAE0 JUMPI DUP2 DUP2 LT ISZERO PUSH2 0x1BF3 JUMPI PUSH1 0x40 MLOAD PUSH4 0x7DC7A0D9 PUSH1 0xE1 SHL DUP2 MSTORE PUSH1 0x1 PUSH1 0x1 PUSH1 0xA0 SHL SUB DUP5 AND PUSH1 0x4 DUP3 ADD MSTORE PUSH1 0x24 DUP2 ADD DUP3 SWAP1 MSTORE PUSH1 0x44 DUP2 ADD DUP4 SWAP1 MSTORE PUSH1 0x64 ADD PUSH2 0x714 JUMP JUMPDEST PUSH2 0xAE0 DUP5 DUP5 DUP5 DUP5 SUB PUSH1 0x0 PUSH2 0x1EDE JUMP JUMPDEST PUSH1 0x1 PUSH1 0x1 PUSH1 0xA0 SHL SUB DUP4 AND PUSH2 0x1C2C JUMPI PUSH1 0x40 MLOAD PUSH4 0x4B637E8F PUSH1 0xE1 SHL DUP2 MSTORE PUSH1 0x0 PUSH1 0x4 DUP3 ADD MSTORE PUSH1 0x24 ADD PUSH2 0x714 JUMP JUMPDEST PUSH1 0x1 PUSH1 0x1 PUSH1 0xA0 SHL SUB DUP3 AND PUSH2 0x1C56 JUMPI PUSH1 0x40 MLOAD PUSH4 0xEC442F05 PUSH1 0xE0 SHL DUP2 MSTORE PUSH1 0x0 PUSH1 0x4 DUP3 ADD MSTORE PUSH1 0x24 ADD PUSH2 0x714 JUMP JUMPDEST PUSH2 0xE8F DUP4 DUP4 DUP4 PUSH2 0x1DB4 JUMP JUMPDEST PUSH1 0x0 PUSH2 0x1C6D DUP4 DUP4 PUSH2 0x10F9 JUMP JUMPDEST PUSH2 0x1CED JUMPI PUSH1 0x0 DUP4 DUP2 MSTORE PUSH1 0x6 PUSH1 0x20 SWAP1 DUP2 MSTORE PUSH1 0x40 DUP1 DUP4 KECCAK256 PUSH1 0x1 PUSH1 0x1 PUSH1 0xA0 SHL SUB DUP7 AND DUP5 MSTORE SWAP1 SWAP2 MSTORE SWAP1 KECCAK256 DUP1 SLOAD PUSH1 0xFF NOT AND PUSH1 0x1 OR SWAP1 SSTORE PUSH2 0x1CA5 CALLER SWAP1 JUMP JUMPDEST PUSH1 0x1 PUSH1 0x1 PUSH1 0xA0 SHL SUB AND DUP3 PUSH1 0x1 PUSH1 0x1 PUSH1 0xA0 SHL SUB AND DUP5 PUSH32 0x2F8788117E7EFF1D82E926EC794901D17C78024A50270940304540A733656F0D PUSH1 0x40 MLOAD PUSH1 0x40 MLOAD DUP1 SWAP2 SUB SWAP1 LOG4 POP PUSH1 0x1 PUSH2 0x85A JUMP JUMPDEST POP PUSH1 0x0 PUSH2 0x85A JUMP JUMPDEST PUSH1 0x0 PUSH2 0x1D01 DUP4 DUP4 PUSH2 0x10F9 JUMP JUMPDEST ISZERO PUSH2 0x1CED JUMPI PUSH1 0x0 DUP4 DUP2 MSTORE PUSH1 0x6 PUSH1 0x20 SWAP1 DUP2 MSTORE PUSH1 0x40 DUP1 DUP4 KECCAK256 PUSH1 0x1 PUSH1 0x1 PUSH1 0xA0 SHL SUB DUP7 AND DUP1 DUP6 MSTORE SWAP3 MSTORE DUP1 DUP4 KECCAK256 DUP1 SLOAD PUSH1 0xFF NOT AND SWAP1 SSTORE MLOAD CALLER SWAP3 DUP7 SWAP2 PUSH32 0xF6391F5C32D9C69D2A47EA670B442974B53935D1EDC7FD64EB21E047A839171B SWAP2 SWAP1 LOG4 POP PUSH1 0x1 PUSH2 0x85A JUMP JUMPDEST PUSH1 0x5 DUP1 SLOAD PUSH1 0x1 PUSH1 0x1 PUSH1 0xA0 SHL SUB DUP4 DUP2 AND PUSH1 0x1 PUSH1 0x1 PUSH1 0xA0 SHL SUB NOT DUP4 AND DUP2 OR SWAP1 SWAP4 SSTORE PUSH1 0x40 MLOAD SWAP2 AND SWAP2 SWAP1 DUP3 SWAP1 PUSH32 0x8BE0079C531659141344CD1FD0A4F28419497F9722A3DAAFE3B4186F6B6457E0 SWAP1 PUSH1 0x0 SWAP1 LOG3 POP POP JUMP JUMPDEST PUSH1 0x1 PUSH1 0x1 PUSH1 0xA0 SHL SUB DUP4 AND PUSH2 0x1DDF JUMPI DUP1 PUSH1 0x2 PUSH1 0x0 DUP3 DUP3 SLOAD PUSH2 0x1DD4 SWAP2 SWAP1 PUSH2 0x2636 JUMP JUMPDEST SWAP1 SWAP2 SSTORE POP PUSH2 0x1E51 SWAP1 POP JUMP JUMPDEST PUSH1 0x1 PUSH1 0x1 PUSH1 0xA0 SHL SUB DUP4 AND PUSH1 0x0 SWAP1 DUP2 MSTORE PUSH1 0x20 DUP2 SWAP1 MSTORE PUSH1 0x40 SWAP1 KECCAK256 SLOAD DUP2 DUP2 LT ISZERO PUSH2 0x1E32 JUMPI PUSH1 0x40 MLOAD PUSH4 0x391434E3 PUSH1 0xE2 SHL DUP2 MSTORE PUSH1 0x1 PUSH1 0x1 PUSH1 0xA0 SHL SUB DUP6 AND PUSH1 0x4 DUP3 ADD MSTORE PUSH1 0x24 DUP2 ADD DUP3 SWAP1 MSTORE PUSH1 0x44 DUP2 ADD DUP4 SWAP1 MSTORE PUSH1 0x64 ADD PUSH2 0x714 JUMP JUMPDEST PUSH1 0x1 PUSH1 0x1 PUSH1 0xA0 SHL SUB DUP5 AND PUSH1 0x0 SWAP1 DUP2 MSTORE PUSH1 0x20 DUP2 SWAP1 MSTORE PUSH1 0x40 SWAP1 KECCAK256 SWAP1 DUP3 SWAP1 SUB SWAP1 SSTORE JUMPDEST PUSH1 0x1 PUSH1 0x1 PUSH1 0xA0 SHL SUB DUP3 AND PUSH2 0x1E6D JUMPI PUSH1 0x2 DUP1 SLOAD DUP3 SWAP1 SUB SWAP1 SSTORE PUSH2 0x1E8C JUMP JUMPDEST PUSH1 0x1 PUSH1 0x1 PUSH1 0xA0 SHL SUB DUP3 AND PUSH1 0x0 SWAP1 DUP2 MSTORE PUSH1 0x20 DUP2 SWAP1 MSTORE PUSH1 0x40 SWAP1 KECCAK256 DUP1 SLOAD DUP3 ADD SWAP1 SSTORE JUMPDEST DUP2 PUSH1 0x1 PUSH1 0x1 PUSH1 0xA0 SHL SUB AND DUP4 PUSH1 0x1 PUSH1 0x1 PUSH1 0xA0 SHL SUB AND PUSH32 0xDDF252AD1BE2C89B69C2B068FC378DAA952BA7F163C4A11628F55A4DF523B3EF DUP4 PUSH1 0x40 MLOAD PUSH2 0x1ED1 SWAP2 DUP2 MSTORE PUSH1 0x20 ADD SWAP1 JUMP JUMPDEST PUSH1 0x40 MLOAD DUP1 SWAP2 SUB SWAP1 LOG3 POP POP POP JUMP JUMPDEST PUSH1 0x1 PUSH1 0x1 PUSH1 0xA0 SHL SUB DUP5 AND PUSH2 0x1F08 JUMPI PUSH1 0x40 MLOAD PUSH4 0xE602DF05 PUSH1 0xE0 SHL DUP2 MSTORE PUSH1 0x0 PUSH1 0x4 DUP3 ADD MSTORE PUSH1 0x24 ADD PUSH2 0x714 JUMP JUMPDEST PUSH1 0x1 PUSH1 0x1 PUSH1 0xA0 SHL SUB DUP4 AND PUSH2 0x1F32 JUMPI PUSH1 0x40 MLOAD PUSH4 0x4A1406B1 PUSH1 0xE1 SHL DUP2 MSTORE PUSH1 0x0 PUSH1 0x4 DUP3 ADD MSTORE PUSH1 0x24 ADD PUSH2 0x714 JUMP JUMPDEST PUSH1 0x1 PUSH1 0x1 PUSH1 0xA0 SHL SUB DUP1 DUP6 AND PUSH1 0x0 SWAP1 DUP2 MSTORE PUSH1 0x1 PUSH1 0x20 SWAP1 DUP2 MSTORE PUSH1 0x40 DUP1 DUP4 KECCAK256 SWAP4 DUP8 AND DUP4 MSTORE SWAP3 SWAP1 MSTORE KECCAK256 DUP3 SWAP1 SSTORE DUP1 ISZERO PUSH2 0xAE0 JUMPI DUP3 PUSH1 0x1 PUSH1 0x1 PUSH1 0xA0 SHL SUB AND DUP5 PUSH1 0x1 PUSH1 0x1 PUSH1 0xA0 SHL SUB AND PUSH32 0x8C5BE1E5EBEC7D5BD14F71427D1E84F3DD0314C0F7B2291E5B200AC8C7C3B925 DUP5 PUSH1 0x40 MLOAD PUSH2 0x1FA5 SWAP2 DUP2 MSTORE PUSH1 0x20 ADD SWAP1 JUMP JUMPDEST PUSH1 0x40 MLOAD DUP1 SWAP2 SUB SWAP1 LOG3 POP POP POP POP JUMP JUMPDEST PUSH2 0x1FBD DUP3 DUP3 PUSH2 0x10F9 JUMP JUMPDEST PUSH2 0x1A68 JUMPI PUSH1 0x40 MLOAD PUSH4 0xE2517D3F PUSH1 0xE0 SHL DUP2 MSTORE PUSH1 0x1 PUSH1 0x1 PUSH1 0xA0 SHL SUB DUP3 AND PUSH1 0x4 DUP3 ADD MSTORE PUSH1 0x24 DUP2 ADD DUP4 SWAP1 MSTORE PUSH1 0x44 ADD PUSH2 0x714 JUMP JUMPDEST DUP1 CALLDATALOAD PUSH1 0x1 PUSH1 0x1 PUSH1 0xA0 SHL SUB DUP2 AND DUP2 EQ PUSH2 0x2003 JUMPI PUSH1 0x0 DUP1 REVERT JUMPDEST SWAP2 SWAP1 POP JUMP JUMPDEST PUSH1 0x0 PUSH1 0x20 DUP3 DUP5 SUB SLT ISZERO PUSH2 0x201A JUMPI PUSH1 0x0 DUP1 REVERT JUMPDEST PUSH2 0x2023 DUP3 PUSH2 0x1FEC JUMP JUMPDEST SWAP4 SWAP3 POP POP POP JUMP JUMPDEST PUSH4 0x4E487B71 PUSH1 0xE0 SHL PUSH1 0x0 MSTORE PUSH1 0x41 PUSH1 0x4 MSTORE PUSH1 0x24 PUSH1 0x0 REVERT JUMPDEST PUSH1 0x40 MLOAD PUSH1 0x1F DUP3 ADD PUSH1 0x1F NOT AND DUP2 ADD PUSH8 0xFFFFFFFFFFFFFFFF DUP2 GT DUP3 DUP3 LT OR ISZERO PUSH2 0x2069 JUMPI PUSH2 0x2069 PUSH2 0x202A JUMP JUMPDEST PUSH1 0x40 MSTORE SWAP2 SWAP1 POP JUMP JUMPDEST PUSH1 0x0 DUP3 PUSH1 0x1F DUP4 ADD SLT PUSH2 0x2082 JUMPI PUSH1 0x0 DUP1 REVERT JUMPDEST DUP2 CALLDATALOAD PUSH8 0xFFFFFFFFFFFFFFFF DUP2 GT ISZERO PUSH2 0x209C JUMPI PUSH2 0x209C PUSH2 0x202A JUMP JUMPDEST PUSH2 0x20AF PUSH1 0x1F DUP3 ADD PUSH1 0x1F NOT AND PUSH1 0x20 ADD PUSH2 0x2040 JUMP JUMPDEST DUP2 DUP2 MSTORE DUP5 PUSH1 0x20 DUP4 DUP7 ADD ADD GT ISZERO PUSH2 0x20C4 JUMPI PUSH1 0x0 DUP1 REVERT JUMPDEST DUP2 PUSH1 0x20 DUP6 ADD PUSH1 0x20 DUP4 ADD CALLDATACOPY PUSH1 0x0 SWAP2 DUP2 ADD PUSH1 0x20 ADD SWAP2 SWAP1 SWAP2 MSTORE SWAP4 SWAP3 POP POP POP JUMP JUMPDEST PUSH1 0x0 DUP1 PUSH1 0x0 PUSH1 0x60 DUP5 DUP7 SUB SLT ISZERO PUSH2 0x20F6 JUMPI PUSH1 0x0 DUP1 REVERT JUMPDEST PUSH2 0x20FF DUP5 PUSH2 0x1FEC JUMP JUMPDEST SWAP3 POP PUSH1 0x20 DUP5 ADD CALLDATALOAD SWAP2 POP PUSH1 0x40 DUP5 ADD CALLDATALOAD PUSH8 0xFFFFFFFFFFFFFFFF DUP2 GT ISZERO PUSH2 0x2122 JUMPI PUSH1 0x0 DUP1 REVERT JUMPDEST PUSH2 0x212E DUP7 DUP3 DUP8 ADD PUSH2 0x2071 JUMP JUMPDEST SWAP2 POP POP SWAP3 POP SWAP3 POP SWAP3 JUMP JUMPDEST PUSH1 0x0 PUSH1 0x20 DUP3 DUP5 SUB SLT ISZERO PUSH2 0x214A JUMPI PUSH1 0x0 DUP1 REVERT JUMPDEST DUP2 CALLDATALOAD PUSH1 0x1 PUSH1 0x1 PUSH1 0xE0 SHL SUB NOT DUP2 AND DUP2 EQ PUSH2 0x2023 JUMPI PUSH1 0x0 DUP1 REVERT JUMPDEST PUSH1 0x0 JUMPDEST DUP4 DUP2 LT ISZERO PUSH2 0x217D JUMPI DUP2 DUP2 ADD MLOAD DUP4 DUP3 ADD MSTORE PUSH1 0x20 ADD PUSH2 0x2165 JUMP JUMPDEST POP POP PUSH1 0x0 SWAP2 ADD MSTORE JUMP JUMPDEST PUSH1 0x0 DUP2 MLOAD DUP1 DUP5 MSTORE PUSH2 0x219E DUP2 PUSH1 0x20 DUP7 ADD PUSH1 0x20 DUP7 ADD PUSH2 0x2162 JUMP JUMPDEST PUSH1 0x1F ADD PUSH1 0x1F NOT AND SWAP3 SWAP1 SWAP3 ADD PUSH1 0x20 ADD SWAP3 SWAP2 POP POP JUMP JUMPDEST PUSH1 0x20 DUP2 MSTORE PUSH1 0x0 PUSH2 0x2023 PUSH1 0x20 DUP4 ADD DUP5 PUSH2 0x2186 JUMP JUMPDEST PUSH1 0x0 DUP1 PUSH1 0x40 DUP4 DUP6 SUB SLT ISZERO PUSH2 0x21D8 JUMPI PUSH1 0x0 DUP1 REVERT JUMPDEST PUSH2 0x21E1 DUP4 PUSH2 0x1FEC JUMP JUMPDEST SWAP5 PUSH1 0x20 SWAP4 SWAP1 SWAP4 ADD CALLDATALOAD SWAP4 POP POP POP JUMP JUMPDEST PUSH1 0x0 PUSH1 0x20 DUP3 DUP5 SUB SLT ISZERO PUSH2 0x2201 JUMPI PUSH1 0x0 DUP1 REVERT JUMPDEST POP CALLDATALOAD SWAP2 SWAP1 POP JUMP JUMPDEST PUSH1 0x0 DUP1 PUSH1 0x0 PUSH1 0x60 DUP5 DUP7 SUB SLT ISZERO PUSH2 0x221D JUMPI PUSH1 0x0 DUP1 REVERT JUMPDEST PUSH2 0x2226 DUP5 PUSH2 0x1FEC JUMP JUMPDEST SWAP3 POP PUSH2 0x2234 PUSH1 0x20 DUP6 ADD PUSH2 0x1FEC JUMP JUMPDEST SWAP2 POP PUSH1 0x40 DUP5 ADD CALLDATALOAD SWAP1 POP SWAP3 POP SWAP3 POP SWAP3 JUMP JUMPDEST PUSH1 0x0 DUP1 PUSH1 0x40 DUP4 DUP6 SUB SLT ISZERO PUSH2 0x2257 JUMPI PUSH1 0x0 DUP1 REVERT JUMPDEST DUP3 CALLDATALOAD SWAP2 POP PUSH2 0x2267 PUSH1 0x20 DUP5 ADD PUSH2 0x1FEC JUMP JUMPDEST SWAP1 POP SWAP3 POP SWAP3 SWAP1 POP JUMP JUMPDEST PUSH1 0x0 DUP1 PUSH1 0x40 DUP4 DUP6 SUB SLT ISZERO PUSH2 0x2283 JUMPI PUSH1 0x0 DUP1 REVERT JUMPDEST PUSH2 0x228C DUP4 PUSH2 0x1FEC JUMP JUMPDEST SWAP2 POP PUSH2 0x2267 PUSH1 0x20 DUP5 ADD PUSH2 0x1FEC JUMP JUMPDEST PUSH1 0x1 PUSH1 0x1 PUSH1 0xA0 SHL SUB DUP8 DUP2 AND DUP3 MSTORE DUP7 AND PUSH1 0x20 DUP3 ADD MSTORE PUSH1 0x40 DUP2 ADD DUP6 SWAP1 MSTORE PUSH1 0xC0 PUSH1 0x60 DUP3 ADD DUP2 SWAP1 MSTORE PUSH1 0x0 SWAP1 PUSH2 0x22CD SWAP1 DUP4 ADD DUP7 PUSH2 0x2186 JUMP JUMPDEST DUP5 PUSH1 0x80 DUP5 ADD MSTORE DUP3 DUP2 SUB PUSH1 0xA0 DUP5 ADD MSTORE PUSH2 0x22E5 DUP2 DUP6 PUSH2 0x2186 JUMP JUMPDEST SWAP10 SWAP9 POP POP POP POP POP POP POP POP POP JUMP JUMPDEST PUSH1 0x0 DUP1 PUSH1 0x0 DUP1 PUSH1 0x80 DUP6 DUP8 SUB SLT ISZERO PUSH2 0x2308 JUMPI PUSH1 0x0 DUP1 REVERT JUMPDEST PUSH2 0x2311 DUP6 PUSH2 0x1FEC JUMP JUMPDEST SWAP4 POP PUSH1 0x20 DUP6 ADD CALLDATALOAD SWAP3 POP PUSH1 0x40 DUP6 ADD CALLDATALOAD PUSH8 0xFFFFFFFFFFFFFFFF DUP1 DUP3 GT ISZERO PUSH2 0x2335 JUMPI PUSH1 0x0 DUP1 REVERT JUMPDEST PUSH2 0x2341 DUP9 DUP4 DUP10 ADD PUSH2 0x2071 JUMP JUMPDEST SWAP4 POP PUSH1 0x60 DUP8 ADD CALLDATALOAD SWAP2 POP DUP1 DUP3 GT ISZERO PUSH2 0x2357 JUMPI PUSH1 0x0 DUP1 REVERT JUMPDEST POP PUSH2 0x2364 DUP8 DUP3 DUP9 ADD PUSH2 0x2071 JUMP JUMPDEST SWAP2 POP POP SWAP3 SWAP6 SWAP2 SWAP5 POP SWAP3 POP JUMP JUMPDEST PUSH1 0x20 DUP1 DUP3 MSTORE DUP3 MLOAD DUP3 DUP3 ADD DUP2 SWAP1 MSTORE PUSH1 0x0 SWAP2 SWAP1 DUP5 DUP3 ADD SWAP1 PUSH1 0x40 DUP6 ADD SWAP1 DUP5 JUMPDEST DUP2 DUP2 LT ISZERO PUSH2 0x23B1 JUMPI DUP4 MLOAD PUSH1 0x1 PUSH1 0x1 PUSH1 0xA0 SHL SUB AND DUP4 MSTORE SWAP3 DUP5 ADD SWAP3 SWAP2 DUP5 ADD SWAP2 PUSH1 0x1 ADD PUSH2 0x238C JUMP JUMPDEST POP SWAP1 SWAP7 SWAP6 POP POP POP POP POP POP JUMP JUMPDEST PUSH1 0x0 PUSH8 0xFFFFFFFFFFFFFFFF DUP3 GT ISZERO PUSH2 0x23D7 JUMPI PUSH2 0x23D7 PUSH2 0x202A JUMP JUMPDEST POP PUSH1 0x5 SHL PUSH1 0x20 ADD SWAP1 JUMP JUMPDEST PUSH1 0x0 DUP3 PUSH1 0x1F DUP4 ADD SLT PUSH2 0x23F2 JUMPI PUSH1 0x0 DUP1 REVERT JUMPDEST DUP2 CALLDATALOAD PUSH1 0x20 PUSH2 0x2407 PUSH2 0x2402 DUP4 PUSH2 0x23BD JUMP JUMPDEST PUSH2 0x2040 JUMP JUMPDEST DUP3 DUP2 MSTORE PUSH1 0x5 SWAP3 SWAP1 SWAP3 SHL DUP5 ADD DUP2 ADD SWAP2 DUP2 DUP2 ADD SWAP1 DUP7 DUP5 GT ISZERO PUSH2 0x2426 JUMPI PUSH1 0x0 DUP1 REVERT JUMPDEST DUP3 DUP7 ADD JUMPDEST DUP5 DUP2 LT ISZERO PUSH2 0x2441 JUMPI DUP1 CALLDATALOAD DUP4 MSTORE SWAP2 DUP4 ADD SWAP2 DUP4 ADD PUSH2 0x242A JUMP JUMPDEST POP SWAP7 SWAP6 POP POP POP POP POP POP JUMP JUMPDEST PUSH1 0x0 DUP1 PUSH1 0x0 PUSH1 0x60 DUP5 DUP7 SUB SLT ISZERO PUSH2 0x2461 JUMPI PUSH1 0x0 DUP1 REVERT JUMPDEST PUSH2 0x246A DUP5 PUSH2 0x1FEC JUMP JUMPDEST SWAP3 POP PUSH1 0x20 DUP1 DUP6 ADD CALLDATALOAD PUSH8 0xFFFFFFFFFFFFFFFF DUP1 DUP3 GT ISZERO PUSH2 0x2488 JUMPI PUSH1 0x0 DUP1 REVERT JUMPDEST DUP2 DUP8 ADD SWAP2 POP DUP8 PUSH1 0x1F DUP4 ADD SLT PUSH2 0x249C JUMPI PUSH1 0x0 DUP1 REVERT JUMPDEST DUP2 CALLDATALOAD PUSH2 0x24AA PUSH2 0x2402 DUP3 PUSH2 0x23BD JUMP JUMPDEST DUP2 DUP2 MSTORE PUSH1 0x5 SWAP2 SWAP1 SWAP2 SHL DUP4 ADD DUP5 ADD SWAP1 DUP5 DUP2 ADD SWAP1 DUP11 DUP4 GT ISZERO PUSH2 0x24C9 JUMPI PUSH1 0x0 DUP1 REVERT JUMPDEST DUP6 DUP6 ADD JUMPDEST DUP4 DUP2 LT ISZERO PUSH2 0x2501 JUMPI DUP1 CALLDATALOAD DUP6 DUP2 GT ISZERO PUSH2 0x24E5 JUMPI PUSH1 0x0 DUP1 DUP2 REVERT JUMPDEST PUSH2 0x24F3 DUP14 DUP10 DUP4 DUP11 ADD ADD PUSH2 0x2071 JUMP JUMPDEST DUP5 MSTORE POP SWAP2 DUP7 ADD SWAP2 DUP7 ADD PUSH2 0x24CD JUMP JUMPDEST POP SWAP7 POP POP POP PUSH1 0x40 DUP8 ADD CALLDATALOAD SWAP3 POP DUP1 DUP4 GT ISZERO PUSH2 0x251A JUMPI PUSH1 0x0 DUP1 REVERT JUMPDEST POP POP PUSH2 0x212E DUP7 DUP3 DUP8 ADD PUSH2 0x23E1 JUMP JUMPDEST PUSH1 0x0 DUP1 PUSH1 0x40 DUP4 DUP6 SUB SLT ISZERO PUSH2 0x253B JUMPI PUSH1 0x0 DUP1 REVERT JUMPDEST PUSH2 0x2544 DUP4 PUSH2 0x1FEC JUMP JUMPDEST SWAP2 POP PUSH1 0x20 DUP4 ADD CALLDATALOAD PUSH8 0xFFFFFFFFFFFFFFFF DUP2 GT ISZERO PUSH2 0x2560 JUMPI PUSH1 0x0 DUP1 REVERT JUMPDEST PUSH2 0x256C DUP6 DUP3 DUP7 ADD PUSH2 0x2071 JUMP JUMPDEST SWAP2 POP POP SWAP3 POP SWAP3 SWAP1 POP JUMP JUMPDEST PUSH1 0x0 DUP1 PUSH1 0x0 PUSH1 0x60 DUP5 DUP7 SUB SLT ISZERO PUSH2 0x258B JUMPI PUSH1 0x0 DUP1 REVERT JUMPDEST DUP4 CALLDATALOAD SWAP3 POP PUSH1 0x20 DUP5 ADD CALLDATALOAD PUSH8 0xFFFFFFFFFFFFFFFF DUP1 DUP3 GT ISZERO PUSH2 0x25AA JUMPI PUSH1 0x0 DUP1 REVERT JUMPDEST PUSH2 0x25B6 DUP8 DUP4 DUP9 ADD PUSH2 0x2071 JUMP JUMPDEST SWAP4 POP PUSH1 0x40 DUP7 ADD CALLDATALOAD SWAP2 POP DUP1 DUP3 GT ISZERO PUSH2 0x25CC JUMPI PUSH1 0x0 DUP1 REVERT JUMPDEST POP PUSH2 0x212E DUP7 DUP3 DUP8 ADD PUSH2 0x2071 JUMP JUMPDEST PUSH1 0x1 DUP1 PUSH1 0xA0 SHL SUB DUP8 AND DUP2 MSTORE DUP6 PUSH1 0x20 DUP3 ADD MSTORE PUSH1 0xC0 PUSH1 0x40 DUP3 ADD MSTORE PUSH1 0x0 PUSH2 0x2600 PUSH1 0xC0 DUP4 ADD DUP8 PUSH2 0x2186 JUMP JUMPDEST DUP6 PUSH1 0x60 DUP5 ADD MSTORE DUP5 ISZERO ISZERO PUSH1 0x80 DUP5 ADD MSTORE DUP3 DUP2 SUB PUSH1 0xA0 DUP5 ADD MSTORE PUSH2 0x22E5 DUP2 DUP6 PUSH2 0x2186 JUMP JUMPDEST PUSH4 0x4E487B71 PUSH1 0xE0 SHL PUSH1 0x0 MSTORE PUSH1 0x11 PUSH1 0x4 MSTORE PUSH1 0x24 PUSH1 0x0 REVERT JUMPDEST DUP1 DUP3 ADD DUP1 DUP3 GT ISZERO PUSH2 0x85A JUMPI PUSH2 0x85A PUSH2 0x2620 JUMP JUMPDEST DUP3 DUP2 MSTORE PUSH1 0x40 PUSH1 0x20 DUP3 ADD MSTORE PUSH1 0x0 PUSH2 0x16FF PUSH1 0x40 DUP4 ADD DUP5 PUSH2 0x2186 JUMP JUMPDEST PUSH1 0x1 DUP2 DUP2 SHR SWAP1 DUP3 AND DUP1 PUSH2 0x2676 JUMPI PUSH1 0x7F DUP3 AND SWAP2 POP JUMPDEST PUSH1 0x20 DUP3 LT DUP2 SUB PUSH2 0x2696 JUMPI PUSH4 0x4E487B71 PUSH1 0xE0 SHL PUSH1 0x0 MSTORE PUSH1 0x22 PUSH1 0x4 MSTORE PUSH1 0x24 PUSH1 0x0 REVERT JUMPDEST POP SWAP2 SWAP1 POP JUMP JUMPDEST PUSH4 0x4E487B71 PUSH1 0xE0 SHL PUSH1 0x0 MSTORE PUSH1 0x32 PUSH1 0x4 MSTORE PUSH1 0x24 PUSH1 0x0 REVERT JUMPDEST PUSH1 0x0 PUSH1 0x1 DUP3 ADD PUSH2 0x26C4 JUMPI PUSH2 0x26C4 PUSH2 0x2620 JUMP JUMPDEST POP PUSH1 0x1 ADD SWAP1 JUMP JUMPDEST PUSH1 0x1F DUP3 GT ISZERO PUSH2 0xE8F JUMPI PUSH1 0x0 DUP2 DUP2 MSTORE PUSH1 0x20 DUP2 KECCAK256 PUSH1 0x1F DUP6 ADD PUSH1 0x5 SHR DUP2 ADD PUSH1 0x20 DUP7 LT ISZERO PUSH2 0x26F2 JUMPI POP DUP1 JUMPDEST PUSH1 0x1F DUP6 ADD PUSH1 0x5 SHR DUP3 ADD SWAP2 POP JUMPDEST DUP2 DUP2 LT ISZERO PUSH2 0x2711 JUMPI DUP3 DUP2 SSTORE PUSH1 0x1 ADD PUSH2 0x26FE JUMP JUMPDEST POP POP POP POP POP POP JUMP JUMPDEST DUP2 MLOAD PUSH8 0xFFFFFFFFFFFFFFFF DUP2 GT ISZERO PUSH2 0x2733 JUMPI PUSH2 0x2733 PUSH2 0x202A JUMP JUMPDEST PUSH2 0x2747 DUP2 PUSH2 0x2741 DUP5 SLOAD PUSH2 0x2662 JUMP JUMPDEST DUP5 PUSH2 0x26CB JUMP JUMPDEST PUSH1 0x20 DUP1 PUSH1 0x1F DUP4 GT PUSH1 0x1 DUP2 EQ PUSH2 0x277C JUMPI PUSH1 0x0 DUP5 ISZERO PUSH2 0x2764 JUMPI POP DUP6 DUP4 ADD MLOAD JUMPDEST PUSH1 0x0 NOT PUSH1 0x3 DUP7 SWAP1 SHL SHR NOT AND PUSH1 0x1 DUP6 SWAP1 SHL OR DUP6 SSTORE PUSH2 0x2711 JUMP JUMPDEST PUSH1 0x0 DUP6 DUP2 MSTORE PUSH1 0x20 DUP2 KECCAK256 PUSH1 0x1F NOT DUP7 AND SWAP2 JUMPDEST DUP3 DUP2 LT ISZERO PUSH2 0x27AB JUMPI DUP9 DUP7 ADD MLOAD DUP3 SSTORE SWAP5 DUP5 ADD SWAP5 PUSH1 0x1 SWAP1 SWAP2 ADD SWAP1 DUP5 ADD PUSH2 0x278C JUMP JUMPDEST POP DUP6 DUP3 LT ISZERO PUSH2 0x27C9 JUMPI DUP8 DUP6 ADD MLOAD PUSH1 0x0 NOT PUSH1 0x3 DUP9 SWAP1 SHL PUSH1 0xF8 AND SHR NOT AND DUP2 SSTORE JUMPDEST POP POP POP POP POP PUSH1 0x1 SWAP1 DUP2 SHL ADD SWAP1 SSTORE POP JUMP JUMPDEST PUSH1 0x0 DUP3 MLOAD PUSH2 0x27EB DUP2 DUP5 PUSH1 0x20 DUP8 ADD PUSH2 0x2162 JUMP JUMPDEST SWAP2 SWAP1 SWAP2 ADD SWAP3 SWAP2 POP POP JUMP JUMPDEST PUSH1 0x0 PUSH1 0x40 DUP3 ADD PUSH1 0x40 DUP4 MSTORE DUP1 DUP6 MLOAD DUP1 DUP4 MSTORE PUSH1 0x60 DUP6 ADD SWAP2 POP PUSH1 0x60 DUP2 PUSH1 0x5 SHL DUP7 ADD ADD SWAP3 POP PUSH1 0x20 DUP1 DUP9 ADD PUSH1 0x0 JUMPDEST DUP4 DUP2 LT ISZERO PUSH2 0x284C JUMPI PUSH1 0x5F NOT DUP9 DUP8 SUB ADD DUP6 MSTORE PUSH2 0x283A DUP7 DUP4 MLOAD PUSH2 0x2186 JUMP JUMPDEST SWAP6 POP SWAP4 DUP3 ADD SWAP4 SWAP1 DUP3 ADD SWAP1 PUSH1 0x1 ADD PUSH2 0x281E JUMP JUMPDEST POP POP DUP6 DUP5 SUB DUP2 DUP8 ADD MSTORE DUP7 MLOAD DUP1 DUP6 MSTORE DUP8 DUP3 ADD SWAP5 DUP3 ADD SWAP4 POP SWAP2 POP PUSH1 0x0 JUMPDEST DUP3 DUP2 LT ISZERO PUSH2 0x2883 JUMPI DUP5 MLOAD DUP5 MSTORE SWAP4 DUP2 ADD SWAP4 SWAP3 DUP2 ADD SWAP3 PUSH1 0x1 ADD PUSH2 0x2867 JUMP JUMPDEST POP SWAP2 SWAP8 SWAP7 POP POP POP POP POP POP POP JUMP JUMPDEST PUSH1 0x40 DUP2 MSTORE PUSH1 0x0 PUSH2 0x28A3 PUSH1 0x40 DUP4 ADD DUP6 PUSH2 0x2186 JUMP JUMPDEST SWAP1 POP DUP3 PUSH1 0x20 DUP4 ADD MSTORE SWAP4 SWAP3 POP POP POP JUMP JUMPDEST PUSH1 0x1 PUSH1 0x1 PUSH1 0xA0 SHL SUB DUP6 DUP2 AND DUP3 MSTORE DUP5 AND PUSH1 0x20 DUP3 ADD MSTORE PUSH1 0x40 DUP2 ADD DUP4 SWAP1 MSTORE PUSH1 0x80 PUSH1 0x60 DUP3 ADD DUP2 SWAP1 MSTORE PUSH1 0x0 SWAP1 PUSH2 0x28E5 SWAP1 DUP4 ADD DUP5 PUSH2 0x2186 JUMP JUMPDEST SWAP7 SWAP6 POP POP POP POP POP POP JUMP INVALID LOG4 SWAP9 SMOD KECCAK256 0x5C 0xE4 0xD3 SSTORE MULMOD 0x2E CREATE2 0xA8 LOG1 DUP16 JUMP 0xE8 SWAP2 EXTCODECOPY DELEGATECALL LOG2 ADD 0xFB 0xE2 DUP8 DUP3 JUMPDEST MULMOD JUMP SWAP4 0xC2 OR PUSH22 0xA264697066735822122053D505FF00FE4B04D65AF9D0 0x1E MULMOD 0xAC MLOAD 0xCF MOD DUP11 0x4C PUSH2 0x30CA DUP1 SWAP9 PUSH1 0xF DUP1 CALLDATACOPY SGT DUP4 SWAP3 PUSH5 0x736F6C6343 STOP ADDMOD EQ STOP CALLER 0xBB PUSH28 0x4A454DC3493923482F07822329ED19E8244EFF582CC204F8554C3620 0xC3 REVERT "},"methodIdentifiers":{"ADMIN_ROLE()":"75b238fc","BENEFICIARY_ROLE()":"ced3a403","DEFAULT_ADMIN_ROLE()":"a217fddf","DONOR_ROLE()":"c864be8a","RELIEF_PARTNER_ROLE()":"ef337b4c","allowance(address,address)":"dd62ed3e","allowedCategories(uint256)":"140d8713","approve(address,uint256)":"095ea7b3","assignReliefPartner(address,address)":"2fdec199","balanceOf(address)":"70a08231","beneficiaries(address)":"01567739","beneficiaryList(uint256)":"9e761bbb","decimals()":"313ce567","distributeRelief(address,uint256,string)":"01865c93","donate(uint256,string,string)":"f2ccf839","donationCount()":"2abfab4d","donations(uint256)":"f8626af8","getBeneficiaryAt(uint256)":"b6e8d2e2","getBeneficiaryCount()":"9a6e7fd1","getCategorySpending(address,string)":"e9f6ab25","getReliefPartners(address)":"8bb63786","getRoleAdmin(bytes32)":"248a9ca3","getTransaction(uint256)":"33ea3dc8","grantRole(bytes32,address)":"2f2ff15d","hasRole(bytes32,address)":"91d14854","name()":"06fdde03","owner()":"8da5cb5b","recordDonation(address,uint256,string,string)":"45357099","reliefPartners(address,uint256)":"27be6f0e","removeBeneficiary(address)":"59633a1c","renounceOwnership()":"715018a6","renounceRole(bytes32,address)":"36568abe","revokeRole(bytes32,address)":"d547741f","supportsInterface(bytes4)":"01ffc9a7","symbol()":"95d89b41","totalSupply()":"18160ddd","transactionCount()":"b77bf600","transactions(uint256)":"9ace38c2","transfer(address,uint256)":"a9059cbb","transferFrom(address,address,uint256)":"23b872dd","transferOwnership(address)":"f2fde38b","transferWithCategory(address,uint256,string)":"b8810501","verifyDonation(uint256)":"11e03eaa","whitelistBeneficiary(address,string[],uint256[])":"b6812182"}}}}}