{
  "_format": "hh-sol-artifact-1",
  "contractName": "ReliefToken",
  "sourceName": "ReliefToken.sol",
  "abi": [
    {
      "inputs": [
        {
          "internalType": "string",
          "name": "name",
          "type": "string"
        },
        {
          "internalType": "string",
          "name": "symbol",
          "type": "string"
        },
        {
          "internalType": "address",
          "name": "initialOwner",
          "type": "address"
        }
      ],
      "stateMutability": "nonpayable",
      "type": "constructor"
    },
    {
      "inputs": [],
      "name": "AccessControlBadConfirmation",
      "type": "error"
    },
    {
      "inputs": [
        {
          "internalType": "address",
          "name": "account",
          "type": "address"
        },
        {
          "internalType": "bytes32",
          "name": "neededRole",
          "type": "bytes32"
        }
      ],
      "name": "AccessControlUnauthorizedAccount",
      "type": "error"
    },
    {
      "inputs": [
        {
          "internalType": "address",
          "name": "spender",
          "type": "address"
        },
        {
          "internalType": "uint256",
          "name": "allowance",
          "type": "uint256"
        },
        {
          "internalType": "uint256",
          "name": "needed",
          "type": "uint256"
        }
      ],
      "name": "ERC20InsufficientAllowance",
      "type": "error"
    },
    {
      "inputs": [
        {
          "internalType": "address",
          "name": "sender",
          "type": "address"
        },
        {
          "internalType": "uint256",
          "name": "balance",
          "type": "uint256"
        },
        {
          "internalType": "uint256",
          "name": "needed",
          "type": "uint256"
        }
      ],
      "name": "ERC20InsufficientBalance",
      "type": "error"
    },
    {
      "inputs": [
        {
          "internalType": "address",
          "name": "approver",
          "type": "address"
        }
      ],
      "name": "ERC20InvalidApprover",
      "type": "error"
    },
    {
      "inputs": [
        {
          "internalType": "address",
          "name": "receiver",
          "type": "address"
        }
      ],
      "name": "ERC20InvalidReceiver",
      "type": "error"
    },
    {
      "inputs": [
        {
          "internalType": "address",
          "name": "sender",
          "type": "address"
        }
      ],
      "name": "ERC20InvalidSender",
      "type": "error"
    },
    {
      "inputs": [
        {
          "internalType": "address",
          "name": "spender",
          "type": "address"
        }
      ],
      "name": "ERC20InvalidSpender",
      "type": "error"
    },
    {
      "inputs": [
        {
          "internalType": "address",
          "name": "owner",
          "type": "address"
        }
      ],
      "name": "OwnableInvalidOwner",
      "type": "error"
    },
    {
      "inputs": [
        {
          "internalType": "address",
          "name": "account",
          "type": "address"
        }
      ],
      "name": "OwnableUnauthorizedAccount",
      "type": "error"
    },
    {
      "anonymous": false,
      "inputs": [
        {
          "indexed": true,
          "internalType": "address",
          "name": "owner",
          "type": "address"
        },
        {
          "indexed": true,
          "internalType": "address",
          "name": "spender",
          "type": "address"
        },
        {
          "indexed": false,
          "internalType": "uint256",
          "name": "value",
          "type": "uint256"
        }
      ],
      "name": "Approval",
      "type": "event"
    },
    {
      "anonymous": false,
      "inputs": [
        {
          "indexed": true,
          "internalType": "address",
          "name": "beneficiary",
          "type": "address"
        }
      ],
      "name": "BeneficiaryRemoved",
      "type": "event"
    },
    {
      "anonymous": false,
      "inputs": [
        {
          "indexed": true,
          "internalType": "address",
          "name": "beneficiary",
          "type": "address"
        },
        {
          "indexed": false,
          "internalType": "string[]",
          "name": "categories",
          "type": "string[]"
        },
        {
          "indexed": false,
          "internalType": "uint256[]",
          "name": "limits",
          "type": "uint256[]"
        }
      ],
      "name": "BeneficiaryWhitelisted",
      "type": "event"
    },
    {
      "anonymous": false,
      "inputs": [
        {
          "indexed": true,
          "internalType": "address",
          "name": "beneficiary",
          "type": "address"
        },
        {
          "indexed": false,
          "internalType": "string",
          "name": "category",
          "type": "string"
        },
        {
          "indexed": false,
          "internalType": "uint256",
          "name": "amount",
          "type": "uint256"
        }
      ],
      "name": "CategorySpent",
      "type": "event"
    },
    {
      "anonymous": false,
      "inputs": [
        {
          "indexed": true,
          "internalType": "uint256",
          "name": "donationId",
          "type": "uint256"
        },
        {
          "indexed": true,
          "internalType": "address",
          "name": "donor",
          "type": "address"
        },
        {
          "indexed": false,
          "internalType": "uint256",
          "name": "amount",
          "type": "uint256"
        },
        {
          "indexed": false,
          "internalType": "string",
          "name": "category",
          "type": "string"
        },
        {
          "indexed": false,
          "internalType": "string",
          "name": "transactionHash",
          "type": "string"
        }
      ],
      "name": "DonationRecorded",
      "type": "event"
    },
    {
      "anonymous": false,
      "inputs": [
        {
          "indexed": true,
          "internalType": "uint256",
          "name": "donationId",
          "type": "uint256"
        },
        {
          "indexed": true,
          "internalType": "address",
          "name": "verifier",
          "type": "address"
        }
      ],
      "name": "DonationVerified",
      "type": "event"
    },
    {
      "anonymous": false,
      "inputs": [
        {
          "indexed": true,
          "internalType": "address",
          "name": "previousOwner",
          "type": "address"
        },
        {
          "indexed": true,
          "internalType": "address",
          "name": "newOwner",
          "type": "address"
        }
      ],
      "name": "OwnershipTransferred",
      "type": "event"
    },
    {
      "anonymous": false,
      "inputs": [
        {
          "indexed": true,
          "internalType": "address",
          "name": "to",
          "type": "address"
        },
        {
          "indexed": false,
          "internalType": "uint256",
          "name": "amount",
          "type": "uint256"
        },
        {
          "indexed": false,
          "internalType": "string",
          "name": "category",
          "type": "string"
        }
      ],
      "name": "ReliefDistributed",
      "type": "event"
    },
    {
      "anonymous": false,
      "inputs": [
        {
          "indexed": true,
          "internalType": "address",
          "name": "beneficiary",
          "type": "address"
        },
        {
          "indexed": true,
          "internalType": "address",
          "name": "reliefPartner",
          "type": "address"
        }
      ],
      "name": "ReliefPartnerAssigned",
      "type": "event"
    },
    {
      "anonymous": false,
      "inputs": [
        {
          "indexed": true,
          "internalType": "bytes32",
          "name": "role",
          "type": "bytes32"
        },
        {
          "indexed": true,
          "internalType": "bytes32",
          "name": "previousAdminRole",
          "type": "bytes32"
        },
        {
          "indexed": true,
          "internalType": "bytes32",
          "name": "newAdminRole",
          "type": "bytes32"
        }
      ],
      "name": "RoleAdminChanged",
      "type": "event"
    },
    {
      "anonymous": false,
      "inputs": [
        {
          "indexed": true,
          "internalType": "bytes32",
          "name": "role",
          "type": "bytes32"
        },
        {
          "indexed": true,
          "internalType": "address",
          "name": "account",
          "type": "address"
        },
        {
          "indexed": true,
          "internalType": "address",
          "name": "sender",
          "type": "address"
        }
      ],
      "name": "RoleGranted",
      "type": "event"
    },
    {
      "anonymous": false,
      "inputs": [
        {
          "indexed": true,
          "internalType": "bytes32",
          "name": "role",
          "type": "bytes32"
        },
        {
          "indexed": true,
          "internalType": "address",
          "name": "account",
          "type": "address"
        },
        {
          "indexed": true,
          "internalType": "address",
          "name": "sender",
          "type": "address"
        }
      ],
      "name": "RoleRevoked",
      "type": "event"
    },
    {
      "anonymous": false,
      "inputs": [
        {
          "indexed": true,
          "internalType": "uint256",
          "name": "txId",
          "type": "uint256"
        },
        {
          "indexed": false,
          "internalType": "address",
          "name": "from",
          "type": "address"
        },
        {
          "indexed": false,
          "internalType": "address",
          "name": "to",
          "type": "address"
        },
        {
          "indexed": false,
          "internalType": "uint256",
          "name": "amount",
          "type": "uint256"
        },
        {
          "indexed": false,
          "internalType": "string",
          "name": "category",
          "type": "string"
        }
      ],
      "name": "TransactionRecorded",
      "type": "event"
    },
    {
      "anonymous": false,
      "inputs": [
        {
          "indexed": true,
          "internalType": "address",
          "name": "from",
          "type": "address"
        },
        {
          "indexed": true,
          "internalType": "address",
          "name": "to",
          "type": "address"
        },
        {
          "indexed": false,
          "internalType": "uint256",
          "name": "value",
          "type": "uint256"
        }
      ],
      "name": "Transfer",
      "type": "event"
    },
    {
      "inputs": [],
      "name": "ADMIN_ROLE",
      "outputs": [
        {
          "internalType": "bytes32",
          "name": "",
          "type": "bytes32"
        }
      ],
      "stateMutability": "view",
      "type": "function"
    },
    {
      "inputs": [],
      "name": "BENEFICIARY_ROLE",
      "outputs": [
        {
          "internalType": "bytes32",
          "name": "",
          "type": "bytes32"
        }
      ],
      "stateMutability": "view",
      "type": "function"
    },
    {
      "inputs": [],
      "name": "DEFAULT_ADMIN_ROLE",
      "outputs": [
        {
          "internalType": "bytes32",
          "name": "",
          "type": "bytes32"
        }
      ],
      "stateMutability": "view",
      "type": "function"
    },
    {
      "inputs": [],
      "name": "DONOR_ROLE",
      "outputs": [
        {
          "internalType": "bytes32",
          "name": "",
          "type": "bytes32"
        }
      ],
      "stateMutability": "view",
      "type": "function"
    },
    {
      "inputs": [],
      "name": "RELIEF_PARTNER_ROLE",
      "outputs": [
        {
          "internalType": "bytes32",
          "name": "",
          "type": "bytes32"
        }
      ],
      "stateMutability": "view",
      "type": "function"
    },
    {
      "inputs": [
        {
          "internalType": "address",
          "name": "owner",
          "type": "address"
        },
        {
          "internalType": "address",
          "name": "spender",
          "type": "address"
        }
      ],
      "name": "allowance",
      "outputs": [
        {
          "internalType": "uint256",
          "name": "",
          "type": "uint256"
        }
      ],
      "stateMutability": "view",
      "type": "function"
    },
    {
      "inputs": [
        {
          "internalType": "uint256",
          "name": "",
          "type": "uint256"
        }
      ],
      "name": "allowedCategories",
      "outputs": [
        {
          "internalType": "string",
          "name": "",
          "type": "string"
        }
      ],
      "stateMutability": "view",
      "type": "function"
    },
    {
      "inputs": [
        {
          "internalType": "address",
          "name": "spender",
          "type": "address"
        },
        {
          "internalType": "uint256",
          "name": "value",
          "type": "uint256"
        }
      ],
      "name": "approve",
      "outputs": [
        {
          "internalType": "bool",
          "name": "",
          "type": "bool"
        }
      ],
      "stateMutability": "nonpayable",
      "type": "function"
    },
    {
      "inputs": [
        {
          "internalType": "address",
          "name": "beneficiary",
          "type": "address"
        },
        {
          "internalType": "address",
          "name": "reliefPartner",
          "type": "address"
        }
      ],
      "name": "assignReliefPartner",
      "outputs": [],
      "stateMutability": "nonpayable",
      "type": "function"
    },
    {
      "inputs": [
        {
          "internalType": "address",
          "name": "account",
          "type": "address"
        }
      ],
      "name": "balanceOf",
      "outputs": [
        {
          "internalType": "uint256",
          "name": "",
          "type": "uint256"
        }
      ],
      "stateMutability": "view",
      "type": "function"
    },
    {
      "inputs": [
        {
          "internalType": "address",
          "name": "",
          "type": "address"
        }
      ],
      "name": "beneficiaries",
      "outputs": [
        {
          "internalType": "bool",
          "name": "isWhitelisted",
          "type": "bool"
        },
        {
          "internalType": "uint256",
          "name": "totalReceived",
          "type": "uint256"
        }
      ],
      "stateMutability": "view",
      "type": "function"
    },
    {
      "inputs": [
        {
          "internalType": "uint256",
          "name": "",
          "type": "uint256"
        }
      ],
      "name": "beneficiaryList",
      "outputs": [
        {
          "internalType": "address",
          "name": "",
          "type": "address"
        }
      ],
      "stateMutability": "view",
      "type": "function"
    },
    {
      "inputs": [],
      "name": "decimals",
      "outputs": [
        {
          "internalType": "uint8",
          "name": "",
          "type": "uint8"
        }
      ],
      "stateMutability": "view",
      "type": "function"
    },
    {
      "inputs": [
        {
          "internalType": "address",
          "name": "to",
          "type": "address"
        },
        {
          "internalType": "uint256",
          "name": "amount",
          "type": "uint256"
        },
        {
          "internalType": "string",
          "name": "category",
          "type": "string"
        }
      ],
      "name": "distributeRelief",
      "outputs": [],
      "stateMutability": "nonpayable",
      "type": "function"
    },
    {
      "inputs": [
        {
          "internalType": "uint256",
          "name": "amount",
          "type": "uint256"
        },
        {
          "internalType": "string",
          "name": "category",
          "type": "string"
        },
        {
          "internalType": "string",
          "name": "description",
          "type": "string"
        },
        {
          "internalType": "string",
          "name": "transactionHash",
          "type": "string"
        }
      ],
      "name": "donate",
      "outputs": [],
      "stateMutability": "nonpayable",
      "type": "function"
    },
    {
      "inputs": [],
      "name": "donationCount",
      "outputs": [
        {
          "internalType": "uint256",
          "name": "",
          "type": "uint256"
        }
      ],
      "stateMutability": "view",
      "type": "function"
    },
    {
      "inputs": [
        {
          "internalType": "uint256",
          "name": "",
          "type": "uint256"
        }
      ],
      "name": "donations",
      "outputs": [
        {
          "internalType": "address",
          "name": "donor",
          "type": "address"
        },
        {
          "internalType": "uint256",
          "name": "amount",
          "type": "uint256"
        },
        {
          "internalType": "string",
          "name": "category",
          "type": "string"
        },
        {
          "internalType": "uint256",
          "name": "timestamp",
          "type": "uint256"
        },
        {
          "internalType": "bool",
          "name": "verified",
          "type": "bool"
        },
        {
          "internalType": "string",
          "name": "description",
          "type": "string"
        },
        {
          "internalType": "string",
          "name": "transactionHash",
          "type": "string"
        }
      ],
      "stateMutability": "view",
      "type": "function"
    },
    {
      "inputs": [
        {
          "internalType": "uint256",
          "name": "index",
          "type": "uint256"
        }
      ],
      "name": "getBeneficiaryAt",
      "outputs": [
        {
          "internalType": "address",
          "name": "",
          "type": "address"
        }
      ],
      "stateMutability": "view",
      "type": "function"
    },
    {
      "inputs": [],
      "name": "getBeneficiaryCount",
      "outputs": [
        {
          "internalType": "uint256",
          "name": "",
          "type": "uint256"
        }
      ],
      "stateMutability": "view",
      "type": "function"
    },
    {
      "inputs": [
        {
          "internalType": "address",
          "name": "beneficiary",
          "type": "address"
        },
        {
          "internalType": "string",
          "name": "category",
          "type": "string"
        }
      ],
      "name": "getCategorySpending",
      "outputs": [
        {
          "internalType": "uint256",
          "name": "spent",
          "type": "uint256"
        },
        {
          "internalType": "uint256",
          "name": "limit",
          "type": "uint256"
        }
      ],
      "stateMutability": "view",
      "type": "function"
    },
    {
      "inputs": [
        {
          "internalType": "address",
          "name": "beneficiary",
          "type": "address"
        }
      ],
      "name": "getReliefPartners",
      "outputs": [
        {
          "internalType": "address[]",
          "name": "",
          "type": "address[]"
        }
      ],
      "stateMutability": "view",
      "type": "function"
    },
    {
      "inputs": [
        {
          "internalType": "bytes32",
          "name": "role",
          "type": "bytes32"
        }
      ],
      "name": "getRoleAdmin",
      "outputs": [
        {
          "internalType": "bytes32",
          "name": "",
          "type": "bytes32"
        }
      ],
      "stateMutability": "view",
      "type": "function"
    },
    {
      "inputs": [
        {
          "internalType": "uint256",
          "name": "txId",
          "type": "uint256"
        }
      ],
      "name": "getTransaction",
      "outputs": [
        {
          "internalType": "address",
          "name": "from",
          "type": "address"
        },
        {
          "internalType": "address",
          "name": "to",
          "type": "address"
        },
        {
          "internalType": "uint256",
          "name": "amount",
          "type": "uint256"
        },
        {
          "internalType": "string",
          "name": "category",
          "type": "string"
        },
        {
          "internalType": "uint256",
          "name": "timestamp",
          "type": "uint256"
        },
        {
          "internalType": "string",
          "name": "description",
          "type": "string"
        }
      ],
      "stateMutability": "view",
      "type": "function"
    },
    {
      "inputs": [
        {
          "internalType": "bytes32",
          "name": "role",
          "type": "bytes32"
        },
        {
          "internalType": "address",
          "name": "account",
          "type": "address"
        }
      ],
      "name": "grantRole",
      "outputs": [],
      "stateMutability": "nonpayable",
      "type": "function"
    },
    {
      "inputs": [
        {
          "internalType": "bytes32",
          "name": "role",
          "type": "bytes32"
        },
        {
          "internalType": "address",
          "name": "account",
          "type": "address"
        }
      ],
      "name": "hasRole",
      "outputs": [
        {
          "internalType": "bool",
          "name": "",
          "type": "bool"
        }
      ],
      "stateMutability": "view",
      "type": "function"
    },
    {
      "inputs": [],
      "name": "name",
      "outputs": [
        {
          "internalType": "string",
          "name": "",
          "type": "string"
        }
      ],
      "stateMutability": "view",
      "type": "function"
    },
    {
      "inputs": [],
      "name": "owner",
      "outputs": [
        {
          "internalType": "address",
          "name": "",
          "type": "address"
        }
      ],
      "stateMutability": "view",
      "type": "function"
    },
    {
      "inputs": [
        {
          "internalType": "address",
          "name": "donor",
          "type": "address"
        },
        {
          "internalType": "uint256",
          "name": "amount",
          "type": "uint256"
        },
        {
          "internalType": "string",
          "name": "category",
          "type": "string"
        },
        {
          "internalType": "string",
          "name": "description",
          "type": "string"
        },
        {
          "internalType": "string",
          "name": "transactionHash",
          "type": "string"
        }
      ],
      "name": "recordDonation",
      "outputs": [],
      "stateMutability": "nonpayable",
      "type": "function"
    },
    {
      "inputs": [
        {
          "internalType": "address",
          "name": "",
          "type": "address"
        },
        {
          "internalType": "uint256",
          "name": "",
          "type": "uint256"
        }
      ],
      "name": "reliefPartners",
      "outputs": [
        {
          "internalType": "address",
          "name": "",
          "type": "address"
        }
      ],
      "stateMutability": "view",
      "type": "function"
    },
    {
      "inputs": [
        {
          "internalType": "address",
          "name": "beneficiary",
          "type": "address"
        }
      ],
      "name": "removeBeneficiary",
      "outputs": [],
      "stateMutability": "nonpayable",
      "type": "function"
    },
    {
      "inputs": [
        {
          "internalType": "address",
          "name": "reliefPartner",
          "type": "address"
        }
      ],
      "name": "removeReliefPartner",
      "outputs": [],
      "stateMutability": "nonpayable",
      "type": "function"
    },
    {
      "inputs": [],
      "name": "renounceOwnership",
      "outputs": [],
      "stateMutability": "nonpayable",
      "type": "function"
    },
    {
      "inputs": [
        {
          "internalType": "bytes32",
          "name": "role",
          "type": "bytes32"
        },
        {
          "internalType": "address",
          "name": "callerConfirmation",
          "type": "address"
        }
      ],
      "name": "renounceRole",
      "outputs": [],
      "stateMutability": "nonpayable",
      "type": "function"
    },
    {
      "inputs": [
        {
          "internalType": "bytes32",
          "name": "role",
          "type": "bytes32"
        },
        {
          "internalType": "address",
          "name": "account",
          "type": "address"
        }
      ],
      "name": "revokeRole",
      "outputs": [],
      "stateMutability": "nonpayable",
      "type": "function"
    },
    {
      "inputs": [
        {
          "internalType": "bytes4",
          "name": "interfaceId",
          "type": "bytes4"
        }
      ],
      "name": "supportsInterface",
      "outputs": [
        {
          "internalType": "bool",
          "name": "",
          "type": "bool"
        }
      ],
      "stateMutability": "view",
      "type": "function"
    },
    {
      "inputs": [],
      "name": "symbol",
      "outputs": [
        {
          "internalType": "string",
          "name": "",
          "type": "string"
        }
      ],
      "stateMutability": "view",
      "type": "function"
    },
    {
      "inputs": [],
      "name": "totalSupply",
      "outputs": [
        {
          "internalType": "uint256",
          "name": "",
          "type": "uint256"
        }
      ],
      "stateMutability": "view",
      "type": "function"
    },
    {
      "inputs": [],
      "name": "transactionCount",
      "outputs": [
        {
          "internalType": "uint256",
          "name": "",
          "type": "uint256"
        }
      ],
      "stateMutability": "view",
      "type": "function"
    },
    {
      "inputs": [
        {
          "internalType": "uint256",
          "name": "",
          "type": "uint256"
        }
      ],
      "name": "transactions",
      "outputs": [
        {
          "internalType": "address",
          "name": "from",
          "type": "address"
        },
        {
          "internalType": "address",
          "name": "to",
          "type": "address"
        },
        {
          "internalType": "uint256",
          "name": "amount",
          "type": "uint256"
        },
        {
          "internalType": "string",
          "name": "category",
          "type": "string"
        },
        {
          "internalType": "uint256",
          "name": "timestamp",
          "type": "uint256"
        },
        {
          "internalType": "string",
          "name": "description",
          "type": "string"
        }
      ],
      "stateMutability": "view",
      "type": "function"
    },
    {
      "inputs": [
        {
          "internalType": "address",
          "name": "to",
          "type": "address"
        },
        {
          "internalType": "uint256",
          "name": "value",
          "type": "uint256"
        }
      ],
      "name": "transfer",
      "outputs": [
        {
          "internalType": "bool",
          "name": "",
          "type": "bool"
        }
      ],
      "stateMutability": "nonpayable",
      "type": "function"
    },
    {
      "inputs": [
        {
          "internalType": "address",
          "name": "from",
          "type": "address"
        },
        {
          "internalType": "address",
          "name": "to",
          "type": "address"
        },
        {
          "internalType": "uint256",
          "name": "value",
          "type": "uint256"
        }
      ],
      "name": "transferFrom",
      "outputs": [
        {
          "internalType": "bool",
          "name": "",
          "type": "bool"
        }
      ],
      "stateMutability": "nonpayable",
      "type": "function"
    },
    {
      "inputs": [
        {
          "internalType": "address",
          "name": "newOwner",
          "type": "address"
        }
      ],
      "name": "transferOwnership",
      "outputs": [],
      "stateMutability": "nonpayable",
      "type": "function"
    },
    {
      "inputs": [
        {
          "internalType": "address",
          "name": "to",
          "type": "address"
        },
        {
          "internalType": "uint256",
          "name": "amount",
          "type": "uint256"
        },
        {
          "internalType": "string",
          "name": "category",
          "type": "string"
        }
      ],
      "name": "transferWithCategory",
      "outputs": [
        {
          "internalType": "bool",
          "name": "",
          "type": "bool"
        }
      ],
      "stateMutability": "nonpayable",
      "type": "function"
    },
    {
      "inputs": [
        {
          "internalType": "uint256",
          "name": "donationId",
          "type": "uint256"
        }
      ],
      "name": "verifyDonation",
      "outputs": [],
      "stateMutability": "nonpayable",
      "type": "function"
    },
    {
      "inputs": [
        {
          "internalType": "address",
          "name": "beneficiary",
          "type": "address"
        },
        {
          "internalType": "string[]",
          "name": "categories",
          "type": "string[]"
        },
        {
          "internalType": "uint256[]",
          "name": "limits",
          "type": "uint256[]"
        }
      ],
      "name": "whitelistBeneficiary",
      "outputs": [],
      "stateMutability": "nonpayable",
      "type": "function"
    },
    {
      "inputs": [
        {
          "internalType": "address",
          "name": "reliefPartner",
          "type": "address"
        }
      ],
      "name": "whitelistReliefPartner",
      "outputs": [],
      "stateMutability": "nonpayable",
      "type": "function"
    }
  ],
  "bytecode": "0x60806040523480156200001157600080fd5b50604051620032b7380380620032b783398101604081905262000034916200042b565b808383600362000045838262000547565b50600462000054828262000547565b5050506001600160a01b0381166200008657604051631e4fbdf760e01b81526000600482015260240160405180910390fd5b620000918162000261565b50600e8054600181018255600091909152604080518082019091526004815263199bdbd960e21b60208201526000805160206200329783398151915290910190620000dd908262000547565b50600e805460018101825560009190915260408051808201909152600781526639b432b63a32b960c91b602082015260008051602062003297833981519152909101906200012c908262000547565b50600e80546001810182556000919091526040805180820190915260078152661b59591a58d85b60ca1b602082015260008051602062003297833981519152909101906200017b908262000547565b50600e8054600181018255600091909152604080518082019091526008815267636c6f7468696e6760c01b60208201526000805160206200329783398151915290910190620001cb908262000547565b50600e80546001810182556000919091526040805180820190915260098152687574696c697469657360b81b602082015260008051602062003297833981519152909101906200021c908262000547565b506200022a600082620002b3565b50620002577fa49807205ce4d355092ef5a8a18f56e8913cf4a201fbe287825b095693c2177582620002b3565b5050505062000613565b600580546001600160a01b038381166001600160a01b0319831681179093556040519116919082907f8be0079c531659141344cd1fd0a4f28419497f9722a3daafe3b4186f6b6457e090600090a35050565b60008281526006602090815260408083206001600160a01b038516845290915281205460ff166200035c5760008381526006602090815260408083206001600160a01b03861684529091529020805460ff19166001179055620003133390565b6001600160a01b0316826001600160a01b0316847f2f8788117e7eff1d82e926ec794901d17c78024a50270940304540a733656f0d60405160405180910390a450600162000360565b5060005b92915050565b634e487b7160e01b600052604160045260246000fd5b600082601f8301126200038e57600080fd5b81516001600160401b0380821115620003ab57620003ab62000366565b604051601f8301601f19908116603f01168101908282118183101715620003d657620003d662000366565b81604052838152602092508683858801011115620003f357600080fd5b600091505b83821015620004175785820183015181830184015290820190620003f8565b600093810190920192909252949350505050565b6000806000606084860312156200044157600080fd5b83516001600160401b03808211156200045957600080fd5b62000467878388016200037c565b945060208601519150808211156200047e57600080fd5b506200048d868287016200037c565b604086015190935090506001600160a01b0381168114620004ad57600080fd5b809150509250925092565b600181811c90821680620004cd57607f821691505b602082108103620004ee57634e487b7160e01b600052602260045260246000fd5b50919050565b601f8211156200054257600081815260208120601f850160051c810160208610156200051d5750805b601f850160051c820191505b818110156200053e5782815560010162000529565b5050505b505050565b81516001600160401b0381111562000563576200056362000366565b6200057b81620005748454620004b8565b84620004f4565b602080601f831160018114620005b357600084156200059a5750858301515b600019600386901b1c1916600185901b1785556200053e565b600085815260208120601f198616915b82811015620005e457888601518255948401946001909101908401620005c3565b5085821015620006035787850151600019600388901b60f8161c191681555b5050505050600190811b01905550565b612c7480620006236000396000f3fe608060405234801561001057600080fd5b506004361061028a5760003560e01c806375b238fc1161015c578063b6812182116100ce578063d547741f11610087578063d547741f14610611578063dd62ed3e14610624578063e9f6ab251461065d578063ef337b4c14610685578063f2fde38b1461069a578063f8626af8146106ad57600080fd5b8063b681218214610581578063b6e8d2e214610594578063b77bf600146105a7578063b8810501146105b0578063c864be8a146105c3578063ced3a403146105ea57600080fd5b80639a6e7fd1116101205780639a6e7fd1146105255780639ace38c21461052d5780639b221676146105405780639e761bbb14610553578063a217fddf14610566578063a9059cbb1461056e57600080fd5b806375b238fc146104c45780638bb63786146104d95780638da5cb5b146104f957806391d148541461050a57806395d89b411461051d57600080fd5b806327be6f0e1161020057806336568abe116101b957806336568abe1461044757806359633a1c1461045a5780635b5cf9dd1461046d5780635ea0b2271461048057806370a0823114610493578063715018a6146104bc57600080fd5b806327be6f0e146103b95780632abfab4d146103e45780632f2ff15d146103ed5780632fdec19914610400578063313ce5671461041357806333ea3dc81461042257600080fd5b8063095ea7b311610252578063095ea7b31461033857806311e03eaa1461034b578063140d87131461035e57806318160ddd1461037157806323b872dd14610383578063248a9ca31461039657600080fd5b8063015677391461028f57806301865c93146102d857806301ffc9a7146102ed57806304921c971461031057806306fdde0314610323575b600080fd5b6102bc61029d36600461224f565b6007602052600090815260409020805460019091015460ff9091169082565b6040805192151583526020830191909152015b60405180910390f35b6102eb6102e6366004612328565b6106d3565b005b6103006102fb36600461237f565b610865565b60405190151581526020016102cf565b6102eb61031e3660046123a9565b61089c565b61032b6109e9565b6040516102cf919061249c565b6103006103463660046124af565b610a7b565b6102eb6103593660046124d9565b610a93565b61032b61036c3660046124d9565b610b3c565b6002545b6040519081526020016102cf565b6103006103913660046124f2565b610be8565b6103756103a43660046124d9565b60009081526006602052604090206001015490565b6103cc6103c73660046124af565b610c0c565b6040516001600160a01b0390911681526020016102cf565b610375600b5481565b6102eb6103fb36600461252e565b610c44565b6102eb61040e36600461255a565b610c6f565b604051601281526020016102cf565b6104356104303660046124d9565b610e4c565b6040516102cf96959493929190612584565b6102eb61045536600461252e565b610fc3565b6102eb61046836600461224f565b610ffb565b6102eb61047b3660046125dc565b6110b9565b6102eb61048e36600461224f565b611235565b6103756104a136600461224f565b6001600160a01b031660009081526020819052604090205490565b6102eb611269565b610375600080516020612c1f83398151915281565b6104ec6104e736600461224f565b61127d565b6040516102cf919061266e565b6005546001600160a01b03166103cc565b61030061051836600461252e565b6112f3565b61032b61131e565b600d54610375565b61043561053b3660046124d9565b61132d565b6102eb61054e36600461224f565b611480565b6103cc6105613660046124d9565b6114d6565b610375600081565b61030061057c3660046124af565b611500565b6102eb61058f36600461274a565b61150e565b6103cc6105a23660046124d9565b6116cb565b61037560095481565b6103006105be366004612328565b611743565b6103757f7590f0264744cd50915976d360e18170bc29db6f1a196d3b1061f7f19405217081565b6103757fc8a41221bcd7fcf2c225f5a9265e1d4d39949d89197159d59e5f4b87b62c419e81565b6102eb61061f36600461252e565b611992565b61037561063236600461255a565b6001600160a01b03918216600090815260016020908152604080832093909416825291909152205490565b61067061066b366004612826565b6119b7565b604080519283526020830191909152016102cf565b610375600080516020612bff83398151915281565b6102eb6106a836600461224f565b611a21565b6106c06106bb3660046124d9565b611a5f565b6040516102cf9796959493929190612874565b600080516020612c1f8339815191526106eb81611c44565b6001600160a01b03841660009081526007602052604090205460ff166107585760405162461bcd60e51b815260206004820152601b60248201527f42656e6566696369617279206e6f742077686974656c6973746564000000000060448201526064015b60405180910390fd5b600083116107a85760405162461bcd60e51b815260206004820152601d60248201527f416d6f756e74206d7573742062652067726561746572207468616e2030000000604482015260640161074f565b6107b28484611c4e565b6001600160a01b038416600090815260076020526040812060010180548592906107dd9084906128f3565b9250508190555061081c33858585604051806040016040528060138152602001722932b634b2b3103234b9ba3934b13aba34b7b760691b815250611c84565b836001600160a01b03167f166dba3d0155c9d457d63e1e4753b4562af4286352d0a599aed506a87e0b28ea8484604051610857929190612906565b60405180910390a250505050565b60006001600160e01b03198216637965db0b60e01b148061089657506301ffc9a760e01b6001600160e01b03198316145b92915050565b600080516020612c1f8339815191526108b481611c44565b6040805160e0810182526001600160a01b038881168252602080830189815283850189815242606086015260006080860181905260a086018a905260c08601899052600b548152600a90935294909120835181546001600160a01b03191693169290921782555160018201559151909190600282019061093490826129af565b5060608201516003820155608082015160048201805460ff191691151591909117905560a0820151600582019061096b90826129af565b5060c0820151600682019061098090826129af565b50905050856001600160a01b0316600b547fa20fca61f544dd09616fe8358d5bbc745765b857580ca1343f8c7e9bf6311f818787866040516109c493929190612a6f565b60405180910390a3600b80549060006109dc83612a9a565b9190505550505050505050565b6060600380546109f890612927565b80601f0160208091040260200160405190810160405280929190818152602001828054610a2490612927565b8015610a715780601f10610a4657610100808354040283529160200191610a71565b820191906000526020600020905b815481529060010190602001808311610a5457829003601f168201915b5050505050905090565b600033610a89818585611d96565b5060019392505050565b600080516020612c1f833981519152610aab81611c44565b600b548210610af25760405162461bcd60e51b8152602060048201526013602482015272125b9d985b1a5908191bdb985d1a5bdb881a59606a1b604482015260640161074f565b6000828152600a6020526040808220600401805460ff1916600117905551339184917fd0ae5b857930aff0673411216c2a768bd07482bc9699547701fdac589e8fa4359190a35050565b600e8181548110610b4c57600080fd5b906000526020600020016000915090508054610b6790612927565b80601f0160208091040260200160405190810160405280929190818152602001828054610b9390612927565b8015610be05780601f10610bb557610100808354040283529160200191610be0565b820191906000526020600020905b815481529060010190602001808311610bc357829003601f168201915b505050505081565b600033610bf6858285611da3565b610c01858585611e1c565b506001949350505050565b600c6020528160005260406000208181548110610c2857600080fd5b6000918252602090912001546001600160a01b03169150829050565b600082815260066020526040902060010154610c5f81611c44565b610c698383611e7b565b50505050565b610c87600080516020612c1f833981519152336112f3565b80610cb45750336001600160a01b038316148015610cb457503360009081526007602052604090205460ff165b610cf15760405162461bcd60e51b815260206004820152600e60248201526d139bdd08185d5d1a1bdc9a5e995960921b604482015260640161074f565b6001600160a01b03821615801590610d1157506001600160a01b03811615155b610d2d5760405162461bcd60e51b815260040161074f90612ab3565b6001600160a01b0382166000908152600c60205260408120905b8154811015610de057826001600160a01b0316828281548110610d6c57610d6c612adc565b6000918252602090912001546001600160a01b031603610dce5760405162461bcd60e51b815260206004820152601f60248201527f52656c69656620706172746e657220616c72656164792061737369676e656400604482015260640161074f565b80610dd881612a9a565b915050610d47565b506001600160a01b038381166000818152600c60209081526040808320805460018101825590845291832090910180546001600160a01b0319169487169485179055517f7ba3715b8126554030aeda94892a4aa884728dce4c8e88c0a9489fca76b30ca99190a3505050565b60008181526008602052604081208054600182015460028301546004840154600385018054879687966060968896889693956001600160a01b03938416959390921693909260058701908390610ea190612927565b80601f0160208091040260200160405190810160405280929190818152602001828054610ecd90612927565b8015610f1a5780601f10610eef57610100808354040283529160200191610f1a565b820191906000526020600020905b815481529060010190602001808311610efd57829003601f168201915b50505050509250808054610f2d90612927565b80601f0160208091040260200160405190810160405280929190818152602001828054610f5990612927565b8015610fa65780601f10610f7b57610100808354040283529160200191610fa6565b820191906000526020600020905b815481529060010190602001808311610f8957829003601f168201915b505050505090509650965096509650965096505091939550919395565b6001600160a01b0381163314610fec5760405163334bd91960e11b815260040160405180910390fd5b610ff68282611f0f565b505050565b600080516020612c1f83398151915261101381611c44565b6001600160a01b03821660009081526007602052604090205460ff1661106f5760405162461bcd60e51b81526020600482015260116024820152704e6f7420612062656e656669636961727960781b604482015260640161074f565b6001600160a01b038216600081815260076020526040808220805460ff19169055517f72977dad29432f655f11c2f0e72ef5124bb9ade7a512fb7a43a9f504df2234289190a25050565b600084116111095760405162461bcd60e51b815260206004820152601d60248201527f416d6f756e74206d7573742062652067726561746572207468616e2030000000604482015260640161074f565b6040805160e081018252338152602080820187815282840187815242606085015260016080850181905260a0850188905260c08501879052600b546000908152600a90945294909220835181546001600160a01b0319166001600160a01b0390911617815590519381019390935551909190600282019061118a90826129af565b5060608201516003820155608082015160048201805460ff191691151591909117905560a082015160058201906111c190826129af565b5060c082015160068201906111d690826129af565b5050600b546040513392507fa20fca61f544dd09616fe8358d5bbc745765b857580ca1343f8c7e9bf6311f819061121290889088908790612a6f565b60405180910390a3600b805490600061122a83612a9a565b919050555050505050565b600080516020612c1f83398151915261124d81611c44565b611265600080516020612bff83398151915283611992565b5050565b611271611f7c565b61127b6000611fa9565b565b6001600160a01b0381166000908152600c60209081526040918290208054835181840281018401909452808452606093928301828280156112e757602002820191906000526020600020905b81546001600160a01b031681526001909101906020018083116112c9575b50505050509050919050565b60009182526006602090815260408084206001600160a01b0393909316845291905290205460ff1690565b6060600480546109f890612927565b60086020526000908152604090208054600182015460028301546003840180546001600160a01b03948516959490931693919261136990612927565b80601f016020809104026020016040519081016040528092919081815260200182805461139590612927565b80156113e25780601f106113b7576101008083540402835291602001916113e2565b820191906000526020600020905b8154815290600101906020018083116113c557829003601f168201915b5050505050908060040154908060050180546113fd90612927565b80601f016020809104026020016040519081016040528092919081815260200182805461142990612927565b80156114765780601f1061144b57610100808354040283529160200191611476565b820191906000526020600020905b81548152906001019060200180831161145957829003601f168201915b5050505050905086565b600080516020612c1f83398151915261149881611c44565b6001600160a01b0382166114be5760405162461bcd60e51b815260040161074f90612ab3565b611265600080516020612bff83398151915283610c44565b600d81815481106114e657600080fd5b6000918252602090912001546001600160a01b0316905081565b600033610a89818585611e1c565b600080516020612c1f83398151915261152681611c44565b6001600160a01b03841661154c5760405162461bcd60e51b815260040161074f90612ab3565b81518351146115965760405162461bcd60e51b8152602060048201526016602482015275082e4e4c2f2e640d8cadccee8d040dad2e6dac2e8c6d60531b604482015260640161074f565b6001600160a01b0384166000908152600760205260409020805460ff1661160d578054600160ff1990911681178255600d805491820181556000527fd7b6990105719101dabeb77144f2a3385c8033acd3af97e9423a695e81ad1eb50180546001600160a01b0319166001600160a01b0387161790555b60005b84518110156116805783818151811061162b5761162b612adc565b60200260200101518260020186838151811061164957611649612adc565b602002602001015160405161165e9190612af2565b908152604051908190036020019020558061167881612a9a565b915050611610565b50846001600160a01b03167f01f1d862a00ecaa68b11ac05239f5aa7b1528c2ee427aee14aca0083c6909d3385856040516116bc929190612b0e565b60405180910390a25050505050565b600d5460009082106117155760405162461bcd60e51b8152602060048201526013602482015272496e646578206f7574206f6620626f756e647360681b604482015260640161074f565b600d828154811061172857611728612adc565b6000918252602090912001546001600160a01b031692915050565b33600081815260076020526040812054909160ff90911690829061177690600080516020612bff833981519152906112f3565b905081806117815750805b6117db5760405162461bcd60e51b815260206004820152602560248201527f4e6f7420617574686f72697a656420746f207370656e6420776974682063617460448201526465676f727960d81b606482015260840161074f565b81156118f95733600090815260076020526040908190209051600290910190611805908690612af2565b9081526020016040518091039020548560076000336001600160a01b03166001600160a01b031681526020019081526020016000206003018660405161184b9190612af2565b90815260200160405180910390205461186491906128f3565b11156118b25760405162461bcd60e51b815260206004820152601760248201527f43617465676f7279206c696d6974206578636565646564000000000000000000604482015260640161074f565b336000908152600760205260409081902090518691600301906118d6908790612af2565b908152602001604051809103902060008282546118f391906128f3565b90915550505b61193b338787876040518060400160405280601781526020017f43617465676f72792d6261736564207472616e73666572000000000000000000815250611c84565b336001600160a01b03167fcfbc2b064e4fe80c5e4495fcbea14e2354aa4da6c86f65666899fde522846feb8587604051611976929190612ba9565b60405180910390a26119888686611500565b9695505050505050565b6000828152600660205260409020600101546119ad81611c44565b610c698383611f0f565b6001600160a01b038216600090815260076020526040808220905182919060038201906119e5908690612af2565b9081526020016040518091039020548160020185604051611a069190612af2565b90815260200160405180910390205492509250509250929050565b611a29611f7c565b6001600160a01b038116611a5357604051631e4fbdf760e01b81526000600482015260240161074f565b611a5c81611fa9565b50565b600a602052600090815260409020805460018201546002830180546001600160a01b03909316939192611a9190612927565b80601f0160208091040260200160405190810160405280929190818152602001828054611abd90612927565b8015611b0a5780601f10611adf57610100808354040283529160200191611b0a565b820191906000526020600020905b815481529060010190602001808311611aed57829003601f168201915b50505050600383015460048401546005850180549495929460ff909216935090611b3390612927565b80601f0160208091040260200160405190810160405280929190818152602001828054611b5f90612927565b8015611bac5780601f10611b8157610100808354040283529160200191611bac565b820191906000526020600020905b815481529060010190602001808311611b8f57829003601f168201915b505050505090806006018054611bc190612927565b80601f0160208091040260200160405190810160405280929190818152602001828054611bed90612927565b8015611c3a5780601f10611c0f57610100808354040283529160200191611c3a565b820191906000526020600020905b815481529060010190602001808311611c1d57829003601f168201915b5050505050905087565b611a5c8133611ffb565b6001600160a01b038216611c785760405163ec442f0560e01b81526000600482015260240161074f565b61126560008383612034565b6040805160c0810182526001600160a01b03808816825286811660208084019182528385018881526060850188815242608087015260a086018890526009546000908152600890935295909120845181549085166001600160a01b03199182161782559251600182018054919095169316929092179092559051600282015591519091906003820190611d1790826129af565b506080820151600482015560a08201516005820190611d3690826129af565b509050506009547f95b08f0cc03d1a6dcfbc3b6a35813240cc3d47678b7bff83a4fd947258d7587786868686604051611d729493929190612bcb565b60405180910390a260098054906000611d8a83612a9a565b91905055505050505050565b610ff6838383600161215e565b6001600160a01b03838116600090815260016020908152604080832093861683529290522054600019811015610c695781811015611e0d57604051637dc7a0d960e11b81526001600160a01b0384166004820152602481018290526044810183905260640161074f565b610c698484848403600061215e565b6001600160a01b038316611e4657604051634b637e8f60e11b81526000600482015260240161074f565b6001600160a01b038216611e705760405163ec442f0560e01b81526000600482015260240161074f565b610ff6838383612034565b6000611e8783836112f3565b611f075760008381526006602090815260408083206001600160a01b03861684529091529020805460ff19166001179055611ebf3390565b6001600160a01b0316826001600160a01b0316847f2f8788117e7eff1d82e926ec794901d17c78024a50270940304540a733656f0d60405160405180910390a4506001610896565b506000610896565b6000611f1b83836112f3565b15611f075760008381526006602090815260408083206001600160a01b0386168085529252808320805460ff1916905551339286917ff6391f5c32d9c69d2a47ea670b442974b53935d1edc7fd64eb21e047a839171b9190a4506001610896565b6005546001600160a01b0316331461127b5760405163118cdaa760e01b815233600482015260240161074f565b600580546001600160a01b038381166001600160a01b0319831681179093556040519116919082907f8be0079c531659141344cd1fd0a4f28419497f9722a3daafe3b4186f6b6457e090600090a35050565b61200582826112f3565b6112655760405163e2517d3f60e01b81526001600160a01b03821660048201526024810183905260440161074f565b6001600160a01b03831661205f57806002600082825461205491906128f3565b909155506120d19050565b6001600160a01b038316600090815260208190526040902054818110156120b25760405163391434e360e21b81526001600160a01b0385166004820152602481018290526044810183905260640161074f565b6001600160a01b03841660009081526020819052604090209082900390555b6001600160a01b0382166120ed5760028054829003905561210c565b6001600160a01b03821660009081526020819052604090208054820190555b816001600160a01b0316836001600160a01b03167fddf252ad1be2c89b69c2b068fc378daa952ba7f163c4a11628f55a4df523b3ef8360405161215191815260200190565b60405180910390a3505050565b6001600160a01b0384166121885760405163e602df0560e01b81526000600482015260240161074f565b6001600160a01b0383166121b257604051634a1406b160e11b81526000600482015260240161074f565b6001600160a01b0380851660009081526001602090815260408083209387168352929052208290558015610c6957826001600160a01b0316846001600160a01b03167f8c5be1e5ebec7d5bd14f71427d1e84f3dd0314c0f7b2291e5b200ac8c7c3b9258460405161222591815260200190565b60405180910390a350505050565b80356001600160a01b038116811461224a57600080fd5b919050565b60006020828403121561226157600080fd5b61226a82612233565b9392505050565b634e487b7160e01b600052604160045260246000fd5b604051601f8201601f1916810167ffffffffffffffff811182821017156122b0576122b0612271565b604052919050565b600082601f8301126122c957600080fd5b813567ffffffffffffffff8111156122e3576122e3612271565b6122f6601f8201601f1916602001612287565b81815284602083860101111561230b57600080fd5b816020850160208301376000918101602001919091529392505050565b60008060006060848603121561233d57600080fd5b61234684612233565b925060208401359150604084013567ffffffffffffffff81111561236957600080fd5b612375868287016122b8565b9150509250925092565b60006020828403121561239157600080fd5b81356001600160e01b03198116811461226a57600080fd5b600080600080600060a086880312156123c157600080fd5b6123ca86612233565b945060208601359350604086013567ffffffffffffffff808211156123ee57600080fd5b6123fa89838a016122b8565b9450606088013591508082111561241057600080fd5b61241c89838a016122b8565b9350608088013591508082111561243257600080fd5b5061243f888289016122b8565b9150509295509295909350565b60005b8381101561246757818101518382015260200161244f565b50506000910152565b6000815180845261248881602086016020860161244c565b601f01601f19169290920160200192915050565b60208152600061226a6020830184612470565b600080604083850312156124c257600080fd5b6124cb83612233565b946020939093013593505050565b6000602082840312156124eb57600080fd5b5035919050565b60008060006060848603121561250757600080fd5b61251084612233565b925061251e60208501612233565b9150604084013590509250925092565b6000806040838503121561254157600080fd5b8235915061255160208401612233565b90509250929050565b6000806040838503121561256d57600080fd5b61257683612233565b915061255160208401612233565b6001600160a01b038781168252861660208201526040810185905260c0606082018190526000906125b790830186612470565b84608084015282810360a08401526125cf8185612470565b9998505050505050505050565b600080600080608085870312156125f257600080fd5b84359350602085013567ffffffffffffffff8082111561261157600080fd5b61261d888389016122b8565b9450604087013591508082111561263357600080fd5b61263f888389016122b8565b9350606087013591508082111561265557600080fd5b50612662878288016122b8565b91505092959194509250565b6020808252825182820181905260009190848201906040850190845b818110156126af5783516001600160a01b03168352928401929184019160010161268a565b50909695505050505050565b600067ffffffffffffffff8211156126d5576126d5612271565b5060051b60200190565b600082601f8301126126f057600080fd5b81356020612705612700836126bb565b612287565b82815260059290921b8401810191818101908684111561272457600080fd5b8286015b8481101561273f5780358352918301918301612728565b509695505050505050565b60008060006060848603121561275f57600080fd5b61276884612233565b925060208085013567ffffffffffffffff8082111561278657600080fd5b818701915087601f83011261279a57600080fd5b81356127a8612700826126bb565b81815260059190911b8301840190848101908a8311156127c757600080fd5b8585015b838110156127ff578035858111156127e35760008081fd5b6127f18d89838a01016122b8565b8452509186019186016127cb565b5096505050604087013592508083111561281857600080fd5b5050612375868287016126df565b6000806040838503121561283957600080fd5b61284283612233565b9150602083013567ffffffffffffffff81111561285e57600080fd5b61286a858286016122b8565b9150509250929050565b60018060a01b038816815286602082015260e06040820152600061289b60e0830188612470565b866060840152851515608084015282810360a08401526128bb8186612470565b905082810360c08401526128cf8185612470565b9a9950505050505050505050565b634e487b7160e01b600052601160045260246000fd5b80820180821115610896576108966128dd565b82815260406020820152600061291f6040830184612470565b949350505050565b600181811c9082168061293b57607f821691505b60208210810361295b57634e487b7160e01b600052602260045260246000fd5b50919050565b601f821115610ff657600081815260208120601f850160051c810160208610156129885750805b601f850160051c820191505b818110156129a757828155600101612994565b505050505050565b815167ffffffffffffffff8111156129c9576129c9612271565b6129dd816129d78454612927565b84612961565b602080601f831160018114612a1257600084156129fa5750858301515b600019600386901b1c1916600185901b1785556129a7565b600085815260208120601f198616915b82811015612a4157888601518255948401946001909101908401612a22565b5085821015612a5f5787850151600019600388901b60f8161c191681555b5050505050600190811b01905550565b838152606060208201526000612a886060830185612470565b82810360408401526119888185612470565b600060018201612aac57612aac6128dd565b5060010190565b6020808252600f908201526e496e76616c6964206164647265737360881b604082015260600190565b634e487b7160e01b600052603260045260246000fd5b60008251612b0481846020870161244c565b9190910192915050565b6000604082016040835280855180835260608501915060608160051b8601019250602080880160005b83811015612b6557605f19888703018552612b53868351612470565b95509382019390820190600101612b37565b50508584038187015286518085528782019482019350915060005b82811015612b9c57845184529381019392810192600101612b80565b5091979650505050505050565b604081526000612bbc6040830185612470565b90508260208301529392505050565b6001600160a01b03858116825284166020820152604081018390526080606082018190526000906119889083018461247056fe1a7ca3683258d2e65f045eaacdfad1b350babe3a067c36cac1f329ee9ac0138fa49807205ce4d355092ef5a8a18f56e8913cf4a201fbe287825b095693c21775a2646970667358221220b96f79c3364664cf6b3af826f531611179cea6856cf390084711b69a6cc6897f64736f6c63430008140033bb7b4a454dc3493923482f07822329ed19e8244eff582cc204f8554c3620c3fd",
  "linkReferences": {},
  "deployedLinkReferences": {}
}