{
  "_format": "hh-sol-artifact-1",
  "contractName": "ReliefToken",
  "sourceName": "ReliefToken.sol",
  "abi": [
    {
      "inputs": [
        {
          "internalType": "string",
          "name": "name",
          "type": "string"
        },
        {
          "internalType": "string",
          "name": "symbol",
          "type": "string"
        },
        {
          "internalType": "address",
          "name": "initialOwner",
          "type": "address"
        }
      ],
      "stateMutability": "nonpayable",
      "type": "constructor"
    },
    {
      "inputs": [
        {
          "internalType": "address",
          "name": "spender",
          "type": "address"
        },
        {
          "internalType": "uint256",
          "name": "allowance",
          "type": "uint256"
        },
        {
          "internalType": "uint256",
          "name": "needed",
          "type": "uint256"
        }
      ],
      "name": "ERC20InsufficientAllowance",
      "type": "error"
    },
    {
      "inputs": [
        {
          "internalType": "address",
          "name": "sender",
          "type": "address"
        },
        {
          "internalType": "uint256",
          "name": "balance",
          "type": "uint256"
        },
        {
          "internalType": "uint256",
          "name": "needed",
          "type": "uint256"
        }
      ],
      "name": "ERC20InsufficientBalance",
      "type": "error"
    },
    {
      "inputs": [
        {
          "internalType": "address",
          "name": "approver",
          "type": "address"
        }
      ],
      "name": "ERC20InvalidApprover",
      "type": "error"
    },
    {
      "inputs": [
        {
          "internalType": "address",
          "name": "receiver",
          "type": "address"
        }
      ],
      "name": "ERC20InvalidReceiver",
      "type": "error"
    },
    {
      "inputs": [
        {
          "internalType": "address",
          "name": "sender",
          "type": "address"
        }
      ],
      "name": "ERC20InvalidSender",
      "type": "error"
    },
    {
      "inputs": [
        {
          "internalType": "address",
          "name": "spender",
          "type": "address"
        }
      ],
      "name": "ERC20InvalidSpender",
      "type": "error"
    },
    {
      "inputs": [
        {
          "internalType": "address",
          "name": "owner",
          "type": "address"
        }
      ],
      "name": "OwnableInvalidOwner",
      "type": "error"
    },
    {
      "inputs": [
        {
          "internalType": "address",
          "name": "account",
          "type": "address"
        }
      ],
      "name": "OwnableUnauthorizedAccount",
      "type": "error"
    },
    {
      "anonymous": false,
      "inputs": [
        {
          "indexed": true,
          "internalType": "address",
          "name": "owner",
          "type": "address"
        },
        {
          "indexed": true,
          "internalType": "address",
          "name": "spender",
          "type": "address"
        },
        {
          "indexed": false,
          "internalType": "uint256",
          "name": "value",
          "type": "uint256"
        }
      ],
      "name": "Approval",
      "type": "event"
    },
    {
      "anonymous": false,
      "inputs": [
        {
          "indexed": true,
          "internalType": "address",
          "name": "beneficiary",
          "type": "address"
        }
      ],
      "name": "BeneficiaryRemoved",
      "type": "event"
    },
    {
      "anonymous": false,
      "inputs": [
        {
          "indexed": true,
          "internalType": "address",
          "name": "beneficiary",
          "type": "address"
        },
        {
          "indexed": false,
          "internalType": "string[]",
          "name": "categories",
          "type": "string[]"
        },
        {
          "indexed": false,
          "internalType": "uint256[]",
          "name": "limits",
          "type": "uint256[]"
        }
      ],
      "name": "BeneficiaryWhitelisted",
      "type": "event"
    },
    {
      "anonymous": false,
      "inputs": [
        {
          "indexed": true,
          "internalType": "address",
          "name": "beneficiary",
          "type": "address"
        },
        {
          "indexed": false,
          "internalType": "string",
          "name": "category",
          "type": "string"
        },
        {
          "indexed": false,
          "internalType": "uint256",
          "name": "amount",
          "type": "uint256"
        }
      ],
      "name": "CategorySpent",
      "type": "event"
    },
    {
      "anonymous": false,
      "inputs": [
        {
          "indexed": true,
          "internalType": "address",
          "name": "previousOwner",
          "type": "address"
        },
        {
          "indexed": true,
          "internalType": "address",
          "name": "newOwner",
          "type": "address"
        }
      ],
      "name": "OwnershipTransferred",
      "type": "event"
    },
    {
      "anonymous": false,
      "inputs": [
        {
          "indexed": true,
          "internalType": "address",
          "name": "to",
          "type": "address"
        },
        {
          "indexed": false,
          "internalType": "uint256",
          "name": "amount",
          "type": "uint256"
        },
        {
          "indexed": false,
          "internalType": "string",
          "name": "category",
          "type": "string"
        }
      ],
      "name": "ReliefDistributed",
      "type": "event"
    },
    {
      "anonymous": false,
      "inputs": [
        {
          "indexed": true,
          "internalType": "uint256",
          "name": "txId",
          "type": "uint256"
        },
        {
          "indexed": false,
          "internalType": "address",
          "name": "from",
          "type": "address"
        },
        {
          "indexed": false,
          "internalType": "address",
          "name": "to",
          "type": "address"
        },
        {
          "indexed": false,
          "internalType": "uint256",
          "name": "amount",
          "type": "uint256"
        },
        {
          "indexed": false,
          "internalType": "string",
          "name": "category",
          "type": "string"
        }
      ],
      "name": "TransactionRecorded",
      "type": "event"
    },
    {
      "anonymous": false,
      "inputs": [
        {
          "indexed": true,
          "internalType": "address",
          "name": "from",
          "type": "address"
        },
        {
          "indexed": true,
          "internalType": "address",
          "name": "to",
          "type": "address"
        },
        {
          "indexed": false,
          "internalType": "uint256",
          "name": "value",
          "type": "uint256"
        }
      ],
      "name": "Transfer",
      "type": "event"
    },
    {
      "inputs": [
        {
          "internalType": "address",
          "name": "owner",
          "type": "address"
        },
        {
          "internalType": "address",
          "name": "spender",
          "type": "address"
        }
      ],
      "name": "allowance",
      "outputs": [
        {
          "internalType": "uint256",
          "name": "",
          "type": "uint256"
        }
      ],
      "stateMutability": "view",
      "type": "function"
    },
    {
      "inputs": [
        {
          "internalType": "uint256",
          "name": "",
          "type": "uint256"
        }
      ],
      "name": "allowedCategories",
      "outputs": [
        {
          "internalType": "string",
          "name": "",
          "type": "string"
        }
      ],
      "stateMutability": "view",
      "type": "function"
    },
    {
      "inputs": [
        {
          "internalType": "address",
          "name": "spender",
          "type": "address"
        },
        {
          "internalType": "uint256",
          "name": "value",
          "type": "uint256"
        }
      ],
      "name": "approve",
      "outputs": [
        {
          "internalType": "bool",
          "name": "",
          "type": "bool"
        }
      ],
      "stateMutability": "nonpayable",
      "type": "function"
    },
    {
      "inputs": [
        {
          "internalType": "address",
          "name": "account",
          "type": "address"
        }
      ],
      "name": "balanceOf",
      "outputs": [
        {
          "internalType": "uint256",
          "name": "",
          "type": "uint256"
        }
      ],
      "stateMutability": "view",
      "type": "function"
    },
    {
      "inputs": [
        {
          "internalType": "address",
          "name": "",
          "type": "address"
        }
      ],
      "name": "beneficiaries",
      "outputs": [
        {
          "internalType": "bool",
          "name": "isWhitelisted",
          "type": "bool"
        },
        {
          "internalType": "uint256",
          "name": "totalReceived",
          "type": "uint256"
        }
      ],
      "stateMutability": "view",
      "type": "function"
    },
    {
      "inputs": [
        {
          "internalType": "uint256",
          "name": "",
          "type": "uint256"
        }
      ],
      "name": "beneficiaryList",
      "outputs": [
        {
          "internalType": "address",
          "name": "",
          "type": "address"
        }
      ],
      "stateMutability": "view",
      "type": "function"
    },
    {
      "inputs": [],
      "name": "decimals",
      "outputs": [
        {
          "internalType": "uint8",
          "name": "",
          "type": "uint8"
        }
      ],
      "stateMutability": "view",
      "type": "function"
    },
    {
      "inputs": [
        {
          "internalType": "address",
          "name": "to",
          "type": "address"
        },
        {
          "internalType": "uint256",
          "name": "amount",
          "type": "uint256"
        },
        {
          "internalType": "string",
          "name": "category",
          "type": "string"
        }
      ],
      "name": "distributeRelief",
      "outputs": [],
      "stateMutability": "nonpayable",
      "type": "function"
    },
    {
      "inputs": [
        {
          "internalType": "uint256",
          "name": "index",
          "type": "uint256"
        }
      ],
      "name": "getBeneficiaryAt",
      "outputs": [
        {
          "internalType": "address",
          "name": "",
          "type": "address"
        }
      ],
      "stateMutability": "view",
      "type": "function"
    },
    {
      "inputs": [],
      "name": "getBeneficiaryCount",
      "outputs": [
        {
          "internalType": "uint256",
          "name": "",
          "type": "uint256"
        }
      ],
      "stateMutability": "view",
      "type": "function"
    },
    {
      "inputs": [
        {
          "internalType": "address",
          "name": "beneficiary",
          "type": "address"
        },
        {
          "internalType": "string",
          "name": "category",
          "type": "string"
        }
      ],
      "name": "getCategorySpending",
      "outputs": [
        {
          "internalType": "uint256",
          "name": "spent",
          "type": "uint256"
        },
        {
          "internalType": "uint256",
          "name": "limit",
          "type": "uint256"
        }
      ],
      "stateMutability": "view",
      "type": "function"
    },
    {
      "inputs": [
        {
          "internalType": "uint256",
          "name": "txId",
          "type": "uint256"
        }
      ],
      "name": "getTransaction",
      "outputs": [
        {
          "internalType": "address",
          "name": "from",
          "type": "address"
        },
        {
          "internalType": "address",
          "name": "to",
          "type": "address"
        },
        {
          "internalType": "uint256",
          "name": "amount",
          "type": "uint256"
        },
        {
          "internalType": "string",
          "name": "category",
          "type": "string"
        },
        {
          "internalType": "uint256",
          "name": "timestamp",
          "type": "uint256"
        },
        {
          "internalType": "string",
          "name": "description",
          "type": "string"
        }
      ],
      "stateMutability": "view",
      "type": "function"
    },
    {
      "inputs": [],
      "name": "name",
      "outputs": [
        {
          "internalType": "string",
          "name": "",
          "type": "string"
        }
      ],
      "stateMutability": "view",
      "type": "function"
    },
    {
      "inputs": [],
      "name": "owner",
      "outputs": [
        {
          "internalType": "address",
          "name": "",
          "type": "address"
        }
      ],
      "stateMutability": "view",
      "type": "function"
    },
    {
      "inputs": [
        {
          "internalType": "address",
          "name": "beneficiary",
          "type": "address"
        }
      ],
      "name": "removeBeneficiary",
      "outputs": [],
      "stateMutability": "nonpayable",
      "type": "function"
    },
    {
      "inputs": [],
      "name": "renounceOwnership",
      "outputs": [],
      "stateMutability": "nonpayable",
      "type": "function"
    },
    {
      "inputs": [],
      "name": "symbol",
      "outputs": [
        {
          "internalType": "string",
          "name": "",
          "type": "string"
        }
      ],
      "stateMutability": "view",
      "type": "function"
    },
    {
      "inputs": [],
      "name": "totalSupply",
      "outputs": [
        {
          "internalType": "uint256",
          "name": "",
          "type": "uint256"
        }
      ],
      "stateMutability": "view",
      "type": "function"
    },
    {
      "inputs": [],
      "name": "transactionCount",
      "outputs": [
        {
          "internalType": "uint256",
          "name": "",
          "type": "uint256"
        }
      ],
      "stateMutability": "view",
      "type": "function"
    },
    {
      "inputs": [
        {
          "internalType": "uint256",
          "name": "",
          "type": "uint256"
        }
      ],
      "name": "transactions",
      "outputs": [
        {
          "internalType": "address",
          "name": "from",
          "type": "address"
        },
        {
          "internalType": "address",
          "name": "to",
          "type": "address"
        },
        {
          "internalType": "uint256",
          "name": "amount",
          "type": "uint256"
        },
        {
          "internalType": "string",
          "name": "category",
          "type": "string"
        },
        {
          "internalType": "uint256",
          "name": "timestamp",
          "type": "uint256"
        },
        {
          "internalType": "string",
          "name": "description",
          "type": "string"
        }
      ],
      "stateMutability": "view",
      "type": "function"
    },
    {
      "inputs": [
        {
          "internalType": "address",
          "name": "to",
          "type": "address"
        },
        {
          "internalType": "uint256",
          "name": "value",
          "type": "uint256"
        }
      ],
      "name": "transfer",
      "outputs": [
        {
          "internalType": "bool",
          "name": "",
          "type": "bool"
        }
      ],
      "stateMutability": "nonpayable",
      "type": "function"
    },
    {
      "inputs": [
        {
          "internalType": "address",
          "name": "from",
          "type": "address"
        },
        {
          "internalType": "address",
          "name": "to",
          "type": "address"
        },
        {
          "internalType": "uint256",
          "name": "value",
          "type": "uint256"
        }
      ],
      "name": "transferFrom",
      "outputs": [
        {
          "internalType": "bool",
          "name": "",
          "type": "bool"
        }
      ],
      "stateMutability": "nonpayable",
      "type": "function"
    },
    {
      "inputs": [
        {
          "internalType": "address",
          "name": "newOwner",
          "type": "address"
        }
      ],
      "name": "transferOwnership",
      "outputs": [],
      "stateMutability": "nonpayable",
      "type": "function"
    },
    {
      "inputs": [
        {
          "internalType": "address",
          "name": "to",
          "type": "address"
        },
        {
          "internalType": "uint256",
          "name": "amount",
          "type": "uint256"
        },
        {
          "internalType": "string",
          "name": "category",
          "type": "string"
        }
      ],
      "name": "transferWithCategory",
      "outputs": [
        {
          "internalType": "bool",
          "name": "",
          "type": "bool"
        }
      ],
      "stateMutability": "nonpayable",
      "type": "function"
    },
    {
      "inputs": [
        {
          "internalType": "address",
          "name": "beneficiary",
          "type": "address"
        },
        {
          "internalType": "string[]",
          "name": "categories",
          "type": "string[]"
        },
        {
          "internalType": "uint256[]",
          "name": "limits",
          "type": "uint256[]"
        }
      ],
      "name": "whitelistBeneficiary",
      "outputs": [],
      "stateMutability": "nonpayable",
      "type": "function"
    }
  ],
  "bytecode": "0x60806040523480156200001157600080fd5b50604051620021283803806200212883398101604081905262000034916200033d565b808383600362000045838262000459565b50600462000054828262000459565b5050506001600160a01b0381166200008657604051631e4fbdf760e01b81526000600482015260240160405180910390fd5b620000918162000226565b50600a8054600181018255600091909152604080518082019091526004815263199bdbd960e21b60208201526000805160206200210883398151915290910190620000dd908262000459565b50600a805460018101825560009190915260408051808201909152600781526639b432b63a32b960c91b602082015260008051602062002108833981519152909101906200012c908262000459565b50600a80546001810182556000919091526040805180820190915260078152661b59591a58d85b60ca1b602082015260008051602062002108833981519152909101906200017b908262000459565b50600a8054600181018255600091909152604080518082019091526008815267636c6f7468696e6760c01b60208201526000805160206200210883398151915290910190620001cb908262000459565b50600a80546001810182556000919091526040805180820190915260098152687574696c697469657360b81b602082015260008051602062002108833981519152909101906200021c908262000459565b5050505062000525565b600580546001600160a01b038381166001600160a01b0319831681179093556040519116919082907f8be0079c531659141344cd1fd0a4f28419497f9722a3daafe3b4186f6b6457e090600090a35050565b634e487b7160e01b600052604160045260246000fd5b600082601f830112620002a057600080fd5b81516001600160401b0380821115620002bd57620002bd62000278565b604051601f8301601f19908116603f01168101908282118183101715620002e857620002e862000278565b816040528381526020925086838588010111156200030557600080fd5b600091505b838210156200032957858201830151818301840152908201906200030a565b600093810190920192909252949350505050565b6000806000606084860312156200035357600080fd5b83516001600160401b03808211156200036b57600080fd5b62000379878388016200028e565b945060208601519150808211156200039057600080fd5b506200039f868287016200028e565b604086015190935090506001600160a01b0381168114620003bf57600080fd5b809150509250925092565b600181811c90821680620003df57607f821691505b6020821081036200040057634e487b7160e01b600052602260045260246000fd5b50919050565b601f8211156200045457600081815260208120601f850160051c810160208610156200042f5750805b601f850160051c820191505b8181101562000450578281556001016200043b565b5050505b505050565b81516001600160401b0381111562000475576200047562000278565b6200048d81620004868454620003ca565b8462000406565b602080601f831160018114620004c55760008415620004ac5750858301515b600019600386901b1c1916600185901b17855562000450565b600085815260208120601f198616915b82811015620004f657888601518255948401946001909101908401620004d5565b5085821015620005155787850151600019600388901b60f8161c191681555b5050505050600190811b01905550565b611bd380620005356000396000f3fe608060405234801561001057600080fd5b50600436106101735760003560e01c80638da5cb5b116100de578063b681218211610097578063b881050111610071578063b88105011461035b578063dd62ed3e1461036e578063e9f6ab25146103a7578063f2fde38b146103cf57600080fd5b8063b68121821461032c578063b6e8d2e21461033f578063b77bf6001461035257600080fd5b80638da5cb5b146102be57806395d89b41146102e35780639a6e7fd1146102eb5780639ace38c2146102f35780639e761bbb14610306578063a9059cbb1461031957600080fd5b806323b872dd1161013057806323b872dd14610233578063313ce5671461024657806333ea3dc81461025557806359633a1c1461027a57806370a082311461028d578063715018a6146102b657600080fd5b8063015677391461017857806301865c93146101c157806306fdde03146101d6578063095ea7b3146101eb578063140d87131461020e57806318160ddd14610221575b600080fd5b6101a5610186366004611478565b6006602052600090815260409020805460019091015460ff9091169082565b6040805192151583526020830191909152015b60405180910390f35b6101d46101cf366004611551565b6103e2565b005b6101de610563565b6040516101b891906115f8565b6101fe6101f936600461160b565b6105f5565b60405190151581526020016101b8565b6101de61021c366004611635565b61060f565b6002545b6040519081526020016101b8565b6101fe61024136600461164e565b6106bb565b604051601281526020016101b8565b610268610263366004611635565b6106df565b6040516101b89695949392919061168a565b6101d4610288366004611478565b610856565b61022561029b366004611478565b6001600160a01b031660009081526020819052604090205490565b6101d4610903565b6005546001600160a01b03165b6040516001600160a01b0390911681526020016101b8565b6101de610917565b600954610225565b610268610301366004611635565b610926565b6102cb610314366004611635565b610a79565b6101fe61032736600461160b565b610aa3565b6101d461033a366004611771565b610ab1565b6102cb61034d366004611635565b610c7f565b61022560085481565b6101fe610369366004611551565b610cf7565b61022561037c36600461184d565b6001600160a01b03918216600090815260016020908152604080832093909416825291909152205490565b6103ba6103b5366004611880565b610efa565b604080519283526020830191909152016101b8565b6101d46103dd366004611478565b610f64565b6103ea610fa2565b6001600160a01b03831660009081526006602052604090205460ff166104575760405162461bcd60e51b815260206004820152601b60248201527f42656e6566696369617279206e6f742077686974656c6973746564000000000060448201526064015b60405180910390fd5b600082116104a75760405162461bcd60e51b815260206004820152601d60248201527f416d6f756e74206d7573742062652067726561746572207468616e2030000000604482015260640161044e565b6104b18383610fcf565b6001600160a01b038316600090815260066020526040812060010180548492906104dc9084906118e4565b9250508190555061051b33848484604051806040016040528060138152602001722932b634b2b3103234b9ba3934b13aba34b7b760691b815250611009565b826001600160a01b03167f166dba3d0155c9d457d63e1e4753b4562af4286352d0a599aed506a87e0b28ea83836040516105569291906118f7565b60405180910390a2505050565b60606003805461057290611910565b80601f016020809104026020016040519081016040528092919081815260200182805461059e90611910565b80156105eb5780601f106105c0576101008083540402835291602001916105eb565b820191906000526020600020905b8154815290600101906020018083116105ce57829003601f168201915b5050505050905090565b60003361060381858561111b565b60019150505b92915050565b600a818154811061061f57600080fd5b90600052602060002001600091509050805461063a90611910565b80601f016020809104026020016040519081016040528092919081815260200182805461066690611910565b80156106b35780601f10610688576101008083540402835291602001916106b3565b820191906000526020600020905b81548152906001019060200180831161069657829003601f168201915b505050505081565b6000336106c985828561112d565b6106d48585856111ac565b506001949350505050565b60008181526007602052604081208054600182015460028301546004840154600385018054879687966060968896889693956001600160a01b0393841695939092169390926005870190839061073490611910565b80601f016020809104026020016040519081016040528092919081815260200182805461076090611910565b80156107ad5780601f10610782576101008083540402835291602001916107ad565b820191906000526020600020905b81548152906001019060200180831161079057829003601f168201915b505050505092508080546107c090611910565b80601f01602080910402602001604051908101604052809291908181526020018280546107ec90611910565b80156108395780601f1061080e57610100808354040283529160200191610839565b820191906000526020600020905b81548152906001019060200180831161081c57829003601f168201915b505050505090509650965096509650965096505091939550919395565b61085e610fa2565b6001600160a01b03811660009081526006602052604090205460ff166108ba5760405162461bcd60e51b81526020600482015260116024820152704e6f7420612062656e656669636961727960781b604482015260640161044e565b6001600160a01b038116600081815260066020526040808220805460ff19169055517f72977dad29432f655f11c2f0e72ef5124bb9ade7a512fb7a43a9f504df2234289190a250565b61090b610fa2565b610915600061120b565b565b60606004805461057290611910565b60076020526000908152604090208054600182015460028301546003840180546001600160a01b03948516959490931693919261096290611910565b80601f016020809104026020016040519081016040528092919081815260200182805461098e90611910565b80156109db5780601f106109b0576101008083540402835291602001916109db565b820191906000526020600020905b8154815290600101906020018083116109be57829003601f168201915b5050505050908060040154908060050180546109f690611910565b80601f0160208091040260200160405190810160405280929190818152602001828054610a2290611910565b8015610a6f5780601f10610a4457610100808354040283529160200191610a6f565b820191906000526020600020905b815481529060010190602001808311610a5257829003601f168201915b5050505050905086565b60098181548110610a8957600080fd5b6000918252602090912001546001600160a01b0316905081565b6000336106038185856111ac565b610ab9610fa2565b6001600160a01b038316610b015760405162461bcd60e51b815260206004820152600f60248201526e496e76616c6964206164647265737360881b604482015260640161044e565b8051825114610b4b5760405162461bcd60e51b8152602060048201526016602482015275082e4e4c2f2e640d8cadccee8d040dad2e6dac2e8c6d60531b604482015260640161044e565b6001600160a01b0383166000908152600660205260409020805460ff16610bc2578054600160ff19909116811782556009805491820181556000527f6e1540171b6c0c960b71a7020d9f60077f6af931a8bbf590da0223dacf75c7af0180546001600160a01b0319166001600160a01b0386161790555b60005b8351811015610c3557828181518110610be057610be061194a565b602002602001015182600201858381518110610bfe57610bfe61194a565b6020026020010151604051610c139190611960565b9081526040519081900360200190205580610c2d8161197c565b915050610bc5565b50836001600160a01b03167f01f1d862a00ecaa68b11ac05239f5aa7b1528c2ee427aee14aca0083c6909d338484604051610c71929190611995565b60405180910390a250505050565b6009546000908210610cc95760405162461bcd60e51b8152602060048201526013602482015272496e646578206f7574206f6620626f756e647360681b604482015260640161044e565b60098281548110610cdc57610cdc61194a565b6000918252602090912001546001600160a01b031692915050565b3360009081526006602052604081205460ff16610d4a5760405162461bcd60e51b81526020600482015260116024820152704e6f7420612062656e656669636961727960781b604482015260640161044e565b33600090815260066020526040908190209051600290910190610d6e908490611960565b9081526020016040518091039020548360066000336001600160a01b03166001600160a01b0316815260200190815260200160002060030184604051610db49190611960565b908152602001604051809103902054610dcd91906118e4565b1115610e1b5760405162461bcd60e51b815260206004820152601760248201527f43617465676f7279206c696d6974206578636565646564000000000000000000604482015260640161044e565b33600090815260066020526040908190209051849160030190610e3f908590611960565b90815260200160405180910390206000828254610e5c91906118e4565b92505081905550610ea5338585856040518060400160405280601781526020017f43617465676f72792d6261736564207472616e73666572000000000000000000815250611009565b336001600160a01b03167fcfbc2b064e4fe80c5e4495fcbea14e2354aa4da6c86f65666899fde522846feb8385604051610ee0929190611a30565b60405180910390a2610ef28484610aa3565b949350505050565b6001600160a01b03821660009081526006602052604080822090518291906003820190610f28908690611960565b9081526020016040518091039020548160020185604051610f499190611960565b90815260200160405180910390205492509250509250929050565b610f6c610fa2565b6001600160a01b038116610f9657604051631e4fbdf760e01b81526000600482015260240161044e565b610f9f8161120b565b50565b6005546001600160a01b031633146109155760405163118cdaa760e01b815233600482015260240161044e565b6001600160a01b038216610ff95760405163ec442f0560e01b81526000600482015260240161044e565b6110056000838361125d565b5050565b6040805160c0810182526001600160a01b03808816825286811660208084019182528385018881526060850188815242608087015260a086018890526008546000908152600790935295909120845181549085166001600160a01b0319918216178255925160018201805491909516931692909217909255905160028201559151909190600382019061109c9082611aa0565b506080820151600482015560a082015160058201906110bb9082611aa0565b509050506008547f95b08f0cc03d1a6dcfbc3b6a35813240cc3d47678b7bff83a4fd947258d75877868686866040516110f79493929190611b60565b60405180910390a26008805490600061110f8361197c565b91905055505050505050565b6111288383836001611387565b505050565b6001600160a01b038381166000908152600160209081526040808320938616835292905220546000198110156111a6578181101561119757604051637dc7a0d960e11b81526001600160a01b0384166004820152602481018290526044810183905260640161044e565b6111a684848484036000611387565b50505050565b6001600160a01b0383166111d657604051634b637e8f60e11b81526000600482015260240161044e565b6001600160a01b0382166112005760405163ec442f0560e01b81526000600482015260240161044e565b61112883838361125d565b600580546001600160a01b038381166001600160a01b0319831681179093556040519116919082907f8be0079c531659141344cd1fd0a4f28419497f9722a3daafe3b4186f6b6457e090600090a35050565b6001600160a01b03831661128857806002600082825461127d91906118e4565b909155506112fa9050565b6001600160a01b038316600090815260208190526040902054818110156112db5760405163391434e360e21b81526001600160a01b0385166004820152602481018290526044810183905260640161044e565b6001600160a01b03841660009081526020819052604090209082900390555b6001600160a01b03821661131657600280548290039055611335565b6001600160a01b03821660009081526020819052604090208054820190555b816001600160a01b0316836001600160a01b03167fddf252ad1be2c89b69c2b068fc378daa952ba7f163c4a11628f55a4df523b3ef8360405161137a91815260200190565b60405180910390a3505050565b6001600160a01b0384166113b15760405163e602df0560e01b81526000600482015260240161044e565b6001600160a01b0383166113db57604051634a1406b160e11b81526000600482015260240161044e565b6001600160a01b03808516600090815260016020908152604080832093871683529290522082905580156111a657826001600160a01b0316846001600160a01b03167f8c5be1e5ebec7d5bd14f71427d1e84f3dd0314c0f7b2291e5b200ac8c7c3b9258460405161144e91815260200190565b60405180910390a350505050565b80356001600160a01b038116811461147357600080fd5b919050565b60006020828403121561148a57600080fd5b6114938261145c565b9392505050565b634e487b7160e01b600052604160045260246000fd5b604051601f8201601f1916810167ffffffffffffffff811182821017156114d9576114d961149a565b604052919050565b600082601f8301126114f257600080fd5b813567ffffffffffffffff81111561150c5761150c61149a565b61151f601f8201601f19166020016114b0565b81815284602083860101111561153457600080fd5b816020850160208301376000918101602001919091529392505050565b60008060006060848603121561156657600080fd5b61156f8461145c565b925060208401359150604084013567ffffffffffffffff81111561159257600080fd5b61159e868287016114e1565b9150509250925092565b60005b838110156115c35781810151838201526020016115ab565b50506000910152565b600081518084526115e48160208601602086016115a8565b601f01601f19169290920160200192915050565b60208152600061149360208301846115cc565b6000806040838503121561161e57600080fd5b6116278361145c565b946020939093013593505050565b60006020828403121561164757600080fd5b5035919050565b60008060006060848603121561166357600080fd5b61166c8461145c565b925061167a6020850161145c565b9150604084013590509250925092565b6001600160a01b038781168252861660208201526040810185905260c0606082018190526000906116bd908301866115cc565b84608084015282810360a08401526116d581856115cc565b9998505050505050505050565b600067ffffffffffffffff8211156116fc576116fc61149a565b5060051b60200190565b600082601f83011261171757600080fd5b8135602061172c611727836116e2565b6114b0565b82815260059290921b8401810191818101908684111561174b57600080fd5b8286015b84811015611766578035835291830191830161174f565b509695505050505050565b60008060006060848603121561178657600080fd5b61178f8461145c565b925060208085013567ffffffffffffffff808211156117ad57600080fd5b818701915087601f8301126117c157600080fd5b81356117cf611727826116e2565b81815260059190911b8301840190848101908a8311156117ee57600080fd5b8585015b838110156118265780358581111561180a5760008081fd5b6118188d89838a01016114e1565b8452509186019186016117f2565b5096505050604087013592508083111561183f57600080fd5b505061159e86828701611706565b6000806040838503121561186057600080fd5b6118698361145c565b91506118776020840161145c565b90509250929050565b6000806040838503121561189357600080fd5b61189c8361145c565b9150602083013567ffffffffffffffff8111156118b857600080fd5b6118c4858286016114e1565b9150509250929050565b634e487b7160e01b600052601160045260246000fd5b80820180821115610609576106096118ce565b828152604060208201526000610ef260408301846115cc565b600181811c9082168061192457607f821691505b60208210810361194457634e487b7160e01b600052602260045260246000fd5b50919050565b634e487b7160e01b600052603260045260246000fd5b600082516119728184602087016115a8565b9190910192915050565b60006001820161198e5761198e6118ce565b5060010190565b6000604082016040835280855180835260608501915060608160051b8601019250602080880160005b838110156119ec57605f198887030185526119da8683516115cc565b955093820193908201906001016119be565b50508584038187015286518085528782019482019350915060005b82811015611a2357845184529381019392810192600101611a07565b5091979650505050505050565b604081526000611a4360408301856115cc565b90508260208301529392505050565b601f82111561112857600081815260208120601f850160051c81016020861015611a795750805b601f850160051c820191505b81811015611a9857828155600101611a85565b505050505050565b815167ffffffffffffffff811115611aba57611aba61149a565b611ace81611ac88454611910565b84611a52565b602080601f831160018114611b035760008415611aeb5750858301515b600019600386901b1c1916600185901b178555611a98565b600085815260208120601f198616915b82811015611b3257888601518255948401946001909101908401611b13565b5085821015611b505787850151600019600388901b60f8161c191681555b5050505050600190811b01905550565b6001600160a01b0385811682528416602082015260408101839052608060608201819052600090611b93908301846115cc565b969550505050505056fea264697066735822122081a0253a3d94769d300c74251a12da1d81975a194fe8d2013919bbdd0aed2cb064736f6c63430008140033c65a7bb8d6351c1cf70c95a316cc6a92839c986682d98bc35f958f4883f9d2a8",
  "linkReferences": {},
  "deployedLinkReferences": {}
}